Component: ARM Compiler 5.06 update 6 (build 750) Tool: armlink [4d35ed]

==============================================================================

Section Cross References

    startup_stm32f10x_hd.o(STACK) refers (Special) to heapauxi.o(.text) for __use_two_region_memory
    startup_stm32f10x_hd.o(HEAP) refers (Special) to heapauxi.o(.text) for __use_two_region_memory
    startup_stm32f10x_hd.o(RESET) refers (Special) to heapauxi.o(.text) for __use_two_region_memory
    startup_stm32f10x_hd.o(RESET) refers to startup_stm32f10x_hd.o(STACK) for __initial_sp
    startup_stm32f10x_hd.o(RESET) refers to startup_stm32f10x_hd.o(.text) for Reset_Handler
    startup_stm32f10x_hd.o(RESET) refers to stm32f10x_it.o(i.NMI_Handler) for NMI_Handler
    startup_stm32f10x_hd.o(RESET) refers to stm32f10x_it.o(i.HardFault_Handler) for HardFault_Handler
    startup_stm32f10x_hd.o(RESET) refers to stm32f10x_it.o(i.MemManage_Handler) for MemManage_Handler
    startup_stm32f10x_hd.o(RESET) refers to stm32f10x_it.o(i.BusFault_Handler) for BusFault_Handler
    startup_stm32f10x_hd.o(RESET) refers to stm32f10x_it.o(i.UsageFault_Handler) for UsageFault_Handler
    startup_stm32f10x_hd.o(RESET) refers to port.o(.emb_text) for SVC_Handler
    startup_stm32f10x_hd.o(RESET) refers to stm32f10x_it.o(i.DebugMon_Handler) for DebugMon_Handler
    startup_stm32f10x_hd.o(RESET) refers to delay.o(i.SysTick_Handler) for SysTick_Handler
    startup_stm32f10x_hd.o(RESET) refers to hcsr04.o(i.TIM1_UP_IRQHandler) for TIM1_UP_IRQHandler
    startup_stm32f10x_hd.o(RESET) refers to app.o(i.TIM3_IRQHandler) for TIM3_IRQHandler
    startup_stm32f10x_hd.o(RESET) refers to usart.o(i.USART1_IRQHandler) for USART1_IRQHandler
    startup_stm32f10x_hd.o(RESET) refers to usart.o(i.USART2_IRQHandler) for USART2_IRQHandler
    startup_stm32f10x_hd.o(.text) refers (Special) to heapauxi.o(.text) for __use_two_region_memory
==============================================================================

Removing Unused input sections from the image.

    Removing core_cm3.o(.emb_text), (32 bytes).
    Removing misc.o(i.NVIC_SetVectorTable), (20 bytes).
    Removing misc.o(i.NVIC_SystemLPConfig), (28 bytes).
    Removing stm32f10x_gpio.o(i.GPIO_AFIODeInit), (22 bytes).
    Removing stm32f10x_gpio.o(i.GPIO_DeInit), (216 bytes).
    Removing stm32f10x_gpio.o(i.GPIO_ETH_MediaInterfaceConfig), (12 bytes).
    Removing stm32f10x_gpio.o(i.GPIO_EXTILineConfig), (40 bytes).
    Removing stm32f10x_gpio.o(i.GPIO_EventOutputCmd), (12 bytes).
    Removing stm32f10x_gpio.o(i.GPIO_EventOutputConfig), (28 bytes).
    Removing stm32f10x_gpio.o(i.GPIO_PinLockConfig), (16 bytes).
    Removing stm32f10x_gpio.o(i.GPIO_PinRemapConfig), (92 bytes).
    Removing stm32f10x_gpio.o(i.GPIO_ReadInputData), (6 bytes).
    Removing stm32f10x_gpio.o(i.GPIO_ReadOutputData), (6 bytes).
    Removing stm32f10x_gpio.o(i.GPIO_ReadOutputDataBit), (14 bytes).
    Removing stm32f10x_gpio.o(i.GPIO_StructInit), (16 bytes).
    Removing stm32f10x_gpio.o(i.GPIO_Write), (4 bytes).
    Removing stm32f10x_i2c.o(i.I2C_ARPCmd), (24 bytes).
    Removing stm32f10x_i2c.o(i.I2C_AcknowledgeConfig), (24 bytes).
==============================================================================

Image Symbol Table

    Local Symbols

    Symbol Name                              Value     Ov Type        Size  Object(Section)

    ../clib/angel/boardlib.s                 0x00000000   Number         0  boardshut.o ABSOLUTE
    ../clib/angel/boardlib.s                 0x00000000   Number         0  boardinit3.o ABSOLUTE
    ../clib/angel/boardlib.s                 0x00000000   Number         0  boardinit2.o ABSOLUTE
    ../clib/angel/boardlib.s                 0x00000000   Number         0  boardinit1.o ABSOLUTE
    ../clib/angel/handlers.s                 0x00000000   Number         0  __scatter_copy.o ABSOLUTE
    ../clib/angel/handlers.s                 0x00000000   Number         0  __scatter_zi.o ABSOLUTE
    ../clib/angel/kernel.s                   0x00000000   Number         0  rtexit.o ABSOLUTE
    ../clib/angel/kernel.s                   0x00000000   Number         0  __rtentry2.o ABSOLUTE
    ../clib/angel/kernel.s                   0x00000000   Number         0  __rtentry4.o ABSOLUTE
    ../clib/angel/kernel.s                   0x00000000   Number         0  __rtentry.o ABSOLUTE
    ../clib/angel/kernel.s                   0x00000000   Number         0  rtexit2.o ABSOLUTE
    ../clib/angel/rt.s                       0x00000000   Number         0  rt_raise.o ABSOLUTE
    ../clib/angel/rt.s                       0x00000000   Number         0  aeabi_ldiv0_sigfpe.o ABSOLUTE
    ../clib/angel/rt.s                       0x00000000   Number         0  rt_locale.o ABSOLUTE
    ../clib/angel/rt.s                       0x00000000   Number         0  rt_ctype_table.o ABSOLUTE
    ../clib/angel/rt.s                       0x00000000   Number         0  rt_locale_intlibspace.o ABSOLUTE
    ../clib/angel/rt.s                       0x00000000   Number         0  rt_div0.o ABSOLUTE
    ../clib/angel/rt.s                       0x00000000   Number         0  aeabi_ldiv0.o ABSOLUTE
    ../clib/angel/scatter.s                  0x00000000   Number         0  __scatter.o ABSOLUTE
    ../clib/angel/startup.s                  0x00000000   Number         0  __main.o ABSOLUTE
    ../clib/angel/sys.s                      0x00000000   Number         0  sys_stackheap_outer.o ABSOLUTE
    ../clib/angel/sys.s                      0x00000000   Number         0  libspace.o ABSOLUTE
    ../clib/angel/sys.s                      0x00000000   Number         0  use_no_semi.o ABSOLUTE
    ../clib/angel/sys.s                      0x00000000   Number         0  use_no_semi_2.o ABSOLUTE
    ../clib/armsys.c                         0x00000000   Number         0  _get_argv_nomalloc.o ABSOLUTE
    ../clib/armsys.c                         0x00000000   Number         0  argv_veneer.o ABSOLUTE
    ../clib/armsys.c                         0x00000000   Number         0  argv_veneer.o ABSOLUTE
    ../clib/armsys.c                         0x00000000   Number         0  no_argv.o ABSOLUTE
    ../clib/bigflt.c                         0x00000000   Number         0  bigflt0.o ABSOLUTE
    ../clib/btod.s                           0x00000000   Number         0  btod.o ABSOLUTE
    ../clib/heapalloc.c                      0x00000000   Number         0  hrguard.o ABSOLUTE
    ../clib/heapaux.c                        0x00000000   Number         0  heapauxi.o ABSOLUTE
    ../clib/libinit.s                        0x00000000   Number         0  libinit.o ABSOLUTE
    ../clib/libinit.s                        0x00000000   Number         0  libshutdown2.o ABSOLUTE
    ../clib/libinit.s                        0x00000000   Number         0  libinit2.o ABSOLUTE
    ../clib/libinit.s                        0x00000000   Number         0  libshutdown.o ABSOLUTE
    ../clib/locale.c                         0x00000000   Number         0  _wcrtomb.o ABSOLUTE
    ../clib/locale.s                         0x00000000   Number         0  lc_ctype_c.o ABSOLUTE
    ../clib/locale.s                         0x00000000   Number         0  lc_numeric_c.o ABSOLUTE
    ../clib/longlong.s                       0x00000000   Number         0  lludivv7m.o ABSOLUTE
    ../clib/longlong.s                       0x00000000   Number         0  lludiv10.o ABSOLUTE
    ../clib/memcpset.s                       0x00000000   Number         0  rt_memclr_w.o ABSOLUTE
    ../clib/memcpset.s                       0x00000000   Number         0  aeabi_memset.o ABSOLUTE
    ../clib/memcpset.s                       0x00000000   Number         0  memset.o ABSOLUTE
    ../clib/memcpset.s                       0x00000000   Number         0  rt_memcpy_v6.o ABSOLUTE
    ../clib/memcpset.s                       0x00000000   Number         0  rt_memcpy_w.o ABSOLUTE
    ../clib/memcpset.s                       0x00000000   Number         0  strcmpv7m.o ABSOLUTE
    ../clib/memcpset.s                       0x00000000   Number         0  rt_memclr.o ABSOLUTE
    ../clib/misc.s                           0x00000000   Number         0  printf_stubs.o ABSOLUTE
    ../clib/printf.c                         0x00000000   Number         0  noretval__2sprintf.o ABSOLUTE
    ../clib/printf.c                         0x00000000   Number         0  __printf.o ABSOLUTE
    ../clib/printf.c                         0x00000000   Number         0  _printf_str.o ABSOLUTE
    ../clib/printf.c                         0x00000000   Number         0  _printf_hex_int_ptr.o ABSOLUTE
    ../clib/printf.c                         0x00000000   Number         0  _printf_dec.o ABSOLUTE
    ../clib/printf.c                         0x00000000   Number         0  __printf_flags.o ABSOLUTE
    ../clib/printf.c                         0x00000000   Number         0  __printf_ss.o ABSOLUTE
    ../clib/printf.c                         0x00000000   Number         0  __printf_flags_ss.o ABSOLUTE
    ../clib/printf.c                         0x00000000   Number         0  _printf_hex_ll_ptr.o ABSOLUTE
    ../clib/printf.c                         0x00000000   Number         0  __printf_wp.o ABSOLUTE
    ../clib/printf.c                         0x00000000   Number         0  __printf_flags_wp.o ABSOLUTE
    ../clib/printf.c                         0x00000000   Number         0  __printf_flags_ss_wp.o ABSOLUTE
    ../clib/printf.c                         0x00000000   Number         0  _printf_fp_infnan.o ABSOLUTE
    ../clib/printf.c                         0x00000000   Number         0  _printf_char.o ABSOLUTE
    ../clib/printf.c                         0x00000000   Number         0  _printf_wchar.o ABSOLUTE
    ../clib/printf.c                         0x00000000   Number         0  __printf_nopercent.o ABSOLUTE
    ../clib/printf.c                         0x00000000   Number         0  _printf_fp_hex.o ABSOLUTE
    ../clib/printf.c                         0x00000000   Number         0  _printf_fp_dec.o ABSOLUTE
    ../clib/printf.c                         0x00000000   Number         0  noretval__2printf.o ABSOLUTE
    ../clib/printf.c                         0x00000000   Number         0  __2sprintf.o ABSOLUTE
    ../clib/printf.c                         0x00000000   Number         0  __2printf.o ABSOLUTE
    ../clib/printf.c                         0x00000000   Number         0  vsnprintf.o ABSOLUTE
    ../clib/printf.c                         0x00000000   Number         0  __printf_ss_wp.o ABSOLUTE
    ../clib/printf.c                         0x00000000   Number         0  _printf_pad.o ABSOLUTE
    ../clib/printf.c                         0x00000000   Number         0  _printf_truncate.o ABSOLUTE
    ../clib/printf.c                         0x00000000   Number         0  _printf_intcommon.o ABSOLUTE
    ../clib/printf.c                         0x00000000   Number         0  _printf_charcount.o ABSOLUTE
    ../clib/printf.c                         0x00000000   Number         0  _printf_hex_int_ll_ptr.o ABSOLUTE
    ../clib/printf.c                         0x00000000   Number         0  _printf_char_common.o ABSOLUTE
    ../clib/printf.c                         0x00000000   Number         0  _sputc.o ABSOLUTE
    ../clib/printf.c                         0x00000000   Number         0  _snputc.o ABSOLUTE
    ../clib/printf.c                         0x00000000   Number         0  _printf_char_file.o ABSOLUTE
    ../clib/printf.c                         0x00000000   Number         0  _printf_wctomb.o ABSOLUTE
    ../clib/printf.c                         0x00000000   Number         0  _printf_longlong_dec.o ABSOLUTE
    ../clib/printf.c                         0x00000000   Number         0  _printf_oct_ll.o ABSOLUTE
    ../clib/printf.c                         0x00000000   Number         0  _printf_oct_int.o ABSOLUTE
    ../clib/printf.c                         0x00000000   Number         0  _printf_oct_int_ll.o ABSOLUTE
    ../clib/printf.c                         0x00000000   Number         0  _printf_hex_ll.o ABSOLUTE
    ../clib/printf.c                         0x00000000   Number         0  _printf_hex_int.o ABSOLUTE
    ../clib/printf.c                         0x00000000   Number         0  _printf_hex_int_ll.o ABSOLUTE
    ../clib/printf.c                         0x00000000   Number         0  _printf_hex_ptr.o ABSOLUTE
    ../clib/printf_percent.s                 0x00000000   Number         0  _printf_llu.o ABSOLUTE
    ../clib/printf_percent.s                 0x00000000   Number         0  _printf_lld.o ABSOLUTE
    ../clib/printf_percent.s                 0x00000000   Number         0  _printf_c.o ABSOLUTE
    ../clib/printf_percent.s                 0x00000000   Number         0  _printf_s.o ABSOLUTE
    ../clib/printf_percent.s                 0x00000000   Number         0  _printf_d.o ABSOLUTE
    ../clib/printf_percent.s                 0x00000000   Number         0  _printf_u.o ABSOLUTE
    ../clib/printf_percent.s                 0x00000000   Number         0  _printf_percent.o ABSOLUTE
    ../clib/printf_percent.s                 0x00000000   Number         0  _printf_x.o ABSOLUTE
    ../clib/printf_percent.s                 0x00000000   Number         0  _printf_n.o ABSOLUTE
    ../clib/printf_percent.s                 0x00000000   Number         0  _printf_ll.o ABSOLUTE
    ../clib/printf_percent.s                 0x00000000   Number         0  _printf_lli.o ABSOLUTE
    ../clib/printf_percent.s                 0x00000000   Number         0  _printf_e.o ABSOLUTE
    ../clib/printf_percent.s                 0x00000000   Number         0  _printf_g.o ABSOLUTE
    ../clib/printf_percent.s                 0x00000000   Number         0  _printf_percent_end.o ABSOLUTE
    ../clib/printf_percent.s                 0x00000000   Number         0  _printf_o.o ABSOLUTE
    ../clib/printf_percent.s                 0x00000000   Number         0  _printf_p.o ABSOLUTE
    ../clib/printf_percent.s                 0x00000000   Number         0  _printf_i.o ABSOLUTE
    ../clib/printf_percent.s                 0x00000000   Number         0  _printf_f.o ABSOLUTE
    ../clib/printf_percent.s                 0x00000000   Number         0  _printf_l.o ABSOLUTE
    ../clib/printf_percent.s                 0x00000000   Number         0  _printf_a.o ABSOLUTE
    ../clib/printf_percent.s                 0x00000000   Number         0  _printf_lc.o ABSOLUTE
    ../clib/printf_percent.s                 0x00000000   Number         0  _printf_ls.o ABSOLUTE
    ../clib/printf_percent.s                 0x00000000   Number         0  _printf_llo.o ABSOLUTE
    ../clib/printf_percent.s                 0x00000000   Number         0  _printf_llx.o ABSOLUTE
    ../clib/signal.c                         0x00000000   Number         0  defsig_exit.o ABSOLUTE
    ../clib/signal.c                         0x00000000   Number         0  defsig_fpe_formal.o ABSOLUTE
    ../clib/signal.c                         0x00000000   Number         0  __raise.o ABSOLUTE
    ../clib/signal.c                         0x00000000   Number         0  defsig_general.o ABSOLUTE
    ../clib/signal.c                         0x00000000   Number         0  defsig_fpe_outer.o ABSOLUTE
    ../clib/signal.c                         0x00000000   Number         0  defsig_abrt_inner.o ABSOLUTE
    ../clib/signal.c                         0x00000000   Number         0  defsig_rtmem_inner.o ABSOLUTE
    ../clib/signal.c                         0x00000000   Number         0  defsig_pvfn_inner.o ABSOLUTE
    ../clib/signal.c                         0x00000000   Number         0  defsig_cppl_inner.o ABSOLUTE
    ../clib/signal.c                         0x00000000   Number         0  defsig_segv_inner.o ABSOLUTE
    ../clib/signal.c                         0x00000000   Number         0  defsig_rtmem_outer.o ABSOLUTE
    ../clib/signal.c                         0x00000000   Number         0  defsig_rtmem_formal.o ABSOLUTE
    ../clib/signal.c                         0x00000000   Number         0  defsig_rtred_inner.o ABSOLUTE
    ../clib/signal.c                         0x00000000   Number         0  defsig_stak_inner.o ABSOLUTE
    ../clib/signal.c                         0x00000000   Number         0  defsig_fpe_inner.o ABSOLUTE
    ../clib/signal.c                         0x00000000   Number         0  defsig_other.o ABSOLUTE
    ../clib/signal.s                         0x00000000   Number         0  defsig.o ABSOLUTE
    ../clib/stdio.c                          0x00000000   Number         0  ferror_locked.o ABSOLUTE
    ../clib/stdio.c                          0x00000000   Number         0  ferror.o ABSOLUTE
    ../clib/stdlib.c                         0x00000000   Number         0  exit.o ABSOLUTE
    ../clib/string.c                         0x00000000   Number         0  strstr.o ABSOLUTE
    ../clib/string.c                         0x00000000   Number         0  strcpy.o ABSOLUTE
    ../clib/string.c                         0x00000000   Number         0  strlen.o ABSOLUTE
    ../clib/string.c                         0x00000000   Number         0  strcat.o ABSOLUTE
    ../fplib/d2f.s                           0x00000000   Number         0  d2f.o ABSOLUTE
    ../fplib/dcheck1.s                       0x00000000   Number         0  dcheck1.o ABSOLUTE
    ../fplib/dflt.s                          0x00000000   Number         0  dflt_clz.o ABSOLUTE
    ../fplib/dmul.s                          0x00000000   Number         0  dmul.o ABSOLUTE
    ../fplib/dnaninf.s                       0x00000000   Number         0  dnaninf.o ABSOLUTE
    ../fplib/dretinf.s                       0x00000000   Number         0  dretinf.o ABSOLUTE
    ../fplib/faddsub.s                       0x00000000   Number         0  faddsub_clz.o ABSOLUTE
    ../fplib/ffix.s                          0x00000000   Number         0  ffix.o ABSOLUTE
    ../fplib/ffixu.s                         0x00000000   Number         0  ffixu.o ABSOLUTE
    ../fplib/fflt.s                          0x00000000   Number         0  fflt_clz.o ABSOLUTE
    ../fplib/fmul.s                          0x00000000   Number         0  fmul.o ABSOLUTE
    ../fplib/fnaninf.s                       0x00000000   Number         0  fnaninf.o ABSOLUTE
    ../fplib/fpinit.s                        0x00000000   Number         0  fpinit.o ABSOLUTE
    ../fplib/fretinf.s                       0x00000000   Number         0  fretinf.o ABSOLUTE
    ../fplib/istatus.s                       0x00000000   Number         0  istatus.o ABSOLUTE
    ../fplib/printf1.s                       0x00000000   Number         0  printf1.o ABSOLUTE
    ../fplib/printf2.s                       0x00000000   Number         0  printf2.o ABSOLUTE
    ../fplib/printf2a.s                      0x00000000   Number         0  printf2a.o ABSOLUTE
    ../fplib/printf2b.s                      0x00000000   Number         0  printf2b.o ABSOLUTE
    ../fplib/retnan.s                        0x00000000   Number         0  retnan.o ABSOLUTE
    ../fplib/scalbn.s                        0x00000000   Number         0  scalbn.o ABSOLUTE
    ../fplib/trapv.s                         0x00000000   Number         0  trapv.o ABSOLUTE
    ../fplib/usenofp.s                       0x00000000   Number         0  usenofp.o ABSOLUTE
    ../mathlib/fpclassify.c                  0x00000000   Number         0  fpclassify.o ABSOLUTE
    ..\CORE\core_cm3.c                       0x00000000   Number         0  core_cm3.o ABSOLUTE
    ..\CORE\startup_stm32f10x_hd.s           0x00000000   Number         0  startup_stm32f10x_hd.o ABSOLUTE
    ..\FreeRTOS\croutine.c                   0x00000000   Number         0  croutine.o ABSOLUTE
    ..\FreeRTOS\event_groups.c               0x00000000   Number         0  event_groups.o ABSOLUTE
    ..\FreeRTOS\list.c                       0x00000000   Number         0  list.o ABSOLUTE
    ..\FreeRTOS\portable\MemMang\heap_4.c    0x00000000   Number         0  heap_4.o ABSOLUTE
    ..\FreeRTOS\portable\RVDS\ARM_CM3\port.c 0x00000000   Number         0  port.o ABSOLUTE
    ..\FreeRTOS\queue.c                      0x00000000   Number         0  queue.o ABSOLUTE
    ..\FreeRTOS\stream_buffer.c              0x00000000   Number         0  stream_buffer.o ABSOLUTE
    ..\FreeRTOS\tasks.c                      0x00000000   Number         0  tasks.o ABSOLUTE
    ..\FreeRTOS\timers.c                     0x00000000   Number         0  timers.o ABSOLUTE
    ..\HARDWARE\BEEP\beep.c                  0x00000000   Number         0  beep.o ABSOLUTE
    ..\HARDWARE\BLE\ble.c                    0x00000000   Number         0  ble.o ABSOLUTE
    ..\HARDWARE\HCSR04\hcsr04.c              0x00000000   Number         0  hcsr04.o ABSOLUTE
    ..\HARDWARE\KEY\key.c                    0x00000000   Number         0  key.o ABSOLUTE
    ..\HARDWARE\MOTO\encoder.c               0x00000000   Number         0  encoder.o ABSOLUTE
    ..\HARDWARE\MOTO\motor.c                 0x00000000   Number         0  motor.o ABSOLUTE
    ..\HARDWARE\MOTO\pid.c                   0x00000000   Number         0  pid.o ABSOLUTE
    ..\HARDWARE\OLED\oled.c                  0x00000000   Number         0  oled.o ABSOLUTE
    ..\HARDWARE\SG90\sg90.c                  0x00000000   Number         0  sg90.o ABSOLUTE
    ..\HARDWARE\TCRT\tcrt.c                  0x00000000   Number         0  tcrt.o ABSOLUTE
    ..\STM32F10x_FWLib\src\misc.c            0x00000000   Number         0  misc.o ABSOLUTE
    ..\STM32F10x_FWLib\src\stm32f10x_adc.c   0x00000000   Number         0  stm32f10x_adc.o ABSOLUTE
    ..\STM32F10x_FWLib\src\stm32f10x_gpio.c  0x00000000   Number         0  stm32f10x_gpio.o ABSOLUTE
    ..\STM32F10x_FWLib\src\stm32f10x_i2c.c   0x00000000   Number         0  stm32f10x_i2c.o ABSOLUTE
    ..\STM32F10x_FWLib\src\stm32f10x_iwdg.c  0x00000000   Number         0  stm32f10x_iwdg.o ABSOLUTE
    ..\STM32F10x_FWLib\src\stm32f10x_rcc.c   0x00000000   Number         0  stm32f10x_rcc.o ABSOLUTE
    ..\STM32F10x_FWLib\src\stm32f10x_tim.c   0x00000000   Number         0  stm32f10x_tim.o ABSOLUTE
    ..\STM32F10x_FWLib\src\stm32f10x_usart.c 0x00000000   Number         0  stm32f10x_usart.o ABSOLUTE
    ..\SYSTEM\src\adc.c                      0x00000000   Number         0  adc.o ABSOLUTE
    ..\SYSTEM\src\delay.c                    0x00000000   Number         0  delay.o ABSOLUTE
    ..\SYSTEM\src\iic.c                      0x00000000   Number         0  iic.o ABSOLUTE
    ..\SYSTEM\src\iwdg.c                     0x00000000   Number         0  iwdg.o ABSOLUTE
    ..\SYSTEM\src\sys.c                      0x00000000   Number         0  sys.o ABSOLUTE
    ..\SYSTEM\src\timer.c                    0x00000000   Number         0  timer.o ABSOLUTE
    ..\SYSTEM\src\usart.c                    0x00000000   Number         0  usart.o ABSOLUTE
    ..\USER\src\app.c                        0x00000000   Number         0  app.o ABSOLUTE
    ..\USER\src\main.c                       0x00000000   Number         0  main.o ABSOLUTE
    ..\USER\src\os.c                         0x00000000   Number         0  os.o ABSOLUTE
    ..\UTILS\MALLOC\malloc.c                 0x00000000   Number         0  malloc.o ABSOLUTE
    ..\\CORE\\core_cm3.c                     0x00000000   Number         0  core_cm3.o ABSOLUTE
    ..\\FreeRTOS\\portable\\RVDS\\ARM_CM3\\port.c 0x00000000   Number         0  port.o ABSOLUTE
    ..\\SYSTEM\\src\\sys.c                   0x00000000   Number         0  sys.o ABSOLUTE
    dc.s                                     0x00000000   Number         0  dc.o ABSOLUTE
    stm32f10x_it.c                           0x00000000   Number         0  stm32f10x_it.o ABSOLUTE
    system_stm32f10x.c                       0x00000000   Number         0  system_stm32f10x.o ABSOLUTE
    RESET                                    0x08000000   Section      304  startup_stm32f10x_hd.o(RESET)
    !!!main                                  0x08000130   Section        8  __main.o(!!!main)
    !!!scatter                               0x08000138   Section       52  __scatter.o(!!!scatter)
    !!handler_copy                           0x0800016c   Section       26  __scatter_copy.o(!!handler_copy)
    !!handler_zi                             0x08000188   Section       28  __scatter_zi.o(!!handler_zi)
    .ARM.Collect$$_printf_percent$$00000000  0x080001a4   Section        0  _printf_percent.o(.ARM.Collect$$_printf_percent$$00000000)
    .ARM.Collect$$_printf_percent$$00000001  0x080001a4   Section        6  _printf_n.o(.ARM.Collect$$_printf_percent$$00000001)
    .ARM.Collect$$_printf_percent$$00000002  0x080001aa   Section        6  _printf_p.o(.ARM.Collect$$_printf_percent$$00000002)
    .ARM.Collect$$_printf_percent$$00000003  0x080001b0   Section        6  _printf_f.o(.ARM.Collect$$_printf_percent$$00000003)
    .ARM.Collect$$_printf_percent$$00000004  0x080001b6   Section        6  _printf_e.o(.ARM.Collect$$_printf_percent$$00000004)
    .ARM.Collect$$_printf_percent$$00000005  0x080001bc   Section        6  _printf_g.o(.ARM.Collect$$_printf_percent$$00000005)
    .ARM.Collect$$_printf_percent$$00000006  0x080001c2   Section        6  _printf_a.o(.ARM.Collect$$_printf_percent$$00000006)
    .ARM.Collect$$_printf_percent$$00000007  0x080001c8   Section       10  _printf_ll.o(.ARM.Collect$$_printf_percent$$00000007)
    .ARM.Collect$$_printf_percent$$00000008  0x080001d2   Section        6  _printf_i.o(.ARM.Collect$$_printf_percent$$00000008)
    .ARM.Collect$$_printf_percent$$00000009  0x080001d8   Section        6  _printf_d.o(.ARM.Collect$$_printf_percent$$00000009)
    .ARM.Collect$$_printf_percent$$0000000A  0x080001de   Section        6  _printf_u.o(.ARM.Collect$$_printf_percent$$0000000A)
    .ARM.Collect$$_printf_percent$$0000000B  0x080001e4   Section        6  _printf_o.o(.ARM.Collect$$_printf_percent$$0000000B)
    .ARM.Collect$$_printf_percent$$0000000C  0x080001ea   Section        6  _printf_x.o(.ARM.Collect$$_printf_percent$$0000000C)
    .ARM.Collect$$_printf_percent$$0000000D  0x080001f0   Section        6  _printf_lli.o(.ARM.Collect$$_printf_percent$$0000000D)
    .ARM.Collect$$_printf_percent$$0000000E  0x080001f6   Section        6  _printf_lld.o(.ARM.Collect$$_printf_percent$$0000000E)
    .ARM.Collect$$_printf_percent$$0000000F  0x080001fc   Section        6  _printf_llu.o(.ARM.Collect$$_printf_percent$$0000000F)
    .ARM.Collect$$_printf_percent$$00000010  0x08000202   Section        6  _printf_llo.o(.ARM.Collect$$_printf_percent$$00000010)
    .ARM.Collect$$_printf_percent$$00000011  0x08000208   Section        6  _printf_llx.o(.ARM.Collect$$_printf_percent$$00000011)
    .ARM.Collect$$_printf_percent$$00000012  0x0800020e   Section       10  _printf_l.o(.ARM.Collect$$_printf_percent$$00000012)
    .ARM.Collect$$_printf_percent$$00000013  0x08000218   Section        6  _printf_c.o(.ARM.Collect$$_printf_percent$$00000013)
    .ARM.Collect$$_printf_percent$$00000014  0x0800021e   Section        6  _printf_s.o(.ARM.Collect$$_printf_percent$$00000014)
    .ARM.Collect$$_printf_percent$$00000015  0x08000224   Section        6  _printf_lc.o(.ARM.Collect$$_printf_percent$$00000015)
    .ARM.Collect$$_printf_percent$$00000016  0x0800022a   Section        6  _printf_ls.o(.ARM.Collect$$_printf_percent$$00000016)
    .ARM.Collect$$_printf_percent$$00000017  0x08000230   Section        4  _printf_percent_end.o(.ARM.Collect$$_printf_percent$$00000017)
    .ARM.Collect$$libinit$$00000000          0x08000234   Section        2  libinit.o(.ARM.Collect$$libinit$$00000000)
    .ARM.Collect$$libinit$$00000002          0x08000236   Section        0  libinit2.o(.ARM.Collect$$libinit$$00000002)
    .ARM.Collect$$libinit$$00000004          0x08000236   Section        0  libinit2.o(.ARM.Collect$$libinit$$00000004)
    .ARM.Collect$$libinit$$0000000A          0x08000236   Section        0  libinit2.o(.ARM.Collect$$libinit$$0000000A)
    .ARM.Collect$$libinit$$0000000C          0x08000236   Section        0  libinit2.o(.ARM.Collect$$libinit$$0000000C)
    .ARM.Collect$$libinit$$0000000E          0x08000236   Section        0  libinit2.o(.ARM.Collect$$libinit$$0000000E)
    .ARM.Collect$$libinit$$0000000F          0x08000236   Section        6  libinit2.o(.ARM.Collect$$libinit$$0000000F)
    .ARM.Collect$$libinit$$00000011          0x0800023c   Section        0  libinit2.o(.ARM.Collect$$libinit$$00000011)
    .ARM.Collect$$libinit$$00000012          0x0800023c   Section       12  libinit2.o(.ARM.Collect$$libinit$$00000012)
    .ARM.Collect$$libinit$$00000013          0x08000248   Section        0  libinit2.o(.ARM.Collect$$libinit$$00000013)
    .ARM.Collect$$libinit$$00000015          0x08000248   Section        0  libinit2.o(.ARM.Collect$$libinit$$00000015)
    .ARM.Collect$$libinit$$00000016          0x08000248   Section       10  libinit2.o(.ARM.Collect$$libinit$$00000016)
    .ARM.Collect$$libinit$$00000017          0x08000252   Section        0  libinit2.o(.ARM.Collect$$libinit$$00000017)
    .ARM.Collect$$libinit$$00000019          0x08000252   Section        0  libinit2.o(.ARM.Collect$$libinit$$00000019)
    .ARM.Collect$$libinit$$0000001B          0x08000252   Section        0  libinit2.o(.ARM.Collect$$libinit$$0000001B)
    .ARM.Collect$$libinit$$0000001D          0x08000252   Section        0  libinit2.o(.ARM.Collect$$libinit$$0000001D)
    .ARM.Collect$$libinit$$0000001F          0x08000252   Section        0  libinit2.o(.ARM.Collect$$libinit$$0000001F)
    .ARM.Collect$$libinit$$00000021          0x08000252   Section        0  libinit2.o(.ARM.Collect$$libinit$$00000021)
    .ARM.Collect$$libinit$$00000023          0x08000252   Section        0  libinit2.o(.ARM.Collect$$libinit$$00000023)
    .ARM.Collect$$libinit$$00000025          0x08000252   Section        0  libinit2.o(.ARM.Collect$$libinit$$00000025)
    .ARM.Collect$$libinit$$0000002C          0x08000252   Section        0  libinit2.o(.ARM.Collect$$libinit$$0000002C)
    .ARM.Collect$$libinit$$0000002E          0x08000252   Section        0  libinit2.o(.ARM.Collect$$libinit$$0000002E)
    .ARM.Collect$$libinit$$00000030          0x08000252   Section        0  libinit2.o(.ARM.Collect$$libinit$$00000030)
    .ARM.Collect$$libinit$$00000032          0x08000252   Section        0  libinit2.o(.ARM.Collect$$libinit$$00000032)
    .ARM.Collect$$libinit$$00000033          0x08000252   Section        2  libinit2.o(.ARM.Collect$$libinit$$00000033)
    .ARM.Collect$$libshutdown$$00000000      0x08000254   Section        2  libshutdown.o(.ARM.Collect$$libshutdown$$00000000)
    .ARM.Collect$$libshutdown$$00000002      0x08000256   Section        0  libshutdown2.o(.ARM.Collect$$libshutdown$$00000002)
    .ARM.Collect$$libshutdown$$00000004      0x08000256   Section        0  libshutdown2.o(.ARM.Collect$$libshutdown$$00000004)
    .ARM.Collect$$libshutdown$$00000007      0x08000256   Section        0  libshutdown2.o(.ARM.Collect$$libshutdown$$00000007)
    .ARM.Collect$$libshutdown$$0000000A      0x08000256   Section        0  libshutdown2.o(.ARM.Collect$$libshutdown$$0000000A)
    .ARM.Collect$$libshutdown$$0000000C      0x08000256   Section        0  libshutdown2.o(.ARM.Collect$$libshutdown$$0000000C)
    .ARM.Collect$$libshutdown$$0000000F      0x08000256   Section        0  libshutdown2.o(.ARM.Collect$$libshutdown$$0000000F)
    .ARM.Collect$$libshutdown$$00000010      0x08000256   Section        2  libshutdown2.o(.ARM.Collect$$libshutdown$$00000010)
    .ARM.Collect$$rtentry$$00000000          0x08000258   Section        0  __rtentry.o(.ARM.Collect$$rtentry$$00000000)
    .ARM.Collect$$rtentry$$00000002          0x08000258   Section        0  __rtentry2.o(.ARM.Collect$$rtentry$$00000002)
    .ARM.Collect$$rtentry$$00000004          0x08000258   Section        6  __rtentry4.o(.ARM.Collect$$rtentry$$00000004)
    .ARM.Collect$$rtentry$$00000009          0x0800025e   Section        0  __rtentry2.o(.ARM.Collect$$rtentry$$00000009)
    .ARM.Collect$$rtentry$$0000000A          0x0800025e   Section        4  __rtentry2.o(.ARM.Collect$$rtentry$$0000000A)
    .ARM.Collect$$rtentry$$0000000C          0x08000262   Section        0  __rtentry2.o(.ARM.Collect$$rtentry$$0000000C)
    .ARM.Collect$$rtentry$$0000000D          0x08000262   Section        8  __rtentry2.o(.ARM.Collect$$rtentry$$0000000D)
    .ARM.Collect$$rtexit$$00000000           0x0800026a   Section        2  rtexit.o(.ARM.Collect$$rtexit$$00000000)
    .ARM.Collect$$rtexit$$00000002           0x0800026c   Section        0  rtexit2.o(.ARM.Collect$$rtexit$$00000002)
    .ARM.Collect$$rtexit$$00000003           0x0800026c   Section        4  rtexit2.o(.ARM.Collect$$rtexit$$00000003)
    .ARM.Collect$$rtexit$$00000004           0x08000270   Section        6  rtexit2.o(.ARM.Collect$$rtexit$$00000004)
    .emb_text                                0x08000278   Section      150  port.o(.emb_text)
    .text                                    0x08000310   Section       64  startup_stm32f10x_hd.o(.text)
    .text                                    0x08000350   Section        2  use_no_semi_2.o(.text)
    .text                                    0x08000352   Section      238  lludivv7m.o(.text)
    .text                                    0x08000440   Section        0  vsnprintf.o(.text)
    .text                                    0x08000474   Section        0  __2printf.o(.text)
    .text                                    0x0800048c   Section        0  _printf_str.o(.text)
    .text                                    0x080004e0   Section        0  _printf_dec.o(.text)
    .text                                    0x08000558   Section        0  __printf_flags_ss_wp.o(.text)
    .text                                    0x080006e0   Section        0  strstr.o(.text)
    .text                                    0x08000704   Section        0  strcat.o(.text)
    .text                                    0x0800071c   Section      138  rt_memcpy_v6.o(.text)
    .text                                    0x080007a6   Section      100  rt_memcpy_w.o(.text)
    .text                                    0x0800080a   Section       16  aeabi_memset.o(.text)
    .text                                    0x0800081a   Section       78  rt_memclr_w.o(.text)
    .text                                    0x08000868   Section        0  heapauxi.o(.text)
    .text                                    0x0800086e   Section        2  use_no_semi.o(.text)
    .text                                    0x08000870   Section        0  _printf_pad.o(.text)
    .text                                    0x080008be   Section        0  _printf_truncate.o(.text)
    .text                                    0x080008e2   Section        0  _printf_intcommon.o(.text)
    .text                                    0x08000994   Section        0  _printf_charcount.o(.text)
    .text                                    0x080009bc   Section        0  _printf_char_common.o(.text)
    _printf_input_char                       0x080009bd   Thumb Code    10  _printf_char_common.o(.text)
    .text                                    0x080009ec   Section        0  _sputc.o(.text)
    .text                                    0x080009f6   Section        0  _snputc.o(.text)
    .text                                    0x08000a06   Section        0  _printf_char.o(.text)
    .text                                    0x08000a34   Section        0  _printf_char_file.o(.text)
    .text                                    0x08000a58   Section        0  _printf_wctomb.o(.text)
    .text                                    0x08000b14   Section        0  _printf_longlong_dec.o(.text)
    .text                                    0x08000b90   Section        0  _printf_oct_int_ll.o(.text)
    _printf_longlong_oct_internal            0x08000b91   Thumb Code     0  _printf_oct_int_ll.o(.text)
    .text                                    0x08000c00   Section        0  _printf_hex_int_ll_ptr.o(.text)
    _printf_hex_common                       0x08000c01   Thumb Code     0  _printf_hex_int_ll_ptr.o(.text)
    .text                                    0x08000c94   Section       68  rt_memclr.o(.text)
    .text                                    0x08000cd8   Section      138  lludiv10.o(.text)
    .text                                    0x08000d62   Section        0  _printf_fp_dec.o(.text)
    _fp_digits                               0x08000d65   Thumb Code   432  _printf_fp_dec.o(.text)
    .text                                    0x08001180   Section        0  _printf_fp_hex.o(.text)
    .text                                    0x0800147c   Section        0  _printf_wchar.o(.text)
    .text                                    0x080014a8   Section        0  ferror.o(.text)
    .text                                    0x080014b0   Section        0  _wcrtomb.o(.text)
    .text                                    0x080014f0   Section       74  sys_stackheap_outer.o(.text)
    .text                                    0x0800153c   Section       16  rt_ctype_table.o(.text)
    .text                                    0x0800154c   Section        8  rt_locale_intlibspace.o(.text)
    .text                                    0x08001554   Section        0  _printf_fp_infnan.o(.text)
    .text                                    0x080015d4   Section        0  bigflt0.o(.text)
    .text                                    0x080016b8   Section        0  exit.o(.text)
    .text                                    0x080016cc   Section        8  libspace.o(.text)
    .text                                    0x080016d4   Section      128  strcmpv7m.o(.text)
    CL$$btod_d2e                             0x08001754   Section       62  btod.o(CL$$btod_d2e)
    CL$$btod_d2e_denorm_low                  0x08001792   Section       70  btod.o(CL$$btod_d2e_denorm_low)
    CL$$btod_d2e_norm_op1                    0x080017d8   Section       96  btod.o(CL$$btod_d2e_norm_op1)
    CL$$btod_div_common                      0x08001838   Section      824  btod.o(CL$$btod_div_common)
    CL$$btod_e2e                             0x08001b70   Section      220  btod.o(CL$$btod_e2e)
    CL$$btod_ediv                            0x08001c4c   Section       42  btod.o(CL$$btod_ediv)
    CL$$btod_emul                            0x08001c76   Section       42  btod.o(CL$$btod_emul)
    CL$$btod_mult_common                     0x08001ca0   Section      580  btod.o(CL$$btod_mult_common)
    i.ADC_Cmd                                0x08001ee4   Section        0  stm32f10x_adc.o(i.ADC_Cmd)
    i.ADC_DeInit                             0x08001efc   Section        0  stm32f10x_adc.o(i.ADC_DeInit)
    i.ADC_GetCalibrationStatus               0x08001f60   Section        0  stm32f10x_adc.o(i.ADC_GetCalibrationStatus)
    i.ADC_GetConversionValue                 0x08001f6e   Section        0  stm32f10x_adc.o(i.ADC_GetConversionValue)
    i.ADC_GetFlagStatus                      0x08001f74   Section        0  stm32f10x_adc.o(i.ADC_GetFlagStatus)
    i.ADC_GetResetCalibrationStatus          0x08001f82   Section        0  stm32f10x_adc.o(i.ADC_GetResetCalibrationStatus)
    i.ADC_Init                               0x08001f90   Section        0  stm32f10x_adc.o(i.ADC_Init)
    i.ADC_RegularChannelConfig               0x08001fd8   Section        0  stm32f10x_adc.o(i.ADC_RegularChannelConfig)
    i.ADC_ResetCalibration                   0x0800204c   Section        0  stm32f10x_adc.o(i.ADC_ResetCalibration)
    i.ADC_SoftwareStartConvCmd               0x08002056   Section        0  stm32f10x_adc.o(i.ADC_SoftwareStartConvCmd)
    i.ADC_StartCalibration                   0x0800206e   Section        0  stm32f10x_adc.o(i.ADC_StartCalibration)
    i.BusFault_Handler                       0x08002078   Section        0  stm32f10x_it.o(i.BusFault_Handler)
    i.DebugMon_Handler                       0x0800207a   Section        0  stm32f10x_it.o(i.DebugMon_Handler)
    i.GPIO_Init                              0x0800207c   Section        0  stm32f10x_gpio.o(i.GPIO_Init)
    i.GPIO_ReadInputDataBit                  0x08002122   Section        0  stm32f10x_gpio.o(i.GPIO_ReadInputDataBit)
    i.GPIO_ResetBits                         0x08002130   Section        0  stm32f10x_gpio.o(i.GPIO_ResetBits)
    i.GPIO_SetBits                           0x08002134   Section        0  stm32f10x_gpio.o(i.GPIO_SetBits)
    i.GPIO_WriteBit                          0x08002138   Section        0  stm32f10x_gpio.o(i.GPIO_WriteBit)
    i.HardFault_Handler                      0x08002144   Section        0  stm32f10x_it.o(i.HardFault_Handler)
    i.I2C_CheckEvent                         0x08002146   Section        0  stm32f10x_i2c.o(i.I2C_CheckEvent)
    i.I2C_Cmd                                0x0800215e   Section        0  stm32f10x_i2c.o(i.I2C_Cmd)
    i.I2C_DeInit                             0x08002178   Section        0  stm32f10x_i2c.o(i.I2C_DeInit)
    i.I2C_GenerateSTART                      0x080021b0   Section        0  stm32f10x_i2c.o(i.I2C_GenerateSTART)
    i.I2C_GenerateSTOP                       0x080021c8   Section        0  stm32f10x_i2c.o(i.I2C_GenerateSTOP)
    i.I2C_GetFlagStatus                      0x080021e0   Section        0  stm32f10x_i2c.o(i.I2C_GetFlagStatus)
    i.I2C_Init                               0x08002214   Section        0  stm32f10x_i2c.o(i.I2C_Init)
    i.I2C_Send7bitAddress                    0x080022d4   Section        0  stm32f10x_i2c.o(i.I2C_Send7bitAddress)
    i.I2C_SendData                           0x080022e6   Section        0  stm32f10x_i2c.o(i.I2C_SendData)
    i.IWDG_Enable                            0x080022ec   Section        0  stm32f10x_iwdg.o(i.IWDG_Enable)
    i.IWDG_ReloadCounter                     0x080022fc   Section        0  stm32f10x_iwdg.o(i.IWDG_ReloadCounter)
    i.IWDG_SetPrescaler                      0x0800230c   Section        0  stm32f10x_iwdg.o(i.IWDG_SetPrescaler)
    i.IWDG_SetReload                         0x08002318   Section        0  stm32f10x_iwdg.o(i.IWDG_SetReload)
    i.IWDG_WriteAccessCmd                    0x08002324   Section        0  stm32f10x_iwdg.o(i.IWDG_WriteAccessCmd)
    i.JTAG_Set                               0x08002330   Section        0  sys.o(i.JTAG_Set)
    i.MemManage_Handler                      0x08002358   Section        0  stm32f10x_it.o(i.MemManage_Handler)
    i.NMI_Handler                            0x0800235a   Section        0  stm32f10x_it.o(i.NMI_Handler)
    i.NVIC_Init                              0x0800235c   Section        0  misc.o(i.NVIC_Init)
    i.NVIC_PriorityGroupConfig               0x080023c0   Section        0  misc.o(i.NVIC_PriorityGroupConfig)
    i.RCC_ADCCLKConfig                       0x080023d4   Section        0  stm32f10x_rcc.o(i.RCC_ADCCLKConfig)
    i.RCC_APB1PeriphClockCmd                 0x080023e8   Section        0  stm32f10x_rcc.o(i.RCC_APB1PeriphClockCmd)
    i.RCC_APB1PeriphResetCmd                 0x08002404   Section        0  stm32f10x_rcc.o(i.RCC_APB1PeriphResetCmd)
    i.RCC_APB2PeriphClockCmd                 0x08002420   Section        0  stm32f10x_rcc.o(i.RCC_APB2PeriphClockCmd)
    i.RCC_APB2PeriphResetCmd                 0x0800243c   Section        0  stm32f10x_rcc.o(i.RCC_APB2PeriphResetCmd)
    i.RCC_GetClocksFreq                      0x08002458   Section        0  stm32f10x_rcc.o(i.RCC_GetClocksFreq)
    i.SetSysClock                            0x08002504   Section        0  system_stm32f10x.o(i.SetSysClock)
    SetSysClock                              0x08002505   Thumb Code     4  system_stm32f10x.o(i.SetSysClock)
    i.SetSysClockTo72                        0x08002508   Section        0  system_stm32f10x.o(i.SetSysClockTo72)
    SetSysClockTo72                          0x08002509   Thumb Code   166  system_stm32f10x.o(i.SetSysClockTo72)
    i.SysTick_CLKSourceConfig                0x080025b8   Section        0  misc.o(i.SysTick_CLKSourceConfig)
    i.SysTick_Handler                        0x080025d4   Section        0  delay.o(i.SysTick_Handler)
    i.SystemInit                             0x080025e8   Section        0  system_stm32f10x.o(i.SystemInit)
    i.TIM1_UP_IRQHandler                     0x08002638   Section        0  hcsr04.o(i.TIM1_UP_IRQHandler)
    i.TIM3_IRQHandler                        0x0800266c   Section        0  app.o(i.TIM3_IRQHandler)
    i.TIM_ARRPreloadConfig                   0x080026e4   Section        0  stm32f10x_tim.o(i.TIM_ARRPreloadConfig)
    i.TIM_ClearFlag                          0x080026fc   Section        0  stm32f10x_tim.o(i.TIM_ClearFlag)
    i.TIM_ClearITPendingBit                  0x08002702   Section        0  stm32f10x_tim.o(i.TIM_ClearITPendingBit)
    i.TIM_Cmd                                0x08002708   Section        0  stm32f10x_tim.o(i.TIM_Cmd)
    i.TIM_GetITStatus                        0x08002720   Section        0  stm32f10x_tim.o(i.TIM_GetITStatus)
    i.TIM_ITConfig                           0x08002738   Section        0  stm32f10x_tim.o(i.TIM_ITConfig)
    i.TIM_InternalClockConfig                0x0800274c   Section        0  stm32f10x_tim.o(i.TIM_InternalClockConfig)
    i.TIM_OC1Init                            0x08002758   Section        0  stm32f10x_tim.o(i.TIM_OC1Init)
    i.TIM_OC1PolarityConfig                  0x080027e0   Section        0  stm32f10x_tim.o(i.TIM_OC1PolarityConfig)
    i.TIM_OC2Init                            0x080027ec   Section        0  stm32f10x_tim.o(i.TIM_OC2Init)
    i.TIM_OC2PolarityConfig                  0x08002874   Section        0  stm32f10x_tim.o(i.TIM_OC2PolarityConfig)
    i.TIM_OC3Init                            0x08002888   Section        0  stm32f10x_tim.o(i.TIM_OC3Init)
    i.TIM_OC3PolarityConfig                  0x0800290c   Section        0  stm32f10x_tim.o(i.TIM_OC3PolarityConfig)
    i.TIM_OC4Init                            0x08002920   Section        0  stm32f10x_tim.o(i.TIM_OC4Init)
    i.TIM_OC4PolarityConfig                  0x08002988   Section        0  stm32f10x_tim.o(i.TIM_OC4PolarityConfig)
    i.TIM_SetCompare1                        0x0800299c   Section        0  stm32f10x_tim.o(i.TIM_SetCompare1)
    i.TIM_SetCompare2                        0x080029a0   Section        0  stm32f10x_tim.o(i.TIM_SetCompare2)
    i.TIM_SetCompare3                        0x080029a4   Section        0  stm32f10x_tim.o(i.TIM_SetCompare3)
    i.TIM_SetCompare4                        0x080029a8   Section        0  stm32f10x_tim.o(i.TIM_SetCompare4)
    i.TIM_TimeBaseInit                       0x080029b0   Section        0  stm32f10x_tim.o(i.TIM_TimeBaseInit)
    i.USART1_IRQHandler                      0x08002a4c   Section        0  usart.o(i.USART1_IRQHandler)
    i.USART2_IRQHandler                      0x08002ab4   Section        0  usart.o(i.USART2_IRQHandler)
    i.USART_Cmd                              0x08002b1c   Section        0  stm32f10x_usart.o(i.USART_Cmd)
    i.USART_GetFlagStatus                    0x08002b34   Section        0  stm32f10x_usart.o(i.USART_GetFlagStatus)
    i.USART_GetITStatus                      0x08002b42   Section        0  stm32f10x_usart.o(i.USART_GetITStatus)
    i.USART_ITConfig                         0x08002b82   Section        0  stm32f10x_usart.o(i.USART_ITConfig)
    i.USART_Init                             0x08002bb8   Section        0  stm32f10x_usart.o(i.USART_Init)
    i.USART_ReceiveData                      0x08002c74   Section        0  stm32f10x_usart.o(i.USART_ReceiveData)
    i.USART_SendData                         0x08002c7c   Section        0  stm32f10x_usart.o(i.USART_SendData)
    i.UsageFault_Handler                     0x08002c84   Section        0  stm32f10x_it.o(i.UsageFault_Handler)
    i.__ARM_fpclassify                       0x08002c86   Section        0  fpclassify.o(i.__ARM_fpclassify)
    i._is_digit                              0x08002cae   Section        0  __printf_wp.o(i._is_digit)
    i._sys_exit                              0x08002cbc   Section        0  usart.o(i._sys_exit)
    i.adc_get                                0x08002cc0   Section        0  adc.o(i.adc_get)
    i.adc_get_avg                            0x08002cf4   Section        0  adc.o(i.adc_get_avg)
    i.adc_init                               0x08002d24   Section        0  adc.o(i.adc_init)
    i.bat_val_get                            0x08002dac   Section        0  app.o(i.bat_val_get)
    i.beep_init                              0x08002e24   Section        0  beep.o(i.beep_init)
    i.beep_overturn                          0x08002e64   Section        0  beep.o(i.beep_overturn)
    i.ble_check_cmd                          0x08002e8c   Section        0  ble.o(i.ble_check_cmd)
    i.ble_check_data                         0x08002ee8   Section        0  ble.o(i.ble_check_data)
    i.ble_clear_data                         0x08002ef4   Section        0  ble.o(i.ble_clear_data)
    i.ble_cmd_get                            0x08002f1c   Section        0  app.o(i.ble_cmd_get)
    i.ble_get_data                           0x08003118   Section        0  ble.o(i.ble_get_data)
    i.ble_init                               0x08003154   Section        0  ble.o(i.ble_init)
    i.ble_send_cmd                           0x08003260   Section        0  ble.o(i.ble_send_cmd)
    i.car_back                               0x08003290   Section        0  motor.o(i.car_back)
    i.car_dat_loop                           0x080032a8   Section        0  app.o(i.car_dat_loop)
    i.car_fun_avoid                          0x080032d0   Section        0  app.o(i.car_fun_avoid)
    i.car_fun_debug                          0x0800334c   Section        0  app.o(i.car_fun_debug)
    i.car_fun_dis                            0x08003424   Section        0  app.o(i.car_fun_dis)
    i.car_fun_follow                         0x0800358c   Section        0  app.o(i.car_fun_follow)
    i.car_fun_loop                           0x08003608   Section        0  app.o(i.car_fun_loop)
    i.car_fun_magic_hand                     0x08003670   Section        0  app.o(i.car_fun_magic_hand)
    i.car_fun_telecontrol                    0x080036c8   Section        0  app.o(i.car_fun_telecontrol)
    i.car_fun_track                          0x08003748   Section        0  app.o(i.car_fun_track)
    i.car_go                                 0x08003774   Section        0  motor.o(i.car_go)
    i.car_init                               0x0800378c   Section        0  app.o(i.car_init)
    i.car_left                               0x08003878   Section        0  motor.o(i.car_left)
    i.car_right                              0x08003890   Section        0  motor.o(i.car_right)
    i.car_stop                               0x080038a8   Section        0  motor.o(i.car_stop)
    i.delay_init                             0x080038c0   Section        0  delay.o(i.delay_init)
    i.delay_ms                               0x080038e0   Section        0  delay.o(i.delay_ms)
    i.delay_us                               0x080038fc   Section        0  delay.o(i.delay_us)
    i.drv_init                               0x08003934   Section        0  app.o(i.drv_init)
    i.drv_reg                                0x08003a24   Section        0  app.o(i.drv_reg)
    i.drv_run                                0x08003a9c   Section        0  app.o(i.drv_run)
    i.explor_dir_get                         0x08003b0c   Section        0  app.o(i.explor_dir_get)
    i.fputc                                  0x08003b78   Section        0  usart.o(i.fputc)
    i.freertos_demo                          0x08003b90   Section        0  os.o(i.freertos_demo)
    i.hcsr04_init                            0x08003bc4   Section        0  hcsr04.o(i.hcsr04_init)
    i.i2c2_init                              0x08003c10   Section        0  iic.o(i.i2c2_init)
    i.i2c_write_byte                         0x08003c8c   Section        0  iic.o(i.i2c_write_byte)
    i.i2c_write_cmd                          0x08003d18   Section        0  iic.o(i.i2c_write_cmd)
    i.i2c_write_data                         0x08003d20   Section        0  iic.o(i.i2c_write_data)
    i.iwdg_feed                              0x08003d28   Section        0  iwdg.o(i.iwdg_feed)
    i.iwdg_init                              0x08003d2c   Section        0  iwdg.o(i.iwdg_init)
    i.main                                   0x08003d52   Section        0  main.o(i.main)
    i.motor_gpio_cfg                         0x08003d68   Section        0  motor.o(i.motor_gpio_cfg)
    i.motor_gpio_mode                        0x08003d94   Section        0  motor.o(i.motor_gpio_mode)
    i.motor_init                             0x08003db4   Section        0  motor.o(i.motor_init)
    i.motor_l_pwm_out                        0x08003dec   Section        0  motor.o(i.motor_l_pwm_out)
    i.motor_left                             0x08003e0c   Section        0  motor.o(i.motor_left)
    i.motor_pwm_init                         0x08003ec8   Section        0  motor.o(i.motor_pwm_init)
    i.motor_r_pwm_out                        0x08003f64   Section        0  motor.o(i.motor_r_pwm_out)
    i.motor_right                            0x08003f84   Section        0  motor.o(i.motor_right)
    i.my_free                                0x08004048   Section        0  malloc.o(i.my_free)
    i.my_malloc                              0x08004060   Section        0  malloc.o(i.my_malloc)
    i.my_mem_free                            0x08004084   Section        0  malloc.o(i.my_mem_free)
    i.my_mem_init                            0x080040dc   Section        0  malloc.o(i.my_mem_init)
    i.my_mem_malloc                          0x08004118   Section        0  malloc.o(i.my_mem_malloc)
    i.my_mem_perused                         0x080041b4   Section        0  malloc.o(i.my_mem_perused)
    i.my_memcpy                              0x080041ec   Section        0  malloc.o(i.my_memcpy)
    i.my_memset                              0x080041fe   Section        0  malloc.o(i.my_memset)
    i.my_realloc                             0x0800420c   Section        0  malloc.o(i.my_realloc)
    i.nvic_cfg                               0x08004250   Section        0  sys.o(i.nvic_cfg)
    i.oled_clear_line                        0x08004258   Section        0  oled.o(i.oled_clear_line)
    i.oled_fill                              0x080042ae   Section        0  oled.o(i.oled_fill)
    i.oled_init                              0x080042e4   Section        0  oled.o(i.oled_init)
    i.oled_pow                               0x080043a2   Section        0  oled.o(i.oled_pow)
    i.oled_set_pos                           0x080043b2   Section        0  oled.o(i.oled_set_pos)
    i.oled_show_char                         0x080043d8   Section        0  oled.o(i.oled_show_char)
    i.oled_show_num                          0x0800445c   Section        0  oled.o(i.oled_show_num)
    i.oled_show_str                          0x080044b4   Section        0  oled.o(i.oled_show_str)
    i.param_load                             0x08004580   Section        0  app.o(i.param_load)
    i.prvAddCurrentTaskToDelayedList         0x080045b4   Section        0  tasks.o(i.prvAddCurrentTaskToDelayedList)
    prvAddCurrentTaskToDelayedList           0x080045b5   Thumb Code   138  tasks.o(i.prvAddCurrentTaskToDelayedList)
    i.prvAddNewTaskToReadyList               0x08004648   Section        0  tasks.o(i.prvAddNewTaskToReadyList)
    prvAddNewTaskToReadyList                 0x08004649   Thumb Code   158  tasks.o(i.prvAddNewTaskToReadyList)
    i.prvCheckForValidListAndQueue           0x080046f4   Section        0  timers.o(i.prvCheckForValidListAndQueue)
    prvCheckForValidListAndQueue             0x080046f5   Thumb Code    62  timers.o(i.prvCheckForValidListAndQueue)
    i.prvCheckTasksWaitingTermination        0x08004744   Section        0  tasks.o(i.prvCheckTasksWaitingTermination)
    prvCheckTasksWaitingTermination          0x08004745   Thumb Code    52  tasks.o(i.prvCheckTasksWaitingTermination)
    i.prvCopyDataFromQueue                   0x08004780   Section        0  queue.o(i.prvCopyDataFromQueue)
    prvCopyDataFromQueue                     0x08004781   Thumb Code    40  queue.o(i.prvCopyDataFromQueue)
    i.prvCopyDataToQueue                     0x080047a8   Section        0  queue.o(i.prvCopyDataToQueue)
    prvCopyDataToQueue                       0x080047a9   Thumb Code   110  queue.o(i.prvCopyDataToQueue)
    i.prvDeleteTCB                           0x08004816   Section        0  tasks.o(i.prvDeleteTCB)
    prvDeleteTCB                             0x08004817   Thumb Code    20  tasks.o(i.prvDeleteTCB)
    i.prvGetDisinheritPriorityAfterTimeout   0x0800482a   Section        0  queue.o(i.prvGetDisinheritPriorityAfterTimeout)
    prvGetDisinheritPriorityAfterTimeout     0x0800482b   Thumb Code    20  queue.o(i.prvGetDisinheritPriorityAfterTimeout)
    i.prvGetNextExpireTime                   0x08004840   Section        0  timers.o(i.prvGetNextExpireTime)
    prvGetNextExpireTime                     0x08004841   Thumb Code    30  timers.o(i.prvGetNextExpireTime)
    i.prvHeapInit                            0x08004864   Section        0  heap_4.o(i.prvHeapInit)
    prvHeapInit                              0x08004865   Thumb Code    68  heap_4.o(i.prvHeapInit)
    i.prvIdleTask                            0x080048b0   Section        0  tasks.o(i.prvIdleTask)
    prvIdleTask                              0x080048b1   Thumb Code    30  tasks.o(i.prvIdleTask)
    i.prvInitialiseMutex                     0x080048d8   Section        0  queue.o(i.prvInitialiseMutex)
    prvInitialiseMutex                       0x080048d9   Thumb Code    24  queue.o(i.prvInitialiseMutex)
    i.prvInitialiseNewQueue                  0x080048f0   Section        0  queue.o(i.prvInitialiseNewQueue)
    prvInitialiseNewQueue                    0x080048f1   Thumb Code    38  queue.o(i.prvInitialiseNewQueue)
    i.prvInitialiseNewTask                   0x08004918   Section        0  tasks.o(i.prvInitialiseNewTask)
    prvInitialiseNewTask                     0x08004919   Thumb Code   180  tasks.o(i.prvInitialiseNewTask)
    i.prvInitialiseTaskLists                 0x080049f0   Section        0  tasks.o(i.prvInitialiseTaskLists)
    prvInitialiseTaskLists                   0x080049f1   Thumb Code    74  tasks.o(i.prvInitialiseTaskLists)
    i.prvInsertBlockIntoFreeList             0x08004a48   Section        0  heap_4.o(i.prvInsertBlockIntoFreeList)
    prvInsertBlockIntoFreeList               0x08004a49   Thumb Code    78  heap_4.o(i.prvInsertBlockIntoFreeList)
    i.prvInsertTimerInActiveList             0x08004a9c   Section        0  timers.o(i.prvInsertTimerInActiveList)
    prvInsertTimerInActiveList               0x08004a9d   Thumb Code    60  timers.o(i.prvInsertTimerInActiveList)
    i.prvIsQueueEmpty                        0x08004adc   Section        0  queue.o(i.prvIsQueueEmpty)
    prvIsQueueEmpty                          0x08004add   Thumb Code    26  queue.o(i.prvIsQueueEmpty)
    i.prvIsQueueFull                         0x08004af6   Section        0  queue.o(i.prvIsQueueFull)
    prvIsQueueFull                           0x08004af7   Thumb Code    30  queue.o(i.prvIsQueueFull)
    i.prvNotifyQueueSetContainer             0x08004b14   Section        0  queue.o(i.prvNotifyQueueSetContainer)
    prvNotifyQueueSetContainer               0x08004b15   Thumb Code   118  queue.o(i.prvNotifyQueueSetContainer)
    i.prvProcessExpiredTimer                 0x08004bb0   Section        0  timers.o(i.prvProcessExpiredTimer)
    prvProcessExpiredTimer                   0x08004bb1   Thumb Code    58  timers.o(i.prvProcessExpiredTimer)
    i.prvProcessReceivedCommands             0x08004bf0   Section        0  timers.o(i.prvProcessReceivedCommands)
    prvProcessReceivedCommands               0x08004bf1   Thumb Code   238  timers.o(i.prvProcessReceivedCommands)
    i.prvProcessTimerOrBlockTask             0x08004d0c   Section        0  timers.o(i.prvProcessTimerOrBlockTask)
    prvProcessTimerOrBlockTask               0x08004d0d   Thumb Code   100  timers.o(i.prvProcessTimerOrBlockTask)
    i.prvReloadTimer                         0x08004d78   Section        0  timers.o(i.prvReloadTimer)
    prvReloadTimer                           0x08004d79   Thumb Code    40  timers.o(i.prvReloadTimer)
    i.prvResetNextTaskUnblockTime            0x08004da0   Section        0  tasks.o(i.prvResetNextTaskUnblockTime)
    prvResetNextTaskUnblockTime              0x08004da1   Thumb Code    28  tasks.o(i.prvResetNextTaskUnblockTime)
    i.prvSampleTimeNow                       0x08004dc0   Section        0  timers.o(i.prvSampleTimeNow)
    prvSampleTimeNow                         0x08004dc1   Thumb Code    38  timers.o(i.prvSampleTimeNow)
    i.prvSwitchTimerLists                    0x08004dec   Section        0  timers.o(i.prvSwitchTimerLists)
    prvSwitchTimerLists                      0x08004ded   Thumb Code    38  timers.o(i.prvSwitchTimerLists)
    i.prvTaskExitError                       0x08004e18   Section        0  port.o(i.prvTaskExitError)
    prvTaskExitError                         0x08004e19   Thumb Code    34  port.o(i.prvTaskExitError)
    i.prvTimerTask                           0x08004e7c   Section        0  timers.o(i.prvTimerTask)
    prvTimerTask                             0x08004e7d   Thumb Code    20  timers.o(i.prvTimerTask)
    i.prvUnlockQueue                         0x08004e90   Section        0  queue.o(i.prvUnlockQueue)
    prvUnlockQueue                           0x08004e91   Thumb Code   124  queue.o(i.prvUnlockQueue)
    i.pvPortMalloc                           0x08004f0c   Section        0  heap_4.o(i.pvPortMalloc)
    i.pvTaskIncrementMutexHeldCount          0x08005030   Section        0  tasks.o(i.pvTaskIncrementMutexHeldCount)
    i.pxPortInitialiseStack                  0x08005048   Section        0  port.o(i.pxPortInitialiseStack)
    i.sg90_init                              0x08005064   Section        0  sg90.o(i.sg90_init)
    i.sg90_pwm_init                          0x0800507c   Section        0  sg90.o(i.sg90_pwm_init)
    i.sg90_turn                              0x080050f8   Section        0  sg90.o(i.sg90_turn)
    i.sonar_mm                               0x08005104   Section        0  hcsr04.o(i.sonar_mm)
    i.sonar_val_get                          0x08005190   Section        0  app.o(i.sonar_val_get)
    i.start_task                             0x080051d0   Section        0  os.o(i.start_task)
    i.task1                                  0x08005264   Section        0  os.o(i.task1)
    i.task2                                  0x08005290   Section        0  os.o(i.task2)
    i.tcrt_init                              0x080052bc   Section        0  tcrt.o(i.tcrt_init)
    i.tcrt_sta                               0x08005314   Section        0  tcrt.o(i.tcrt_sta)
    i.timer1_init                            0x0800535c   Section        0  timer.o(i.timer1_init)
    i.timer3_init                            0x080053cc   Section        0  timer.o(i.timer3_init)
    i.usart1_init                            0x0800543c   Section        0  usart.o(i.usart1_init)
    i.usart2_init                            0x080054e0   Section        0  usart.o(i.usart2_init)
    i.usart_printf                           0x08005584   Section        0  usart.o(i.usart_printf)
    i.uxListRemove                           0x080055c4   Section        0  list.o(i.uxListRemove)
    i.vListInitialise                        0x080055ea   Section        0  list.o(i.vListInitialise)
    i.vListInitialiseItem                    0x08005600   Section        0  list.o(i.vListInitialiseItem)
    i.vListInsert                            0x08005606   Section        0  list.o(i.vListInsert)
    i.vListInsertEnd                         0x08005636   Section        0  list.o(i.vListInsertEnd)
    i.vPortEnterCritical                     0x08005650   Section        0  port.o(i.vPortEnterCritical)
    i.vPortExitCritical                      0x080056c8   Section        0  port.o(i.vPortExitCritical)
    i.vPortFree                              0x08005730   Section        0  heap_4.o(i.vPortFree)
    i.vPortSetupTimerInterrupt               0x080057d0   Section        0  port.o(i.vPortSetupTimerInterrupt)
    i.vQueueAddToRegistry                    0x080057f4   Section        0  queue.o(i.vQueueAddToRegistry)
    i.vQueueWaitForMessageRestricted         0x08005864   Section        0  queue.o(i.vQueueWaitForMessageRestricted)
    i.vTaskDelay                             0x080058ac   Section        0  tasks.o(i.vTaskDelay)
    i.vTaskDelete                            0x0800591c   Section        0  tasks.o(i.vTaskDelete)
    i.vTaskInternalSetTimeOutState           0x080059f0   Section        0  tasks.o(i.vTaskInternalSetTimeOutState)
    i.vTaskMissedYield                       0x08005a00   Section        0  tasks.o(i.vTaskMissedYield)
    i.vTaskPlaceOnEventList                  0x08005a0c   Section        0  tasks.o(i.vTaskPlaceOnEventList)
    i.vTaskPlaceOnEventListRestricted        0x08005a64   Section        0  tasks.o(i.vTaskPlaceOnEventListRestricted)
    i.vTaskPriorityDisinheritAfterTimeout    0x08005adc   Section        0  tasks.o(i.vTaskPriorityDisinheritAfterTimeout)
    i.vTaskStartScheduler                    0x08005bc4   Section        0  tasks.o(i.vTaskStartScheduler)
    i.vTaskSuspendAll                        0x08005c54   Section        0  tasks.o(i.vTaskSuspendAll)
    i.vTaskSwitchContext                     0x08005c64   Section        0  tasks.o(i.vTaskSwitchContext)
    i.xPortStartScheduler                    0x08005ce4   Section        0  port.o(i.xPortStartScheduler)
    i.xPortSysTickHandler                    0x08005dd4   Section        0  port.o(i.xPortSysTickHandler)
    i.xQueueCreateMutex                      0x08005e00   Section        0  queue.o(i.xQueueCreateMutex)
    i.xQueueGenericCreate                    0x08005e18   Section        0  queue.o(i.xQueueGenericCreate)
    i.xQueueGenericReset                     0x08005e8c   Section        0  queue.o(i.xQueueGenericReset)
    i.xQueueGenericSend                      0x08005f64   Section        0  queue.o(i.xQueueGenericSend)
    i.xQueueReceive                          0x08006100   Section        0  queue.o(i.xQueueReceive)
    i.xQueueSemaphoreTake                    0x08006250   Section        0  queue.o(i.xQueueSemaphoreTake)
    i.xTaskCheckForTimeOut                   0x080063e0   Section        0  tasks.o(i.xTaskCheckForTimeOut)
    i.xTaskCreate                            0x08006490   Section        0  tasks.o(i.xTaskCreate)
    i.xTaskGetSchedulerState                 0x080064f0   Section        0  tasks.o(i.xTaskGetSchedulerState)
    i.xTaskGetTickCount                      0x0800650c   Section        0  tasks.o(i.xTaskGetTickCount)
    i.xTaskIncrementTick                     0x08006518   Section        0  tasks.o(i.xTaskIncrementTick)
    i.xTaskPriorityDisinherit                0x08006668   Section        0  tasks.o(i.xTaskPriorityDisinherit)
    i.xTaskPriorityInherit                   0x0800673c   Section        0  tasks.o(i.xTaskPriorityInherit)
    i.xTaskRemoveFromEventList               0x080067f0   Section        0  tasks.o(i.xTaskRemoveFromEventList)
    i.xTaskResumeAll                         0x080068f0   Section        0  tasks.o(i.xTaskResumeAll)
    i.xTimerCreateTimerTask                  0x08006a3c   Section        0  timers.o(i.xTimerCreateTimerTask)
    locale$$code                             0x08006ab0   Section       44  lc_numeric_c.o(locale$$code)
    locale$$code                             0x08006adc   Section       44  lc_ctype_c.o(locale$$code)
    x$fpl$d2f                                0x08006b08   Section       98  d2f.o(x$fpl$d2f)
    x$fpl$dcheck1                            0x08006b6c   Section       16  dcheck1.o(x$fpl$dcheck1)
    x$fpl$dfltu                              0x08006b7c   Section       38  dflt_clz.o(x$fpl$dfltu)
    x$fpl$dmul                               0x08006ba4   Section      340  dmul.o(x$fpl$dmul)
    x$fpl$dnaninf                            0x08006cf8   Section      156  dnaninf.o(x$fpl$dnaninf)
    x$fpl$dretinf                            0x08006d94   Section       12  dretinf.o(x$fpl$dretinf)
    x$fpl$fadd                               0x08006da0   Section      196  faddsub_clz.o(x$fpl$fadd)
    _fadd1                                   0x08006daf   Thumb Code     0  faddsub_clz.o(x$fpl$fadd)
    x$fpl$ffixu                              0x08006e64   Section       62  ffixu.o(x$fpl$ffixu)
    x$fpl$ffltu                              0x08006ea4   Section       38  fflt_clz.o(x$fpl$ffltu)
    x$fpl$fmul                               0x08006ecc   Section      258  fmul.o(x$fpl$fmul)
    x$fpl$fnaninf                            0x08006fce   Section      140  fnaninf.o(x$fpl$fnaninf)
    x$fpl$fretinf                            0x0800705a   Section       10  fretinf.o(x$fpl$fretinf)
    x$fpl$frsb                               0x08007064   Section       20  faddsub_clz.o(x$fpl$frsb)
    x$fpl$fsub                               0x08007078   Section      234  faddsub_clz.o(x$fpl$fsub)
    _fsub1                                   0x08007087   Thumb Code     0  faddsub_clz.o(x$fpl$fsub)
    x$fpl$printf1                            0x08007162   Section        4  printf1.o(x$fpl$printf1)
    x$fpl$printf2                            0x08007166   Section        4  printf2.o(x$fpl$printf2)
    x$fpl$retnan                             0x0800716a   Section      100  retnan.o(x$fpl$retnan)
    x$fpl$scalbn                             0x080071ce   Section       92  scalbn.o(x$fpl$scalbn)
    x$fpl$trapveneer                         0x0800722a   Section       48  trapv.o(x$fpl$trapveneer)
    x$fpl$usenofp                            0x0800725a   Section        0  usenofp.o(x$fpl$usenofp)
    .constdata                               0x0800725c   Section       24  malloc.o(.constdata)
    .constdata                               0x08007274   Section       34  ble.o(.constdata)
    .constdata                               0x08007296   Section     2072  oled.o(.constdata)
    .constdata                               0x08007aae   Section       17  __printf_flags_ss_wp.o(.constdata)
    maptable                                 0x08007aae   Data          17  __printf_flags_ss_wp.o(.constdata)
    .constdata                               0x08007ac0   Section        8  _printf_wctomb.o(.constdata)
    initial_mbstate                          0x08007ac0   Data           8  _printf_wctomb.o(.constdata)
    .constdata                               0x08007ac8   Section       40  _printf_hex_int_ll_ptr.o(.constdata)
    uc_hextab                                0x08007ac8   Data          20  _printf_hex_int_ll_ptr.o(.constdata)
    lc_hextab                                0x08007adc   Data          20  _printf_hex_int_ll_ptr.o(.constdata)
    .constdata                               0x08007af0   Section       38  _printf_fp_hex.o(.constdata)
    lc_hextab                                0x08007af0   Data          19  _printf_fp_hex.o(.constdata)
    uc_hextab                                0x08007b03   Data          19  _printf_fp_hex.o(.constdata)
    .constdata                               0x08007b18   Section      148  bigflt0.o(.constdata)
    tenpwrs_x                                0x08007b18   Data          60  bigflt0.o(.constdata)
    tenpwrs_i                                0x08007b54   Data          64  bigflt0.o(.constdata)
    locale$$data                             0x08007bcc   Section       28  lc_numeric_c.o(locale$$data)
    __lcnum_c_name                           0x08007bd0   Data           2  lc_numeric_c.o(locale$$data)
    __lcnum_c_start                          0x08007bd8   Data           0  lc_numeric_c.o(locale$$data)
    __lcnum_c_point                          0x08007be4   Data           0  lc_numeric_c.o(locale$$data)
    __lcnum_c_thousands                      0x08007be6   Data           0  lc_numeric_c.o(locale$$data)
    __lcnum_c_grouping                       0x08007be7   Data           0  lc_numeric_c.o(locale$$data)
    locale$$data                             0x08007be8   Section      272  lc_ctype_c.o(locale$$data)
    __lcnum_c_end                            0x08007be8   Data           0  lc_numeric_c.o(locale$$data)
    __lcctype_c_name                         0x08007bec   Data           2  lc_ctype_c.o(locale$$data)
    __lcctype_c_start                        0x08007bf4   Data           0  lc_ctype_c.o(locale$$data)
    __lcctype_c_end                          0x08007cf8   Data           0  lc_ctype_c.o(locale$$data)
    .data                                    0x20000000   Section       20  stm32f10x_rcc.o(.data)
    ADCPrescTable                            0x20000000   Data           4  stm32f10x_rcc.o(.data)
    APBAHBPrescTable                         0x20000004   Data          16  stm32f10x_rcc.o(.data)
    .data                                    0x20000014   Section       20  system_stm32f10x.o(.data)
    .data                                    0x20000028   Section       16  os.o(.data)
    .data                                    0x20000038   Section       21  app.o(.data)
    pre_mode                                 0x20000038   Data           1  app.o(.data)
    s_drv_cnt                                0x20000039   Data           1  app.o(.data)
    .data                                    0x2000004e   Section        2  delay.o(.data)
    g_fac_us                                 0x2000004e   Data           2  delay.o(.data)
    .data                                    0x20000050   Section        4  usart.o(.data)
    .data                                    0x20000054   Section        4  usart.o(.data)
    .data                                    0x20000058   Section       28  malloc.o(.data)
    .data                                    0x20000074   Section       64  tasks.o(.data)
    uxDeletedTasksWaitingCleanUp             0x20000078   Data           4  tasks.o(.data)
    uxCurrentNumberOfTasks                   0x2000007c   Data           4  tasks.o(.data)
    xTickCount                               0x20000080   Data           4  tasks.o(.data)
    uxTopReadyPriority                       0x20000084   Data           4  tasks.o(.data)
    xSchedulerRunning                        0x20000088   Data           4  tasks.o(.data)
    xPendedTicks                             0x2000008c   Data           4  tasks.o(.data)
    xYieldPending                            0x20000090   Data           4  tasks.o(.data)
    xNumOfOverflows                          0x20000094   Data           4  tasks.o(.data)
    uxTaskNumber                             0x20000098   Data           4  tasks.o(.data)
    xNextTaskUnblockTime                     0x2000009c   Data           4  tasks.o(.data)
    xIdleTaskHandle                          0x200000a0   Data           4  tasks.o(.data)
    uxSchedulerSuspended                     0x200000a8   Data           4  tasks.o(.data)
    pxDelayedTaskList                        0x200000ac   Data           4  tasks.o(.data)
    pxOverflowDelayedTaskList                0x200000b0   Data           4  tasks.o(.data)
    .data                                    0x200000b4   Section       20  timers.o(.data)
    xTimerQueue                              0x200000b4   Data           4  timers.o(.data)
    xTimerTaskHandle                         0x200000b8   Data           4  timers.o(.data)
    xLastTime                                0x200000bc   Data           4  timers.o(.data)
    pxCurrentTimerList                       0x200000c0   Data           4  timers.o(.data)
    pxOverflowTimerList                      0x200000c4   Data           4  timers.o(.data)
    .data                                    0x200000c8   Section       32  heap_4.o(.data)
    pxEnd                                    0x200000c8   Data           4  heap_4.o(.data)
    xFreeBytesRemaining                      0x200000cc   Data           4  heap_4.o(.data)
    xMinimumEverFreeBytesRemaining           0x200000d0   Data           4  heap_4.o(.data)
    xNumberOfSuccessfulAllocations           0x200000d4   Data           4  heap_4.o(.data)
    xNumberOfSuccessfulFrees                 0x200000d8   Data           4  heap_4.o(.data)
    xBlockAllocatedBit                       0x200000dc   Data           4  heap_4.o(.data)
    xStart                                   0x200000e0   Data           8  heap_4.o(.data)
    .data                                    0x200000e8   Section       12  port.o(.data)
    ucMaxSysCallPriority                     0x200000e8   Data           1  port.o(.data)
    uxCriticalNesting                        0x200000ec   Data           4  port.o(.data)
    ulMaxPRIGROUPValue                       0x200000f0   Data           4  port.o(.data)
    .data                                    0x200000f4   Section        2  ble.o(.data)
    .data                                    0x200000f8   Section       16  hcsr04.o(.data)
    .data                                    0x20000108   Section        2  sg90.o(.data)
    .data                                    0x2000010a   Section        1  beep.o(.data)
    .bss                                     0x2000010c   Section       40  app.o(.bss)
    .bss                                     0x20000134   Section      512  usart.o(.bss)
    .bss                                     0x20000340   Section     5120  malloc.o(.bss)
    .bss                                     0x20001740   Section      320  malloc.o(.bss)
    .bss                                     0x20001880   Section       64  queue.o(.bss)
    .bss                                     0x200018c0   Section      740  tasks.o(.bss)
    pxReadyTasksLists                        0x200018c0   Data         640  tasks.o(.bss)
    xDelayedTaskList1                        0x20001b40   Data          20  tasks.o(.bss)
    xDelayedTaskList2                        0x20001b54   Data          20  tasks.o(.bss)
    xPendingReadyList                        0x20001b68   Data          20  tasks.o(.bss)
    xTasksWaitingTermination                 0x20001b7c   Data          20  tasks.o(.bss)
    xSuspendedTaskList                       0x20001b90   Data          20  tasks.o(.bss)
    .bss                                     0x20001ba4   Section       40  timers.o(.bss)
    xActiveTimerList1                        0x20001ba4   Data          20  timers.o(.bss)
    xActiveTimerList2                        0x20001bb8   Data          20  timers.o(.bss)
    .bss                                     0x20001bcc   Section    25600  heap_4.o(.bss)
    ucHeap                                   0x20001bcc   Data       25600  heap_4.o(.bss)
    .bss                                     0x20007fcc   Section       20  ble.o(.bss)
    .bss                                     0x20007fe0   Section       96  libspace.o(.bss)
    HEAP                                     0x20008040   Section      512  startup_stm32f10x_hd.o(HEAP)
    Heap_Mem                                 0x20008040   Data         512  startup_stm32f10x_hd.o(HEAP)
    STACK                                    0x20008240   Section     1024  startup_stm32f10x_hd.o(STACK)
    Stack_Mem                                0x20008240   Data        1024  startup_stm32f10x_hd.o(STACK)
    __initial_sp                             0x20008640   Data           0  startup_stm32f10x_hd.o(STACK)
    .ARM.__AT_0x68000000                     0x68000000   Section       32  malloc.o(.ARM.__AT_0x68000000)
    .ARM.__AT_0x68000020                     0x68000020   Section        2  malloc.o(.ARM.__AT_0x68000020)

    Global Symbols

    Symbol Name                              Value     Ov Type        Size  Object(Section)

    BuildAttributes$$THM_ISAv4$P$D$K$B$S$PE$A:L22UL41UL21$X:L11$S22US41US21$IEEE1$IW$USESV6$~STKCKD$USESV7$~SHL$OTIME$ROPI$IEEEJ$EBA8$UX$STANDARDLIB$REQ8$PRES8$EABIv2 0x00000000   Number         0  anon$$obj.o ABSOLUTE
    __ARM_use_no_argv                        0x00000000   Number         0  main.o ABSOLUTE
    _printf_flags                            0x00000000   Number         0  printf_stubs.o ABSOLUTE
    _printf_return_value                     0x00000000   Number         0  printf_stubs.o ABSOLUTE
    _printf_sizespec                         0x00000000   Number         0  printf_stubs.o ABSOLUTE
    _printf_widthprec                        0x00000000   Number         0  printf_stubs.o ABSOLUTE
    __ARM_exceptions_init                     - Undefined Weak Reference
    __alloca_initialize                       - Undefined Weak Reference
    __arm_preinit_                            - Undefined Weak Reference
    __cpp_initialize__aeabi_                  - Undefined Weak Reference
    __cxa_finalize                            - Undefined Weak Reference
    __sigvec_lookup                           - Undefined Weak Reference
    _atexit_init                              - Undefined Weak Reference
    _call_atexit_fns                          - Undefined Weak Reference
    _clock_init                               - Undefined Weak Reference
    _fp_trap_init                             - Undefined Weak Reference
    _fp_trap_shutdown                         - Undefined Weak Reference
    _get_lc_collate                           - Undefined Weak Reference
    _get_lc_monetary                          - Undefined Weak Reference
    _get_lc_time                              - Undefined Weak Reference
    _getenv_init                              - Undefined Weak Reference
    _handle_redirection                       - Undefined Weak Reference
    _init_alloc                               - Undefined Weak Reference
    _init_user_alloc                          - Undefined Weak Reference
    _initio                                   - Undefined Weak Reference
    _mutex_acquire                            - Undefined Weak Reference
    _mutex_release                            - Undefined Weak Reference
    _printf_mbtowc                            - Undefined Weak Reference
    _printf_wc                                - Undefined Weak Reference
    _rand_init                                - Undefined Weak Reference
    _signal_finish                            - Undefined Weak Reference
    _signal_init                              - Undefined Weak Reference
    _terminate_alloc                          - Undefined Weak Reference
    _terminate_user_alloc                     - Undefined Weak Reference
    _terminateio                              - Undefined Weak Reference
    __Vectors_Size                           0x00000130   Number         0  startup_stm32f10x_hd.o ABSOLUTE
    __Vectors                                0x08000000   Data           4  startup_stm32f10x_hd.o(RESET)
    __Vectors_End                            0x08000130   Data           0  startup_stm32f10x_hd.o(RESET)
    __main                                   0x08000131   Thumb Code     8  __main.o(!!!main)
    __scatterload                            0x08000139   Thumb Code     0  __scatter.o(!!!scatter)
    __scatterload_rt2                        0x08000139   Thumb Code    44  __scatter.o(!!!scatter)
    __scatterload_rt2_thumb_only             0x08000139   Thumb Code     0  __scatter.o(!!!scatter)
    __scatterload_null                       0x08000147   Thumb Code     0  __scatter.o(!!!scatter)
    __scatterload_copy                       0x0800016d   Thumb Code    26  __scatter_copy.o(!!handler_copy)
    __scatterload_zeroinit                   0x08000189   Thumb Code    28  __scatter_zi.o(!!handler_zi)
    _printf_n                                0x080001a5   Thumb Code     0  _printf_n.o(.ARM.Collect$$_printf_percent$$00000001)
    _printf_percent                          0x080001a5   Thumb Code     0  _printf_percent.o(.ARM.Collect$$_printf_percent$$00000000)
    _printf_p                                0x080001ab   Thumb Code     0  _printf_p.o(.ARM.Collect$$_printf_percent$$00000002)
    _printf_f                                0x080001b1   Thumb Code     0  _printf_f.o(.ARM.Collect$$_printf_percent$$00000003)
    _printf_e                                0x080001b7   Thumb Code     0  _printf_e.o(.ARM.Collect$$_printf_percent$$00000004)
    _printf_g                                0x080001bd   Thumb Code     0  _printf_g.o(.ARM.Collect$$_printf_percent$$00000005)
    _printf_a                                0x080001c3   Thumb Code     0  _printf_a.o(.ARM.Collect$$_printf_percent$$00000006)
    _printf_ll                               0x080001c9   Thumb Code     0  _printf_ll.o(.ARM.Collect$$_printf_percent$$00000007)
    _printf_i                                0x080001d3   Thumb Code     0  _printf_i.o(.ARM.Collect$$_printf_percent$$00000008)
    _printf_d                                0x080001d9   Thumb Code     0  _printf_d.o(.ARM.Collect$$_printf_percent$$00000009)
    _printf_u                                0x080001df   Thumb Code     0  _printf_u.o(.ARM.Collect$$_printf_percent$$0000000A)
    _printf_o                                0x080001e5   Thumb Code     0  _printf_o.o(.ARM.Collect$$_printf_percent$$0000000B)
    _printf_x                                0x080001eb   Thumb Code     0  _printf_x.o(.ARM.Collect$$_printf_percent$$0000000C)
    _printf_lli                              0x080001f1   Thumb Code     0  _printf_lli.o(.ARM.Collect$$_printf_percent$$0000000D)
    _printf_lld                              0x080001f7   Thumb Code     0  _printf_lld.o(.ARM.Collect$$_printf_percent$$0000000E)
    _printf_llu                              0x080001fd   Thumb Code     0  _printf_llu.o(.ARM.Collect$$_printf_percent$$0000000F)
    _printf_llo                              0x08000203   Thumb Code     0  _printf_llo.o(.ARM.Collect$$_printf_percent$$00000010)
    _printf_llx                              0x08000209   Thumb Code     0  _printf_llx.o(.ARM.Collect$$_printf_percent$$00000011)
    _printf_l                                0x0800020f   Thumb Code     0  _printf_l.o(.ARM.Collect$$_printf_percent$$00000012)
    _printf_c                                0x08000219   Thumb Code     0  _printf_c.o(.ARM.Collect$$_printf_percent$$00000013)
    _printf_s                                0x0800021f   Thumb Code     0  _printf_s.o(.ARM.Collect$$_printf_percent$$00000014)
    _printf_lc                               0x08000225   Thumb Code     0  _printf_lc.o(.ARM.Collect$$_printf_percent$$00000015)
    _printf_ls                               0x0800022b   Thumb Code     0  _printf_ls.o(.ARM.Collect$$_printf_percent$$00000016)
    _printf_percent_end                      0x08000231   Thumb Code     0  _printf_percent_end.o(.ARM.Collect$$_printf_percent$$00000017)
    __rt_lib_init                            0x08000235   Thumb Code     0  libinit.o(.ARM.Collect$$libinit$$00000000)
    __rt_lib_init_fp_1                       0x08000237   Thumb Code     0  libinit2.o(.ARM.Collect$$libinit$$00000002)
    __rt_lib_init_heap_1                     0x08000237   Thumb Code     0  libinit2.o(.ARM.Collect$$libinit$$0000000A)
    __rt_lib_init_lc_common                  0x08000237   Thumb Code     0  libinit2.o(.ARM.Collect$$libinit$$0000000F)
    __rt_lib_init_preinit_1                  0x08000237   Thumb Code     0  libinit2.o(.ARM.Collect$$libinit$$00000004)
    __rt_lib_init_rand_1                     0x08000237   Thumb Code     0  libinit2.o(.ARM.Collect$$libinit$$0000000E)
    __rt_lib_init_user_alloc_1               0x08000237   Thumb Code     0  libinit2.o(.ARM.Collect$$libinit$$0000000C)
    __rt_lib_init_lc_collate_1               0x0800023d   Thumb Code     0  libinit2.o(.ARM.Collect$$libinit$$00000011)
    __rt_lib_init_lc_ctype_2                 0x0800023d   Thumb Code     0  libinit2.o(.ARM.Collect$$libinit$$00000012)
    __rt_lib_init_lc_ctype_1                 0x08000249   Thumb Code     0  libinit2.o(.ARM.Collect$$libinit$$00000013)
    __rt_lib_init_lc_monetary_1              0x08000249   Thumb Code     0  libinit2.o(.ARM.Collect$$libinit$$00000015)
    __rt_lib_init_lc_numeric_2               0x08000249   Thumb Code     0  libinit2.o(.ARM.Collect$$libinit$$00000016)
    __rt_lib_init_alloca_1                   0x08000253   Thumb Code     0  libinit2.o(.ARM.Collect$$libinit$$0000002E)
    __rt_lib_init_argv_1                     0x08000253   Thumb Code     0  libinit2.o(.ARM.Collect$$libinit$$0000002C)
    __rt_lib_init_atexit_1                   0x08000253   Thumb Code     0  libinit2.o(.ARM.Collect$$libinit$$0000001B)
    __rt_lib_init_clock_1                    0x08000253   Thumb Code     0  libinit2.o(.ARM.Collect$$libinit$$00000021)
    __rt_lib_init_cpp_1                      0x08000253   Thumb Code     0  libinit2.o(.ARM.Collect$$libinit$$00000032)
    __rt_lib_init_exceptions_1               0x08000253   Thumb Code     0  libinit2.o(.ARM.Collect$$libinit$$00000030)
    __rt_lib_init_fp_trap_1                  0x08000253   Thumb Code     0  libinit2.o(.ARM.Collect$$libinit$$0000001F)
    __rt_lib_init_getenv_1                   0x08000253   Thumb Code     0  libinit2.o(.ARM.Collect$$libinit$$00000023)
    __rt_lib_init_lc_numeric_1               0x08000253   Thumb Code     0  libinit2.o(.ARM.Collect$$libinit$$00000017)
    __rt_lib_init_lc_time_1                  0x08000253   Thumb Code     0  libinit2.o(.ARM.Collect$$libinit$$00000019)
    __rt_lib_init_return                     0x08000253   Thumb Code     0  libinit2.o(.ARM.Collect$$libinit$$00000033)
    __rt_lib_init_signal_1                   0x08000253   Thumb Code     0  libinit2.o(.ARM.Collect$$libinit$$0000001D)
    __rt_lib_init_stdio_1                    0x08000253   Thumb Code     0  libinit2.o(.ARM.Collect$$libinit$$00000025)
    __rt_lib_shutdown                        0x08000255   Thumb Code     0  libshutdown.o(.ARM.Collect$$libshutdown$$00000000)
    __rt_lib_shutdown_cpp_1                  0x08000257   Thumb Code     0  libshutdown2.o(.ARM.Collect$$libshutdown$$00000002)
    __rt_lib_shutdown_fp_trap_1              0x08000257   Thumb Code     0  libshutdown2.o(.ARM.Collect$$libshutdown$$00000007)
    __rt_lib_shutdown_heap_1                 0x08000257   Thumb Code     0  libshutdown2.o(.ARM.Collect$$libshutdown$$0000000F)
    __rt_lib_shutdown_return                 0x08000257   Thumb Code     0  libshutdown2.o(.ARM.Collect$$libshutdown$$00000010)
    __rt_lib_shutdown_signal_1               0x08000257   Thumb Code     0  libshutdown2.o(.ARM.Collect$$libshutdown$$0000000A)
    __rt_lib_shutdown_stdio_1                0x08000257   Thumb Code     0  libshutdown2.o(.ARM.Collect$$libshutdown$$00000004)
    __rt_lib_shutdown_user_alloc_1           0x08000257   Thumb Code     0  libshutdown2.o(.ARM.Collect$$libshutdown$$0000000C)
    __rt_entry                               0x08000259   Thumb Code     0  __rtentry.o(.ARM.Collect$$rtentry$$00000000)
    __rt_entry_presh_1                       0x08000259   Thumb Code     0  __rtentry2.o(.ARM.Collect$$rtentry$$00000002)
    __rt_entry_sh                            0x08000259   Thumb Code     0  __rtentry4.o(.ARM.Collect$$rtentry$$00000004)
    __rt_entry_li                            0x0800025f   Thumb Code     0  __rtentry2.o(.ARM.Collect$$rtentry$$0000000A)
    __rt_entry_postsh_1                      0x0800025f   Thumb Code     0  __rtentry2.o(.ARM.Collect$$rtentry$$00000009)
    __rt_entry_main                          0x08000263   Thumb Code     0  __rtentry2.o(.ARM.Collect$$rtentry$$0000000D)
    __rt_entry_postli_1                      0x08000263   Thumb Code     0  __rtentry2.o(.ARM.Collect$$rtentry$$0000000C)
    __rt_exit                                0x0800026b   Thumb Code     0  rtexit.o(.ARM.Collect$$rtexit$$00000000)
    __rt_exit_ls                             0x0800026d   Thumb Code     0  rtexit2.o(.ARM.Collect$$rtexit$$00000003)
    __rt_exit_prels_1                        0x0800026d   Thumb Code     0  rtexit2.o(.ARM.Collect$$rtexit$$00000002)
    __rt_exit_exit                           0x08000271   Thumb Code     0  rtexit2.o(.ARM.Collect$$rtexit$$00000004)
    SVC_Handler                              0x08000279   Thumb Code    32  port.o(.emb_text)
    __asm___6_port_c_39a90d8d__prvStartFirstTask 0x0800029d   Thumb Code    28  port.o(.emb_text)
    PendSV_Handler                           0x080002bd   Thumb Code    72  port.o(.emb_text)
    vPortGetIPSR                             0x08000309   Thumb Code     6  port.o(.emb_text)
    Reset_Handler                            0x08000311   Thumb Code     8  startup_stm32f10x_hd.o(.text)
    ADC1_2_IRQHandler                        0x0800032b   Thumb Code     0  startup_stm32f10x_hd.o(.text)
    ADC3_IRQHandler                          0x0800032b   Thumb Code     0  startup_stm32f10x_hd.o(.text)
    CAN1_RX1_IRQHandler                      0x0800032b   Thumb Code     0  startup_stm32f10x_hd.o(.text)
    CAN1_SCE_IRQHandler                      0x0800032b   Thumb Code     0  startup_stm32f10x_hd.o(.text)
    DMA1_Channel1_IRQHandler                 0x0800032b   Thumb Code     0  startup_stm32f10x_hd.o(.text)
    DMA1_Channel2_IRQHandler                 0x0800032b   Thumb Code     0  startup_stm32f10x_hd.o(.text)
    DMA1_Channel3_IRQHandler                 0x0800032b   Thumb Code     0  startup_stm32f10x_hd.o(.text)
    DMA1_Channel4_IRQHandler                 0x0800032b   Thumb Code     0  startup_stm32f10x_hd.o(.text)
    DMA1_Channel5_IRQHandler                 0x0800032b   Thumb Code     0  startup_stm32f10x_hd.o(.text)
    DMA1_Channel6_IRQHandler                 0x0800032b   Thumb Code     0  startup_stm32f10x_hd.o(.text)
    DMA1_Channel7_IRQHandler                 0x0800032b   Thumb Code     0  startup_stm32f10x_hd.o(.text)
    DMA2_Channel1_IRQHandler                 0x0800032b   Thumb Code     0  startup_stm32f10x_hd.o(.text)
    DMA2_Channel2_IRQHandler                 0x0800032b   Thumb Code     0  startup_stm32f10x_hd.o(.text)
    DMA2_Channel3_IRQHandler                 0x0800032b   Thumb Code     0  startup_stm32f10x_hd.o(.text)
    DMA2_Channel4_5_IRQHandler               0x0800032b   Thumb Code     0  startup_stm32f10x_hd.o(.text)
    EXTI0_IRQHandler                         0x0800032b   Thumb Code     0  startup_stm32f10x_hd.o(.text)
    EXTI15_10_IRQHandler                     0x0800032b   Thumb Code     0  startup_stm32f10x_hd.o(.text)
    EXTI1_IRQHandler                         0x0800032b   Thumb Code     0  startup_stm32f10x_hd.o(.text)
    EXTI2_IRQHandler                         0x0800032b   Thumb Code     0  startup_stm32f10x_hd.o(.text)
    EXTI3_IRQHandler                         0x0800032b   Thumb Code     0  startup_stm32f10x_hd.o(.text)
    EXTI4_IRQHandler                         0x0800032b   Thumb Code     0  startup_stm32f10x_hd.o(.text)
    EXTI9_5_IRQHandler                       0x0800032b   Thumb Code     0  startup_stm32f10x_hd.o(.text)
    FLASH_IRQHandler                         0x0800032b   Thumb Code     0  startup_stm32f10x_hd.o(.text)
    FSMC_IRQHandler                          0x0800032b   Thumb Code     0  startup_stm32f10x_hd.o(.text)
    I2C1_ER_IRQHandler                       0x0800032b   Thumb Code     0  startup_stm32f10x_hd.o(.text)
    I2C1_EV_IRQHandler                       0x0800032b   Thumb Code     0  startup_stm32f10x_hd.o(.text)
    I2C2_ER_IRQHandler                       0x0800032b   Thumb Code     0  startup_stm32f10x_hd.o(.text)
    I2C2_EV_IRQHandler                       0x0800032b   Thumb Code     0  startup_stm32f10x_hd.o(.text)
    PVD_IRQHandler                           0x0800032b   Thumb Code     0  startup_stm32f10x_hd.o(.text)
    RCC_IRQHandler                           0x0800032b   Thumb Code     0  startup_stm32f10x_hd.o(.text)
    RTCAlarm_IRQHandler                      0x0800032b   Thumb Code     0  startup_stm32f10x_hd.o(.text)
    RTC_IRQHandler                           0x0800032b   Thumb Code     0  startup_stm32f10x_hd.o(.text)
    SDIO_IRQHandler                          0x0800032b   Thumb Code     0  startup_stm32f10x_hd.o(.text)
    SPI1_IRQHandler                          0x0800032b   Thumb Code     0  startup_stm32f10x_hd.o(.text)
    SPI2_IRQHandler                          0x0800032b   Thumb Code     0  startup_stm32f10x_hd.o(.text)
    SPI3_IRQHandler                          0x0800032b   Thumb Code     0  startup_stm32f10x_hd.o(.text)
    TAMPER_IRQHandler                        0x0800032b   Thumb Code     0  startup_stm32f10x_hd.o(.text)
    TIM1_BRK_IRQHandler                      0x0800032b   Thumb Code     0  startup_stm32f10x_hd.o(.text)
    TIM1_CC_IRQHandler                       0x0800032b   Thumb Code     0  startup_stm32f10x_hd.o(.text)
    TIM1_TRG_COM_IRQHandler                  0x0800032b   Thumb Code     0  startup_stm32f10x_hd.o(.text)
    TIM2_IRQHandler                          0x0800032b   Thumb Code     0  startup_stm32f10x_hd.o(.text)
    TIM4_IRQHandler                          0x0800032b   Thumb Code     0  startup_stm32f10x_hd.o(.text)
    TIM5_IRQHandler                          0x0800032b   Thumb Code     0  startup_stm32f10x_hd.o(.text)
    TIM6_IRQHandler                          0x0800032b   Thumb Code     0  startup_stm32f10x_hd.o(.text)
    TIM7_IRQHandler                          0x0800032b   Thumb Code     0  startup_stm32f10x_hd.o(.text)
    TIM8_BRK_IRQHandler                      0x0800032b   Thumb Code     0  startup_stm32f10x_hd.o(.text)
    TIM8_CC_IRQHandler                       0x0800032b   Thumb Code     0  startup_stm32f10x_hd.o(.text)
    TIM8_TRG_COM_IRQHandler                  0x0800032b   Thumb Code     0  startup_stm32f10x_hd.o(.text)
    TIM8_UP_IRQHandler                       0x0800032b   Thumb Code     0  startup_stm32f10x_hd.o(.text)
    UART4_IRQHandler                         0x0800032b   Thumb Code     0  startup_stm32f10x_hd.o(.text)
    UART5_IRQHandler                         0x0800032b   Thumb Code     0  startup_stm32f10x_hd.o(.text)
    USART3_IRQHandler                        0x0800032b   Thumb Code     0  startup_stm32f10x_hd.o(.text)
    USBWakeUp_IRQHandler                     0x0800032b   Thumb Code     0  startup_stm32f10x_hd.o(.text)
    USB_HP_CAN1_TX_IRQHandler                0x0800032b   Thumb Code     0  startup_stm32f10x_hd.o(.text)
    USB_LP_CAN1_RX0_IRQHandler               0x0800032b   Thumb Code     0  startup_stm32f10x_hd.o(.text)
    WWDG_IRQHandler                          0x0800032b   Thumb Code     0  startup_stm32f10x_hd.o(.text)
    __user_initial_stackheap                 0x0800032d   Thumb Code     0  startup_stm32f10x_hd.o(.text)
    __use_no_semihosting                     0x08000351   Thumb Code     2  use_no_semi_2.o(.text)
    __aeabi_uldivmod                         0x08000353   Thumb Code     0  lludivv7m.o(.text)
    _ll_udiv                                 0x08000353   Thumb Code   238  lludivv7m.o(.text)
    vsnprintf                                0x08000441   Thumb Code    48  vsnprintf.o(.text)
    __2printf                                0x08000475   Thumb Code    20  __2printf.o(.text)
    _printf_str                              0x0800048d   Thumb Code    82  _printf_str.o(.text)
    _printf_int_dec                          0x080004e1   Thumb Code   104  _printf_dec.o(.text)
    __printf                                 0x08000559   Thumb Code   388  __printf_flags_ss_wp.o(.text)
    strstr                                   0x080006e1   Thumb Code    36  strstr.o(.text)
    strcat                                   0x08000705   Thumb Code    24  strcat.o(.text)
    __aeabi_memcpy                           0x0800071d   Thumb Code     0  rt_memcpy_v6.o(.text)
    __rt_memcpy                              0x0800071d   Thumb Code   138  rt_memcpy_v6.o(.text)
    _memcpy_lastbytes                        0x08000783   Thumb Code     0  rt_memcpy_v6.o(.text)
    __aeabi_memcpy4                          0x080007a7   Thumb Code     0  rt_memcpy_w.o(.text)
    __aeabi_memcpy8                          0x080007a7   Thumb Code     0  rt_memcpy_w.o(.text)
    __rt_memcpy_w                            0x080007a7   Thumb Code   100  rt_memcpy_w.o(.text)
    _memcpy_lastbytes_aligned                0x080007ef   Thumb Code     0  rt_memcpy_w.o(.text)
    __aeabi_memset                           0x0800080b   Thumb Code    16  aeabi_memset.o(.text)
    __aeabi_memclr4                          0x0800081b   Thumb Code     0  rt_memclr_w.o(.text)
    __aeabi_memclr8                          0x0800081b   Thumb Code     0  rt_memclr_w.o(.text)
    __rt_memclr_w                            0x0800081b   Thumb Code    78  rt_memclr_w.o(.text)
    _memset_w                                0x0800081f   Thumb Code     0  rt_memclr_w.o(.text)
    __use_two_region_memory                  0x08000869   Thumb Code     2  heapauxi.o(.text)
    __rt_heap_escrow$2region                 0x0800086b   Thumb Code     2  heapauxi.o(.text)
    __rt_heap_expand$2region                 0x0800086d   Thumb Code     2  heapauxi.o(.text)
    __semihosting$guard                      0x0800086f   Thumb Code     0  use_no_semi.o(.text)
    __use_no_semihosting_swi                 0x0800086f   Thumb Code     2  use_no_semi.o(.text)
    _printf_pre_padding                      0x08000871   Thumb Code    44  _printf_pad.o(.text)
    _printf_post_padding                     0x0800089d   Thumb Code    34  _printf_pad.o(.text)
    _printf_truncate_signed                  0x080008bf   Thumb Code    18  _printf_truncate.o(.text)
    _printf_truncate_unsigned                0x080008d1   Thumb Code    18  _printf_truncate.o(.text)
    _printf_int_common                       0x080008e3   Thumb Code   178  _printf_intcommon.o(.text)
    _printf_charcount                        0x08000995   Thumb Code    40  _printf_charcount.o(.text)
    _printf_char_common                      0x080009c7   Thumb Code    32  _printf_char_common.o(.text)
    _sputc                                   0x080009ed   Thumb Code    10  _sputc.o(.text)
    _snputc                                  0x080009f7   Thumb Code    16  _snputc.o(.text)
    _printf_cs_common                        0x08000a07   Thumb Code    20  _printf_char.o(.text)
    _printf_char                             0x08000a1b   Thumb Code    16  _printf_char.o(.text)
    _printf_string                           0x08000a2b   Thumb Code     8  _printf_char.o(.text)
    _printf_char_file                        0x08000a35   Thumb Code    32  _printf_char_file.o(.text)
    _printf_wctomb                           0x08000a59   Thumb Code   182  _printf_wctomb.o(.text)
    _printf_longlong_dec                     0x08000b15   Thumb Code   108  _printf_longlong_dec.o(.text)
    _printf_longlong_oct                     0x08000b91   Thumb Code    66  _printf_oct_int_ll.o(.text)
    _printf_int_oct                          0x08000bd3   Thumb Code    24  _printf_oct_int_ll.o(.text)
    _printf_ll_oct                           0x08000beb   Thumb Code    12  _printf_oct_int_ll.o(.text)
    _printf_longlong_hex                     0x08000c01   Thumb Code    86  _printf_hex_int_ll_ptr.o(.text)
    _printf_int_hex                          0x08000c57   Thumb Code    28  _printf_hex_int_ll_ptr.o(.text)
    _printf_ll_hex                           0x08000c73   Thumb Code    12  _printf_hex_int_ll_ptr.o(.text)
    _printf_hex_ptr                          0x08000c7f   Thumb Code    18  _printf_hex_int_ll_ptr.o(.text)
    __aeabi_memclr                           0x08000c95   Thumb Code     0  rt_memclr.o(.text)
    __rt_memclr                              0x08000c95   Thumb Code    68  rt_memclr.o(.text)
    _memset                                  0x08000c99   Thumb Code     0  rt_memclr.o(.text)
    _ll_udiv10                               0x08000cd9   Thumb Code   138  lludiv10.o(.text)
    __lib_sel_fp_printf                      0x08000d63   Thumb Code     2  _printf_fp_dec.o(.text)
    _printf_fp_dec_real                      0x08000f15   Thumb Code   620  _printf_fp_dec.o(.text)
    _printf_fp_hex_real                      0x08001181   Thumb Code   756  _printf_fp_hex.o(.text)
    _printf_lcs_common                       0x0800147d   Thumb Code    20  _printf_wchar.o(.text)
    _printf_wchar                            0x08001491   Thumb Code    16  _printf_wchar.o(.text)
    _printf_wstring                          0x080014a1   Thumb Code     8  _printf_wchar.o(.text)
    ferror                                   0x080014a9   Thumb Code     8  ferror.o(.text)
    _wcrtomb                                 0x080014b1   Thumb Code    64  _wcrtomb.o(.text)
    __user_setup_stackheap                   0x080014f1   Thumb Code    74  sys_stackheap_outer.o(.text)
    __rt_ctype_table                         0x0800153d   Thumb Code    16  rt_ctype_table.o(.text)
    __rt_locale                              0x0800154d   Thumb Code     8  rt_locale_intlibspace.o(.text)
    _printf_fp_infnan                        0x08001555   Thumb Code   112  _printf_fp_infnan.o(.text)
    _btod_etento                             0x080015d5   Thumb Code   224  bigflt0.o(.text)
    exit                                     0x080016b9   Thumb Code    18  exit.o(.text)
    __user_libspace                          0x080016cd   Thumb Code     8  libspace.o(.text)
    __user_perproc_libspace                  0x080016cd   Thumb Code     0  libspace.o(.text)
    __user_perthread_libspace                0x080016cd   Thumb Code     0  libspace.o(.text)
    strcmp                                   0x080016d5   Thumb Code   128  strcmpv7m.o(.text)
    _btod_d2e                                0x08001755   Thumb Code    62  btod.o(CL$$btod_d2e)
    _d2e_denorm_low                          0x08001793   Thumb Code    70  btod.o(CL$$btod_d2e_denorm_low)
    _d2e_norm_op1                            0x080017d9   Thumb Code    96  btod.o(CL$$btod_d2e_norm_op1)
    __btod_div_common                        0x08001839   Thumb Code   696  btod.o(CL$$btod_div_common)
    _e2e                                     0x08001b71   Thumb Code   220  btod.o(CL$$btod_e2e)
    _btod_ediv                               0x08001c4d   Thumb Code    42  btod.o(CL$$btod_ediv)
    _btod_emul                               0x08001c77   Thumb Code    42  btod.o(CL$$btod_emul)
    __btod_mult_common                       0x08001ca1   Thumb Code   580  btod.o(CL$$btod_mult_common)
    ADC_Cmd                                  0x08001ee5   Thumb Code    24  stm32f10x_adc.o(i.ADC_Cmd)
    ADC_DeInit                               0x08001efd   Thumb Code    88  stm32f10x_adc.o(i.ADC_DeInit)
    ADC_GetCalibrationStatus                 0x08001f61   Thumb Code    14  stm32f10x_adc.o(i.ADC_GetCalibrationStatus)
    ADC_GetConversionValue                   0x08001f6f   Thumb Code     6  stm32f10x_adc.o(i.ADC_GetConversionValue)
    ADC_GetFlagStatus                        0x08001f75   Thumb Code    14  stm32f10x_adc.o(i.ADC_GetFlagStatus)
    ADC_GetResetCalibrationStatus            0x08001f83   Thumb Code    14  stm32f10x_adc.o(i.ADC_GetResetCalibrationStatus)
    ADC_Init                                 0x08001f91   Thumb Code    62  stm32f10x_adc.o(i.ADC_Init)
    ADC_RegularChannelConfig                 0x08001fd9   Thumb Code   116  stm32f10x_adc.o(i.ADC_RegularChannelConfig)
    ADC_ResetCalibration                     0x0800204d   Thumb Code    10  stm32f10x_adc.o(i.ADC_ResetCalibration)
    ADC_SoftwareStartConvCmd                 0x08002057   Thumb Code    24  stm32f10x_adc.o(i.ADC_SoftwareStartConvCmd)
    ADC_StartCalibration                     0x0800206f   Thumb Code    10  stm32f10x_adc.o(i.ADC_StartCalibration)
    BusFault_Handler                         0x08002079   Thumb Code     2  stm32f10x_it.o(i.BusFault_Handler)
    DebugMon_Handler                         0x0800207b   Thumb Code     2  stm32f10x_it.o(i.DebugMon_Handler)
    GPIO_Init                                0x0800207d   Thumb Code   166  stm32f10x_gpio.o(i.GPIO_Init)
    GPIO_ReadInputDataBit                    0x08002123   Thumb Code    14  stm32f10x_gpio.o(i.GPIO_ReadInputDataBit)
    GPIO_ResetBits                           0x08002131   Thumb Code     4  stm32f10x_gpio.o(i.GPIO_ResetBits)
    GPIO_SetBits                             0x08002135   Thumb Code     4  stm32f10x_gpio.o(i.GPIO_SetBits)
    GPIO_WriteBit                            0x08002139   Thumb Code    12  stm32f10x_gpio.o(i.GPIO_WriteBit)
    HardFault_Handler                        0x08002145   Thumb Code     2  stm32f10x_it.o(i.HardFault_Handler)
    I2C_CheckEvent                           0x08002147   Thumb Code    24  stm32f10x_i2c.o(i.I2C_CheckEvent)
    I2C_Cmd                                  0x0800215f   Thumb Code    24  stm32f10x_i2c.o(i.I2C_Cmd)
    I2C_DeInit                               0x08002179   Thumb Code    52  stm32f10x_i2c.o(i.I2C_DeInit)
    I2C_GenerateSTART                        0x080021b1   Thumb Code    24  stm32f10x_i2c.o(i.I2C_GenerateSTART)
    I2C_GenerateSTOP                         0x080021c9   Thumb Code    24  stm32f10x_i2c.o(i.I2C_GenerateSTOP)
    I2C_GetFlagStatus                        0x080021e1   Thumb Code    50  stm32f10x_i2c.o(i.I2C_GetFlagStatus)
    I2C_Init                                 0x08002215   Thumb Code   182  stm32f10x_i2c.o(i.I2C_Init)
    I2C_Send7bitAddress                      0x080022d5   Thumb Code    18  stm32f10x_i2c.o(i.I2C_Send7bitAddress)
    I2C_SendData                             0x080022e7   Thumb Code     4  stm32f10x_i2c.o(i.I2C_SendData)
    IWDG_Enable                              0x080022ed   Thumb Code    10  stm32f10x_iwdg.o(i.IWDG_Enable)
    IWDG_ReloadCounter                       0x080022fd   Thumb Code    10  stm32f10x_iwdg.o(i.IWDG_ReloadCounter)
    IWDG_SetPrescaler                        0x0800230d   Thumb Code     6  stm32f10x_iwdg.o(i.IWDG_SetPrescaler)
    IWDG_SetReload                           0x08002319   Thumb Code     6  stm32f10x_iwdg.o(i.IWDG_SetReload)
    IWDG_WriteAccessCmd                      0x08002325   Thumb Code     6  stm32f10x_iwdg.o(i.IWDG_WriteAccessCmd)
    JTAG_Set                                 0x08002331   Thumb Code    30  sys.o(i.JTAG_Set)
    MemManage_Handler                        0x08002359   Thumb Code     2  stm32f10x_it.o(i.MemManage_Handler)
    NMI_Handler                              0x0800235b   Thumb Code     2  stm32f10x_it.o(i.NMI_Handler)
    NVIC_Init                                0x0800235d   Thumb Code    96  misc.o(i.NVIC_Init)
    NVIC_PriorityGroupConfig                 0x080023c1   Thumb Code    10  misc.o(i.NVIC_PriorityGroupConfig)
    RCC_ADCCLKConfig                         0x080023d5   Thumb Code    14  stm32f10x_rcc.o(i.RCC_ADCCLKConfig)
    RCC_APB1PeriphClockCmd                   0x080023e9   Thumb Code    22  stm32f10x_rcc.o(i.RCC_APB1PeriphClockCmd)
    RCC_APB1PeriphResetCmd                   0x08002405   Thumb Code    22  stm32f10x_rcc.o(i.RCC_APB1PeriphResetCmd)
    RCC_APB2PeriphClockCmd                   0x08002421   Thumb Code    22  stm32f10x_rcc.o(i.RCC_APB2PeriphClockCmd)
    RCC_APB2PeriphResetCmd                   0x0800243d   Thumb Code    22  stm32f10x_rcc.o(i.RCC_APB2PeriphResetCmd)
    RCC_GetClocksFreq                        0x08002459   Thumb Code   154  stm32f10x_rcc.o(i.RCC_GetClocksFreq)
    SysTick_CLKSourceConfig                  0x080025b9   Thumb Code    28  misc.o(i.SysTick_CLKSourceConfig)
    SysTick_Handler                          0x080025d5   Thumb Code    20  delay.o(i.SysTick_Handler)
    SystemInit                               0x080025e9   Thumb Code    64  system_stm32f10x.o(i.SystemInit)
    TIM1_UP_IRQHandler                       0x08002639   Thumb Code    44  hcsr04.o(i.TIM1_UP_IRQHandler)
    TIM3_IRQHandler                          0x0800266d   Thumb Code   112  app.o(i.TIM3_IRQHandler)
    TIM_ARRPreloadConfig                     0x080026e5   Thumb Code    24  stm32f10x_tim.o(i.TIM_ARRPreloadConfig)
    TIM_ClearFlag                            0x080026fd   Thumb Code     6  stm32f10x_tim.o(i.TIM_ClearFlag)
    TIM_ClearITPendingBit                    0x08002703   Thumb Code     6  stm32f10x_tim.o(i.TIM_ClearITPendingBit)
    TIM_Cmd                                  0x08002709   Thumb Code    24  stm32f10x_tim.o(i.TIM_Cmd)
    TIM_GetITStatus                          0x08002721   Thumb Code    24  stm32f10x_tim.o(i.TIM_GetITStatus)
    TIM_ITConfig                             0x08002739   Thumb Code    20  stm32f10x_tim.o(i.TIM_ITConfig)
    TIM_InternalClockConfig                  0x0800274d   Thumb Code    10  stm32f10x_tim.o(i.TIM_InternalClockConfig)
    TIM_OC1Init                              0x08002759   Thumb Code   114  stm32f10x_tim.o(i.TIM_OC1Init)
    TIM_OC1PolarityConfig                    0x080027e1   Thumb Code    12  stm32f10x_tim.o(i.TIM_OC1PolarityConfig)
    TIM_OC2Init                              0x080027ed   Thumb Code   128  stm32f10x_tim.o(i.TIM_OC2Init)
    TIM_OC2PolarityConfig                    0x08002875   Thumb Code    20  stm32f10x_tim.o(i.TIM_OC2PolarityConfig)
    TIM_OC3Init                              0x08002889   Thumb Code   124  stm32f10x_tim.o(i.TIM_OC3Init)
    TIM_OC3PolarityConfig                    0x0800290d   Thumb Code    20  stm32f10x_tim.o(i.TIM_OC3PolarityConfig)
    TIM_OC4Init                              0x08002921   Thumb Code    94  stm32f10x_tim.o(i.TIM_OC4Init)
    TIM_OC4PolarityConfig                    0x08002989   Thumb Code    20  stm32f10x_tim.o(i.TIM_OC4PolarityConfig)
    TIM_SetCompare1                          0x0800299d   Thumb Code     4  stm32f10x_tim.o(i.TIM_SetCompare1)
    TIM_SetCompare2                          0x080029a1   Thumb Code     4  stm32f10x_tim.o(i.TIM_SetCompare2)
    TIM_SetCompare3                          0x080029a5   Thumb Code     4  stm32f10x_tim.o(i.TIM_SetCompare3)
    TIM_SetCompare4                          0x080029a9   Thumb Code     6  stm32f10x_tim.o(i.TIM_SetCompare4)
    TIM_TimeBaseInit                         0x080029b1   Thumb Code   114  stm32f10x_tim.o(i.TIM_TimeBaseInit)
    USART1_IRQHandler                        0x08002a4d   Thumb Code    92  usart.o(i.USART1_IRQHandler)
    USART2_IRQHandler                        0x08002ab5   Thumb Code    92  usart.o(i.USART2_IRQHandler)
    USART_Cmd                                0x08002b1d   Thumb Code    24  stm32f10x_usart.o(i.USART_Cmd)
    USART_GetFlagStatus                      0x08002b35   Thumb Code    14  stm32f10x_usart.o(i.USART_GetFlagStatus)
    USART_GetITStatus                        0x08002b43   Thumb Code    64  stm32f10x_usart.o(i.USART_GetITStatus)
    USART_ITConfig                           0x08002b83   Thumb Code    54  stm32f10x_usart.o(i.USART_ITConfig)
    USART_Init                               0x08002bb9   Thumb Code   182  stm32f10x_usart.o(i.USART_Init)
    USART_ReceiveData                        0x08002c75   Thumb Code     8  stm32f10x_usart.o(i.USART_ReceiveData)
    USART_SendData                           0x08002c7d   Thumb Code     8  stm32f10x_usart.o(i.USART_SendData)
    UsageFault_Handler                       0x08002c85   Thumb Code     2  stm32f10x_it.o(i.UsageFault_Handler)
    __ARM_fpclassify                         0x08002c87   Thumb Code    40  fpclassify.o(i.__ARM_fpclassify)
    _is_digit                                0x08002caf   Thumb Code    14  __printf_wp.o(i._is_digit)
    _sys_exit                                0x08002cbd   Thumb Code     2  usart.o(i._sys_exit)
    adc_get                                  0x08002cc1   Thumb Code    46  adc.o(i.adc_get)
    adc_get_avg                              0x08002cf5   Thumb Code    46  adc.o(i.adc_get_avg)
    adc_init                                 0x08002d25   Thumb Code   126  adc.o(i.adc_init)
    bat_val_get                              0x08002dad   Thumb Code   104  app.o(i.bat_val_get)
    beep_init                                0x08002e25   Thumb Code    54  beep.o(i.beep_init)
    beep_overturn                            0x08002e65   Thumb Code    32  beep.o(i.beep_overturn)
    ble_check_cmd                            0x08002e8d   Thumb Code    84  ble.o(i.ble_check_cmd)
    ble_check_data                           0x08002ee9   Thumb Code     8  ble.o(i.ble_check_data)
    ble_clear_data                           0x08002ef5   Thumb Code    32  ble.o(i.ble_clear_data)
    ble_cmd_get                              0x08002f1d   Thumb Code   354  app.o(i.ble_cmd_get)
    ble_get_data                             0x08003119   Thumb Code    42  ble.o(i.ble_get_data)
    ble_init                                 0x08003155   Thumb Code   144  ble.o(i.ble_init)
    ble_send_cmd                             0x08003261   Thumb Code    42  ble.o(i.ble_send_cmd)
    car_back                                 0x08003291   Thumb Code    24  motor.o(i.car_back)
    car_dat_loop                             0x080032a9   Thumb Code    34  app.o(i.car_dat_loop)
    car_fun_avoid                            0x080032d1   Thumb Code   116  app.o(i.car_fun_avoid)
    car_fun_debug                            0x0800334d   Thumb Code   100  app.o(i.car_fun_debug)
    car_fun_dis                              0x08003425   Thumb Code   278  app.o(i.car_fun_dis)
    car_fun_follow                           0x0800358d   Thumb Code   114  app.o(i.car_fun_follow)
    car_fun_loop                             0x08003609   Thumb Code    98  app.o(i.car_fun_loop)
    car_fun_magic_hand                       0x08003671   Thumb Code    78  app.o(i.car_fun_magic_hand)
    car_fun_telecontrol                      0x080036c9   Thumb Code   118  app.o(i.car_fun_telecontrol)
    car_fun_track                            0x08003749   Thumb Code    40  app.o(i.car_fun_track)
    car_go                                   0x08003775   Thumb Code    24  motor.o(i.car_go)
    car_init                                 0x0800378d   Thumb Code   138  app.o(i.car_init)
    car_left                                 0x08003879   Thumb Code    24  motor.o(i.car_left)
    car_right                                0x08003891   Thumb Code    24  motor.o(i.car_right)
    car_stop                                 0x080038a9   Thumb Code    24  motor.o(i.car_stop)
    delay_init                               0x080038c1   Thumb Code    26  delay.o(i.delay_init)
    delay_ms                                 0x080038e1   Thumb Code    26  delay.o(i.delay_ms)
    delay_us                                 0x080038fd   Thumb Code    50  delay.o(i.delay_us)
    drv_init                                 0x08003935   Thumb Code   196  app.o(i.drv_init)
    drv_reg                                  0x08003a25   Thumb Code   104  app.o(i.drv_reg)
    drv_run                                  0x08003a9d   Thumb Code   106  app.o(i.drv_run)
    explor_dir_get                           0x08003b0d   Thumb Code    98  app.o(i.explor_dir_get)
    fputc                                    0x08003b79   Thumb Code    18  usart.o(i.fputc)
    freertos_demo                            0x08003b91   Thumb Code    30  os.o(i.freertos_demo)
    hcsr04_init                              0x08003bc5   Thumb Code    70  hcsr04.o(i.hcsr04_init)
    i2c2_init                                0x08003c11   Thumb Code   112  iic.o(i.i2c2_init)
    i2c_write_byte                           0x08003c8d   Thumb Code   128  iic.o(i.i2c_write_byte)
    i2c_write_cmd                            0x08003d19   Thumb Code     8  iic.o(i.i2c_write_cmd)
    i2c_write_data                           0x08003d21   Thumb Code     8  iic.o(i.i2c_write_data)
    iwdg_feed                                0x08003d29   Thumb Code     4  iwdg.o(i.iwdg_feed)
    iwdg_init                                0x08003d2d   Thumb Code    38  iwdg.o(i.iwdg_init)
    main                                     0x08003d53   Thumb Code    20  main.o(i.main)
    motor_gpio_cfg                           0x08003d69   Thumb Code    40  motor.o(i.motor_gpio_cfg)
    motor_gpio_mode                          0x08003d95   Thumb Code    26  motor.o(i.motor_gpio_mode)
    motor_init                               0x08003db5   Thumb Code    56  motor.o(i.motor_init)
    motor_l_pwm_out                          0x08003ded   Thumb Code    26  motor.o(i.motor_l_pwm_out)
    motor_left                               0x08003e0d   Thumb Code   180  motor.o(i.motor_left)
    motor_pwm_init                           0x08003ec9   Thumb Code   150  motor.o(i.motor_pwm_init)
    motor_r_pwm_out                          0x08003f65   Thumb Code    26  motor.o(i.motor_r_pwm_out)
    motor_right                              0x08003f85   Thumb Code   188  motor.o(i.motor_right)
    my_free                                  0x08004049   Thumb Code    20  malloc.o(i.my_free)
    my_malloc                                0x08004061   Thumb Code    30  malloc.o(i.my_malloc)
    my_mem_free                              0x08004085   Thumb Code    80  malloc.o(i.my_mem_free)
    my_mem_init                              0x080040dd   Thumb Code    50  malloc.o(i.my_mem_init)
    my_mem_malloc                            0x08004119   Thumb Code   146  malloc.o(i.my_mem_malloc)
    my_mem_perused                           0x080041b5   Thumb Code    48  malloc.o(i.my_mem_perused)
    my_memcpy                                0x080041ed   Thumb Code    18  malloc.o(i.my_memcpy)
    my_memset                                0x080041ff   Thumb Code    14  malloc.o(i.my_memset)
    my_realloc                               0x0800420d   Thumb Code    62  malloc.o(i.my_realloc)
    nvic_cfg                                 0x08004251   Thumb Code     8  sys.o(i.nvic_cfg)
    oled_clear_line                          0x08004259   Thumb Code    86  oled.o(i.oled_clear_line)
    oled_fill                                0x080042af   Thumb Code    54  oled.o(i.oled_fill)
    oled_init                                0x080042e5   Thumb Code   190  oled.o(i.oled_init)
    oled_pow                                 0x080043a3   Thumb Code    16  oled.o(i.oled_pow)
    oled_set_pos                             0x080043b3   Thumb Code    38  oled.o(i.oled_set_pos)
    oled_show_char                           0x080043d9   Thumb Code   122  oled.o(i.oled_show_char)
    oled_show_num                            0x0800445d   Thumb Code    86  oled.o(i.oled_show_num)
    oled_show_str                            0x080044b5   Thumb Code   194  oled.o(i.oled_show_str)
    param_load                               0x08004581   Thumb Code    52  app.o(i.param_load)
    pvPortMalloc                             0x08004f0d   Thumb Code   232  heap_4.o(i.pvPortMalloc)
    pvTaskIncrementMutexHeldCount            0x08005031   Thumb Code    20  tasks.o(i.pvTaskIncrementMutexHeldCount)
    pxPortInitialiseStack                    0x08005049   Thumb Code    24  port.o(i.pxPortInitialiseStack)
    sg90_init                                0x08005065   Thumb Code    20  sg90.o(i.sg90_init)
    sg90_pwm_init                            0x0800507d   Thumb Code   114  sg90.o(i.sg90_pwm_init)
    sg90_turn                                0x080050f9   Thumb Code     8  sg90.o(i.sg90_turn)
    sonar_mm                                 0x08005105   Thumb Code   126  hcsr04.o(i.sonar_mm)
    sonar_val_get                            0x08005191   Thumb Code    56  app.o(i.sonar_val_get)
    start_task                               0x080051d1   Thumb Code    86  os.o(i.start_task)
    task1                                    0x08005265   Thumb Code    40  os.o(i.task1)
    task2                                    0x08005291   Thumb Code    38  os.o(i.task2)
    tcrt_init                                0x080052bd   Thumb Code    74  tcrt.o(i.tcrt_init)
    tcrt_sta                                 0x08005315   Thumb Code    60  tcrt.o(i.tcrt_sta)
    timer1_init                              0x0800535d   Thumb Code   108  timer.o(i.timer1_init)
    timer3_init                              0x080053cd   Thumb Code   108  timer.o(i.timer3_init)
    usart1_init                              0x0800543d   Thumb Code   154  usart.o(i.usart1_init)
    usart2_init                              0x080054e1   Thumb Code   154  usart.o(i.usart2_init)
    usart_printf                             0x08005585   Thumb Code    64  usart.o(i.usart_printf)
    uxListRemove                             0x080055c5   Thumb Code    38  list.o(i.uxListRemove)
    vListInitialise                          0x080055eb   Thumb Code    22  list.o(i.vListInitialise)
    vListInitialiseItem                      0x08005601   Thumb Code     6  list.o(i.vListInitialiseItem)
    vListInsert                              0x08005607   Thumb Code    48  list.o(i.vListInsert)
    vListInsertEnd                           0x08005637   Thumb Code    24  list.o(i.vListInsertEnd)
    vPortEnterCritical                       0x08005651   Thumb Code    50  port.o(i.vPortEnterCritical)
    vPortExitCritical                        0x080056c9   Thumb Code    38  port.o(i.vPortExitCritical)
    vPortFree                                0x08005731   Thumb Code   100  heap_4.o(i.vPortFree)
    vPortSetupTimerInterrupt                 0x080057d1   Thumb Code    32  port.o(i.vPortSetupTimerInterrupt)
    vQueueAddToRegistry                      0x080057f5   Thumb Code    72  queue.o(i.vQueueAddToRegistry)
    vQueueWaitForMessageRestricted           0x08005865   Thumb Code    70  queue.o(i.vQueueWaitForMessageRestricted)
    vTaskDelay                               0x080058ad   Thumb Code    66  tasks.o(i.vTaskDelay)
    vTaskDelete                              0x0800591d   Thumb Code   158  tasks.o(i.vTaskDelete)
    vTaskInternalSetTimeOutState             0x080059f1   Thumb Code    12  tasks.o(i.vTaskInternalSetTimeOutState)
    vTaskMissedYield                         0x08005a01   Thumb Code     8  tasks.o(i.vTaskMissedYield)
    vTaskPlaceOnEventList                    0x08005a0d   Thumb Code    46  tasks.o(i.vTaskPlaceOnEventList)
    vTaskPlaceOnEventListRestricted          0x08005a65   Thumb Code    80  tasks.o(i.vTaskPlaceOnEventListRestricted)
    vTaskPriorityDisinheritAfterTimeout      0x08005add   Thumb Code   186  tasks.o(i.vTaskPriorityDisinheritAfterTimeout)
    vTaskStartScheduler                      0x08005bc5   Thumb Code    92  tasks.o(i.vTaskStartScheduler)
    vTaskSuspendAll                          0x08005c55   Thumb Code    10  tasks.o(i.vTaskSuspendAll)
    vTaskSwitchContext                       0x08005c65   Thumb Code    84  tasks.o(i.vTaskSwitchContext)
    xPortStartScheduler                      0x08005ce5   Thumb Code   168  port.o(i.xPortStartScheduler)
    xPortSysTickHandler                      0x08005dd5   Thumb Code    38  port.o(i.xPortSysTickHandler)
    xQueueCreateMutex                        0x08005e01   Thumb Code    24  queue.o(i.xQueueCreateMutex)
    xQueueGenericCreate                      0x08005e19   Thumb Code    78  queue.o(i.xQueueGenericCreate)
    xQueueGenericReset                       0x08005e8d   Thumb Code   174  queue.o(i.xQueueGenericReset)
    xQueueGenericSend                        0x08005f65   Thumb Code   372  queue.o(i.xQueueGenericSend)
    xQueueReceive                            0x08006101   Thumb Code   296  queue.o(i.xQueueReceive)
    xQueueSemaphoreTake                      0x08006251   Thumb Code   360  queue.o(i.xQueueSemaphoreTake)
    xTaskCheckForTimeOut                     0x080063e1   Thumb Code   134  tasks.o(i.xTaskCheckForTimeOut)
    xTaskCreate                              0x08006491   Thumb Code    96  tasks.o(i.xTaskCreate)
    xTaskGetSchedulerState                   0x080064f1   Thumb Code    24  tasks.o(i.xTaskGetSchedulerState)
    xTaskGetTickCount                        0x0800650d   Thumb Code     6  tasks.o(i.xTaskGetTickCount)
    xTaskIncrementTick                       0x08006519   Thumb Code   292  tasks.o(i.xTaskIncrementTick)
    xTaskPriorityDisinherit                  0x08006669   Thumb Code   166  tasks.o(i.xTaskPriorityDisinherit)
    xTaskPriorityInherit                     0x0800673d   Thumb Code   172  tasks.o(i.xTaskPriorityInherit)
    xTaskRemoveFromEventList                 0x080067f1   Thumb Code   206  tasks.o(i.xTaskRemoveFromEventList)
    xTaskResumeAll                           0x080068f1   Thumb Code   280  tasks.o(i.xTaskResumeAll)
    xTimerCreateTimerTask                    0x08006a3d   Thumb Code    58  timers.o(i.xTimerCreateTimerTask)
    _get_lc_numeric                          0x08006ab1   Thumb Code    44  lc_numeric_c.o(locale$$code)
    _get_lc_ctype                            0x08006add   Thumb Code    44  lc_ctype_c.o(locale$$code)
    __aeabi_d2f                              0x08006b09   Thumb Code     0  d2f.o(x$fpl$d2f)
    _d2f                                     0x08006b09   Thumb Code    98  d2f.o(x$fpl$d2f)
    __fpl_dcheck_NaN1                        0x08006b6d   Thumb Code    10  dcheck1.o(x$fpl$dcheck1)
    __aeabi_ui2d                             0x08006b7d   Thumb Code     0  dflt_clz.o(x$fpl$dfltu)
    _dfltu                                   0x08006b7d   Thumb Code    38  dflt_clz.o(x$fpl$dfltu)
    __aeabi_dmul                             0x08006ba5   Thumb Code     0  dmul.o(x$fpl$dmul)
    _dmul                                    0x08006ba5   Thumb Code   332  dmul.o(x$fpl$dmul)
    __fpl_dnaninf                            0x08006cf9   Thumb Code   156  dnaninf.o(x$fpl$dnaninf)
    __fpl_dretinf                            0x08006d95   Thumb Code    12  dretinf.o(x$fpl$dretinf)
    __aeabi_fadd                             0x08006da1   Thumb Code     0  faddsub_clz.o(x$fpl$fadd)
    _fadd                                    0x08006da1   Thumb Code   196  faddsub_clz.o(x$fpl$fadd)
    __aeabi_f2uiz                            0x08006e65   Thumb Code     0  ffixu.o(x$fpl$ffixu)
    _ffixu                                   0x08006e65   Thumb Code    62  ffixu.o(x$fpl$ffixu)
    __aeabi_ui2f                             0x08006ea5   Thumb Code     0  fflt_clz.o(x$fpl$ffltu)
    _ffltu                                   0x08006ea5   Thumb Code    38  fflt_clz.o(x$fpl$ffltu)
    __aeabi_fmul                             0x08006ecd   Thumb Code     0  fmul.o(x$fpl$fmul)
    _fmul                                    0x08006ecd   Thumb Code   258  fmul.o(x$fpl$fmul)
    __fpl_fnaninf                            0x08006fcf   Thumb Code   140  fnaninf.o(x$fpl$fnaninf)
    __fpl_fretinf                            0x0800705b   Thumb Code    10  fretinf.o(x$fpl$fretinf)
    __aeabi_frsub                            0x08007065   Thumb Code     0  faddsub_clz.o(x$fpl$frsb)
    _frsb                                    0x08007065   Thumb Code    20  faddsub_clz.o(x$fpl$frsb)
    __aeabi_fsub                             0x08007079   Thumb Code     0  faddsub_clz.o(x$fpl$fsub)
    _fsub                                    0x08007079   Thumb Code   234  faddsub_clz.o(x$fpl$fsub)
    _printf_fp_dec                           0x08007163   Thumb Code     4  printf1.o(x$fpl$printf1)
    _printf_fp_hex                           0x08007167   Thumb Code     4  printf2.o(x$fpl$printf2)
    __fpl_return_NaN                         0x0800716b   Thumb Code   100  retnan.o(x$fpl$retnan)
    __ARM_scalbn                             0x080071cf   Thumb Code    92  scalbn.o(x$fpl$scalbn)
    __fpl_cmpreturn                          0x0800722b   Thumb Code    48  trapv.o(x$fpl$trapveneer)
    __I$use$fp                               0x0800725a   Number         0  usenofp.o(x$fpl$usenofp)
    memtblsize                               0x0800725c   Data           8  malloc.o(.constdata)
    memblksize                               0x08007264   Data           8  malloc.o(.constdata)
    memsize                                  0x0800726c   Data           8  malloc.o(.constdata)
    F6x8                                     0x08007296   Data         552  oled.o(.constdata)
    F8X16                                    0x080074be   Data        1520  oled.o(.constdata)
    Region$$Table$$Base                      0x08007bac   Number         0  anon$$obj.o(Region$$Table)
    Region$$Table$$Limit                     0x08007bcc   Number         0  anon$$obj.o(Region$$Table)
    __ctype                                  0x08007bf5   Data           0  lc_ctype_c.o(locale$$data)
    SystemCoreClock                          0x20000014   Data           4  system_stm32f10x.o(.data)
    AHBPrescTable                            0x20000018   Data          16  system_stm32f10x.o(.data)
    StartTask_Handler                        0x20000028   Data           4  os.o(.data)
    Task1Task_Handler                        0x2000002c   Data           4  os.o(.data)
    Task2Task_Handler                        0x20000030   Data           4  os.o(.data)
    mux_sem_handle                           0x20000034   Data           4  os.o(.data)
    g_explor_dir                             0x2000003a   Data           2  app.o(.data)
    g_explor_dir_setp                        0x2000003c   Data           2  app.o(.data)
    drv_ctl                                  0x20000040   Data           4  app.o(.data)
    g_mux_car_sta                            0x20000044   Data           4  app.o(.data)
    g_tcrt                                   0x20000048   Data           5  app.o(.data)
    g_usart1_rx_sta                          0x20000050   Data           2  usart.o(.data)
    g_usart2_rx_sta                          0x20000052   Data           2  usart.o(.data)
    __stdout                                 0x20000054   Data           4  usart.o(.data)
    mallco_dev                               0x20000058   Data          28  malloc.o(.data)
    pxCurrentTCB                             0x20000074   Data           4  tasks.o(.data)
    uxTopUsedPriority                        0x200000a4   Data           4  tasks.o(.data)
    g_ble_len                                0x200000f4   Data           2  ble.o(.data)
    g_time                                   0x200000f8   Data           8  hcsr04.o(.data)
    g_time_end                               0x20000100   Data           8  hcsr04.o(.data)
    sg90_dis                                 0x20000108   Data           2  sg90.o(.data)
    beep_sta                                 0x2000010a   Data           1  beep.o(.data)
    g_car_sta                                0x2000010c   Data          40  app.o(.bss)
    g_usart1_rx_buff                         0x20000134   Data         256  usart.o(.bss)
    g_usart2_rx_buff                         0x20000234   Data         256  usart.o(.bss)
    mem1base                                 0x20000340   Data        5120  malloc.o(.bss)
    mem1mapbase                              0x20001740   Data         320  malloc.o(.bss)
    xQueueRegistry                           0x20001880   Data          64  queue.o(.bss)
    g_ble_cmd                                0x20007fcc   Data          20  ble.o(.bss)
    __libspace_start                         0x20007fe0   Data          96  libspace.o(.bss)
    __temporary_stack_top$libspace           0x20008040   Data           0  libspace.o(.bss)
    mem2base                                 0x68000000   Data          32  malloc.o(.ARM.__AT_0x68000000)
    mem2mapbase                              0x68000020   Data           2  malloc.o(.ARM.__AT_0x68000020)



==============================================================================

Memory Map of the image

  Image Entry point : 0x08000311

  Load Region LR_1 (Base: 0x08000000, Size: 0x00007e04, Max: 0xffffffff, ABSOLUTE)

    Execution Region ER_RO (Exec base: 0x08000000, Load base: 0x08000000, Size: 0x00007cf8, Max: 0xffffffff, ABSOLUTE)

    Exec Addr    Load Addr    Size         Type   Attr      Idx    E Section Name        Object

    0x08000000   0x08000000   0x00000130   Data   RO           19    RESET               startup_stm32f10x_hd.o
    0x08000130   0x08000130   0x00000008   Code   RO         4159  * !!!main             c_w.l(__main.o)
    0x08000138   0x08000138   0x00000034   Code   RO         4510    !!!scatter          c_w.l(__scatter.o)
    0x0800016c   0x0800016c   0x0000001a   Code   RO         4512    !!handler_copy      c_w.l(__scatter_copy.o)
    0x08000186   0x08000186   0x00000002   PAD
    0x08000188   0x08000188   0x0000001c   Code   RO         4514    !!handler_zi        c_w.l(__scatter_zi.o)
    0x080001a4   0x080001a4   0x00000000   Code   RO         4138    .ARM.Collect$$_printf_percent$$00000000  c_w.l(_printf_percent.o)
    0x080001a4   0x080001a4   0x00000006   Code   RO         4252    .ARM.Collect$$_printf_percent$$00000001  c_w.l(_printf_n.o)
    0x080001aa   0x080001aa   0x00000006   Code   RO         4254    .ARM.Collect$$_printf_percent$$00000002  c_w.l(_printf_p.o)
    0x080001b0   0x080001b0   0x00000006   Code   RO         4257    .ARM.Collect$$_printf_percent$$00000003  c_w.l(_printf_f.o)
    0x080001b6   0x080001b6   0x00000006   Code   RO         4258    .ARM.Collect$$_printf_percent$$00000004  c_w.l(_printf_e.o)
    0x080001bc   0x080001bc   0x00000006   Code   RO         4259    .ARM.Collect$$_printf_percent$$00000005  c_w.l(_printf_g.o)
    0x080001c2   0x080001c2   0x00000006   Code   RO         4260    .ARM.Collect$$_printf_percent$$00000006  c_w.l(_printf_a.o)
    0x080001c8   0x080001c8   0x0000000a   Code   RO         4265    .ARM.Collect$$_printf_percent$$00000007  c_w.l(_printf_ll.o)
    0x080001d2   0x080001d2   0x00000006   Code   RO         4256    .ARM.Collect$$_printf_percent$$00000008  c_w.l(_printf_i.o)
    0x080001d8   0x080001d8   0x00000006   Code   RO         4136    .ARM.Collect$$_printf_percent$$00000009  c_w.l(_printf_d.o)
    0x080001de   0x080001de   0x00000006   Code   RO         4137    .ARM.Collect$$_printf_percent$$0000000A  c_w.l(_printf_u.o)
    0x080001e4   0x080001e4   0x00000006   Code   RO         4255    .ARM.Collect$$_printf_percent$$0000000B  c_w.l(_printf_o.o)
    0x080001ea   0x080001ea   0x00000006   Code   RO         4253    .ARM.Collect$$_printf_percent$$0000000C  c_w.l(_printf_x.o)
    0x080001f0   0x080001f0   0x00000006   Code   RO         4262    .ARM.Collect$$_printf_percent$$0000000D  c_w.l(_printf_lli.o)
    0x080001f6   0x080001f6   0x00000006   Code   RO         4263    .ARM.Collect$$_printf_percent$$0000000E  c_w.l(_printf_lld.o)
    0x080001fc   0x080001fc   0x00000006   Code   RO         4264    .ARM.Collect$$_printf_percent$$0000000F  c_w.l(_printf_llu.o)
    0x08000202   0x08000202   0x00000006   Code   RO         4269    .ARM.Collect$$_printf_percent$$00000010  c_w.l(_printf_llo.o)
    0x08000208   0x08000208   0x00000006   Code   RO         4270    .ARM.Collect$$_printf_percent$$00000011  c_w.l(_printf_llx.o)
    0x0800020e   0x0800020e   0x0000000a   Code   RO         4266    .ARM.Collect$$_printf_percent$$00000012  c_w.l(_printf_l.o)
    0x08000218   0x08000218   0x00000006   Code   RO         4134    .ARM.Collect$$_printf_percent$$00000013  c_w.l(_printf_c.o)
    0x0800021e   0x0800021e   0x00000006   Code   RO         4135    .ARM.Collect$$_printf_percent$$00000014  c_w.l(_printf_s.o)
    0x08000224   0x08000224   0x00000006   Code   RO         4267    .ARM.Collect$$_printf_percent$$00000015  c_w.l(_printf_lc.o)
    0x0800022a   0x0800022a   0x00000006   Code   RO         4268    .ARM.Collect$$_printf_percent$$00000016  c_w.l(_printf_ls.o)
    0x08000230   0x08000230   0x00000004   Code   RO         4261    .ARM.Collect$$_printf_percent$$00000017  c_w.l(_printf_percent_end.o)
    0x08000234   0x08000234   0x00000002   Code   RO         4378    .ARM.Collect$$libinit$$00000000  c_w.l(libinit.o)
    0x08000236   0x08000236   0x00000000   Code   RO         4402    .ARM.Collect$$libinit$$00000002  c_w.l(libinit2.o)
    0x08000236   0x08000236   0x00000000   Code   RO         4404    .ARM.Collect$$libinit$$00000004  c_w.l(libinit2.o)
    0x08000236   0x08000236   0x00000000   Code   RO         4407    .ARM.Collect$$libinit$$0000000A  c_w.l(libinit2.o)
    0x08000236   0x08000236   0x00000000   Code   RO         4409    .ARM.Collect$$libinit$$0000000C  c_w.l(libinit2.o)
    0x08000236   0x08000236   0x00000000   Code   RO         4411    .ARM.Collect$$libinit$$0000000E  c_w.l(libinit2.o)
    0x08000236   0x08000236   0x00000006   Code   RO         4412    .ARM.Collect$$libinit$$0000000F  c_w.l(libinit2.o)
    0x0800023c   0x0800023c   0x00000000   Code   RO         4414    .ARM.Collect$$libinit$$00000011  c_w.l(libinit2.o)
    0x0800023c   0x0800023c   0x0000000c   Code   RO         4415    .ARM.Collect$$libinit$$00000012  c_w.l(libinit2.o)
    0x08000248   0x08000248   0x00000000   Code   RO         4416    .ARM.Collect$$libinit$$00000013  c_w.l(libinit2.o)
    0x08000248   0x08000248   0x00000000   Code   RO         4418    .ARM.Collect$$libinit$$00000015  c_w.l(libinit2.o)
    0x08000248   0x08000248   0x0000000a   Code   RO         4419    .ARM.Collect$$libinit$$00000016  c_w.l(libinit2.o)
    0x08000252   0x08000252   0x00000000   Code   RO         4420    .ARM.Collect$$libinit$$00000017  c_w.l(libinit2.o)
    0x08000252   0x08000252   0x00000000   Code   RO         4422    .ARM.Collect$$libinit$$00000019  c_w.l(libinit2.o)
    0x08000252   0x08000252   0x00000000   Code   RO         4424    .ARM.Collect$$libinit$$0000001B  c_w.l(libinit2.o)
    0x08000252   0x08000252   0x00000000   Code   RO         4426    .ARM.Collect$$libinit$$0000001D  c_w.l(libinit2.o)
    0x08000252   0x08000252   0x00000000   Code   RO         4428    .ARM.Collect$$libinit$$0000001F  c_w.l(libinit2.o)
    0x08000252   0x08000252   0x00000000   Code   RO         4430    .ARM.Collect$$libinit$$00000021  c_w.l(libinit2.o)
    0x08000252   0x08000252   0x00000000   Code   RO         4432    .ARM.Collect$$libinit$$00000023  c_w.l(libinit2.o)
    0x08000252   0x08000252   0x00000000   Code   RO         4434    .ARM.Collect$$libinit$$00000025  c_w.l(libinit2.o)
    0x08000252   0x08000252   0x00000000   Code   RO         4438    .ARM.Collect$$libinit$$0000002C  c_w.l(libinit2.o)
    0x08000252   0x08000252   0x00000000   Code   RO         4440    .ARM.Collect$$libinit$$0000002E  c_w.l(libinit2.o)
    0x08000252   0x08000252   0x00000000   Code   RO         4442    .ARM.Collect$$libinit$$00000030  c_w.l(libinit2.o)
    0x08000252   0x08000252   0x00000000   Code   RO         4444    .ARM.Collect$$libinit$$00000032  c_w.l(libinit2.o)
    0x08000252   0x08000252   0x00000002   Code   RO         4445    .ARM.Collect$$libinit$$00000033  c_w.l(libinit2.o)
    0x08000254   0x08000254   0x00000002   Code   RO         4469    .ARM.Collect$$libshutdown$$00000000  c_w.l(libshutdown.o)
    0x08000256   0x08000256   0x00000000   Code   RO         4493    .ARM.Collect$$libshutdown$$00000002  c_w.l(libshutdown2.o)
    0x08000256   0x08000256   0x00000000   Code   RO         4495    .ARM.Collect$$libshutdown$$00000004  c_w.l(libshutdown2.o)
    0x08000256   0x08000256   0x00000000   Code   RO         4498    .ARM.Collect$$libshutdown$$00000007  c_w.l(libshutdown2.o)
    0x08000256   0x08000256   0x00000000   Code   RO         4501    .ARM.Collect$$libshutdown$$0000000A  c_w.l(libshutdown2.o)
    0x08000256   0x08000256   0x00000000   Code   RO         4503    .ARM.Collect$$libshutdown$$0000000C  c_w.l(libshutdown2.o)
    0x08000256   0x08000256   0x00000000   Code   RO         4506    .ARM.Collect$$libshutdown$$0000000F  c_w.l(libshutdown2.o)
    0x08000256   0x08000256   0x00000002   Code   RO         4507    .ARM.Collect$$libshutdown$$00000010  c_w.l(libshutdown2.o)
    0x08000258   0x08000258   0x00000000   Code   RO         4197    .ARM.Collect$$rtentry$$00000000  c_w.l(__rtentry.o)
    0x08000258   0x08000258   0x00000000   Code   RO         4293    .ARM.Collect$$rtentry$$00000002  c_w.l(__rtentry2.o)
    0x08000258   0x08000258   0x00000006   Code   RO         4305    .ARM.Collect$$rtentry$$00000004  c_w.l(__rtentry4.o)
    0x0800025e   0x0800025e   0x00000000   Code   RO         4295    .ARM.Collect$$rtentry$$00000009  c_w.l(__rtentry2.o)
    0x0800025e   0x0800025e   0x00000004   Code   RO         4296    .ARM.Collect$$rtentry$$0000000A  c_w.l(__rtentry2.o)
    0x08000262   0x08000262   0x00000000   Code   RO         4298    .ARM.Collect$$rtentry$$0000000C  c_w.l(__rtentry2.o)
    0x08000262   0x08000262   0x00000008   Code   RO         4299    .ARM.Collect$$rtentry$$0000000D  c_w.l(__rtentry2.o)
    0x0800026a   0x0800026a   0x00000002   Code   RO         4388    .ARM.Collect$$rtexit$$00000000  c_w.l(rtexit.o)
    0x0800026c   0x0800026c   0x00000000   Code   RO         4447    .ARM.Collect$$rtexit$$00000002  c_w.l(rtexit2.o)
    0x0800026c   0x0800026c   0x00000004   Code   RO         4448    .ARM.Collect$$rtexit$$00000003  c_w.l(rtexit2.o)
    0x08000270   0x08000270   0x00000006   Code   RO         4449    .ARM.Collect$$rtexit$$00000004  c_w.l(rtexit2.o)
    0x08000276   0x08000276   0x00000002   PAD
    0x08000278   0x08000278   0x00000096   Code   RO         3599    .emb_text           port.o
    0x0800030e   0x0800030e   0x00000002   PAD
    0x08000310   0x08000310   0x00000040   Code   RO           20  * .text               startup_stm32f10x_hd.o
    0x08000350   0x08000350   0x00000002   Code   RO         4094    .text               c_w.l(use_no_semi_2.o)
    0x08000352   0x08000352   0x000000ee   Code   RO         4096    .text               c_w.l(lludivv7m.o)
    0x08000440   0x08000440   0x00000034   Code   RO         4098    .text               c_w.l(vsnprintf.o)
    0x08000474   0x08000474   0x00000018   Code   RO         4100    .text               c_w.l(__2printf.o)
    0x0800048c   0x0800048c   0x00000052   Code   RO         4110    .text               c_w.l(_printf_str.o)
    0x080004de   0x080004de   0x00000002   PAD
    0x080004e0   0x080004e0   0x00000078   Code   RO         4112    .text               c_w.l(_printf_dec.o)
    0x08000558   0x08000558   0x00000188   Code   RO         4131    .text               c_w.l(__printf_flags_ss_wp.o)
    0x080006e0   0x080006e0   0x00000024   Code   RO         4139    .text               c_w.l(strstr.o)
    0x08000704   0x08000704   0x00000018   Code   RO         4145    .text               c_w.l(strcat.o)
    0x0800071c   0x0800071c   0x0000008a   Code   RO         4147    .text               c_w.l(rt_memcpy_v6.o)
    0x080007a6   0x080007a6   0x00000064   Code   RO         4149    .text               c_w.l(rt_memcpy_w.o)
    0x0800080a   0x0800080a   0x00000010   Code   RO         4153    .text               c_w.l(aeabi_memset.o)
    0x0800081a   0x0800081a   0x0000004e   Code   RO         4155    .text               c_w.l(rt_memclr_w.o)
    0x08000868   0x08000868   0x00000006   Code   RO         4157    .text               c_w.l(heapauxi.o)
    0x0800086e   0x0800086e   0x00000002   Code   RO         4195    .text               c_w.l(use_no_semi.o)
    0x08000870   0x08000870   0x0000004e   Code   RO         4202    .text               c_w.l(_printf_pad.o)
    0x080008be   0x080008be   0x00000024   Code   RO         4204    .text               c_w.l(_printf_truncate.o)
    0x080008e2   0x080008e2   0x000000b2   Code   RO         4206    .text               c_w.l(_printf_intcommon.o)
    0x08000994   0x08000994   0x00000028   Code   RO         4208    .text               c_w.l(_printf_charcount.o)
    0x080009bc   0x080009bc   0x00000030   Code   RO         4210    .text               c_w.l(_printf_char_common.o)
    0x080009ec   0x080009ec   0x0000000a   Code   RO         4212    .text               c_w.l(_sputc.o)
    0x080009f6   0x080009f6   0x00000010   Code   RO         4214    .text               c_w.l(_snputc.o)
    0x08000a06   0x08000a06   0x0000002c   Code   RO         4216    .text               c_w.l(_printf_char.o)
    0x08000a32   0x08000a32   0x00000002   PAD
    0x08000a34   0x08000a34   0x00000024   Code   RO         4218    .text               c_w.l(_printf_char_file.o)
    0x08000a58   0x08000a58   0x000000bc   Code   RO         4220    .text               c_w.l(_printf_wctomb.o)
    0x08000b14   0x08000b14   0x0000007c   Code   RO         4223    .text               c_w.l(_printf_longlong_dec.o)
    0x08000b90   0x08000b90   0x00000070   Code   RO         4229    .text               c_w.l(_printf_oct_int_ll.o)
    0x08000c00   0x08000c00   0x00000094   Code   RO         4249    .text               c_w.l(_printf_hex_int_ll_ptr.o)
    0x08000c94   0x08000c94   0x00000044   Code   RO         4271    .text               c_w.l(rt_memclr.o)
    0x08000cd8   0x08000cd8   0x0000008a   Code   RO         4309    .text               c_w.l(lludiv10.o)
    0x08000d62   0x08000d62   0x0000041e   Code   RO         4311    .text               c_w.l(_printf_fp_dec.o)
    0x08001180   0x08001180   0x000002fc   Code   RO         4313    .text               c_w.l(_printf_fp_hex.o)
    0x0800147c   0x0800147c   0x0000002c   Code   RO         4318    .text               c_w.l(_printf_wchar.o)
    0x080014a8   0x080014a8   0x00000008   Code   RO         4320    .text               c_w.l(ferror.o)
    0x080014b0   0x080014b0   0x00000040   Code   RO         4324    .text               c_w.l(_wcrtomb.o)
    0x080014f0   0x080014f0   0x0000004a   Code   RO         4328    .text               c_w.l(sys_stackheap_outer.o)
    0x0800153a   0x0800153a   0x00000002   PAD
    0x0800153c   0x0800153c   0x00000010   Code   RO         4330    .text               c_w.l(rt_ctype_table.o)
    0x0800154c   0x0800154c   0x00000008   Code   RO         4335    .text               c_w.l(rt_locale_intlibspace.o)
    0x08001554   0x08001554   0x00000080   Code   RO         4337    .text               c_w.l(_printf_fp_infnan.o)
    0x080015d4   0x080015d4   0x000000e4   Code   RO         4339    .text               c_w.l(bigflt0.o)
    0x080016b8   0x080016b8   0x00000012   Code   RO         4367    .text               c_w.l(exit.o)
    0x080016ca   0x080016ca   0x00000002   PAD
    0x080016cc   0x080016cc   0x00000008   Code   RO         4385    .text               c_w.l(libspace.o)
    0x080016d4   0x080016d4   0x00000080   Code   RO         4399    .text               c_w.l(strcmpv7m.o)
    0x08001754   0x08001754   0x0000003e   Code   RO         4342    CL$$btod_d2e        c_w.l(btod.o)
    0x08001792   0x08001792   0x00000046   Code   RO         4344    CL$$btod_d2e_denorm_low  c_w.l(btod.o)
    0x080017d8   0x080017d8   0x00000060   Code   RO         4343    CL$$btod_d2e_norm_op1  c_w.l(btod.o)
    0x08001838   0x08001838   0x00000338   Code   RO         4352    CL$$btod_div_common  c_w.l(btod.o)
    0x08001b70   0x08001b70   0x000000dc   Code   RO         4349    CL$$btod_e2e        c_w.l(btod.o)
    0x08001c4c   0x08001c4c   0x0000002a   Code   RO         4346    CL$$btod_ediv       c_w.l(btod.o)
    0x08001c76   0x08001c76   0x0000002a   Code   RO         4345    CL$$btod_emul       c_w.l(btod.o)
    0x08001ca0   0x08001ca0   0x00000244   Code   RO         4351    CL$$btod_mult_common  c_w.l(btod.o)
    0x08001ee4   0x08001ee4   0x00000018   Code   RO         1395    i.ADC_Cmd           stm32f10x_adc.o
    0x08001efc   0x08001efc   0x00000064   Code   RO         1397    i.ADC_DeInit        stm32f10x_adc.o
    0x08001f60   0x08001f60   0x0000000e   Code   RO         1403    i.ADC_GetCalibrationStatus  stm32f10x_adc.o
    0x08001f6e   0x08001f6e   0x00000006   Code   RO         1404    i.ADC_GetConversionValue  stm32f10x_adc.o
    0x08001f74   0x08001f74   0x0000000e   Code   RO         1406    i.ADC_GetFlagStatus  stm32f10x_adc.o
    0x08001f82   0x08001f82   0x0000000e   Code   RO         1409    i.ADC_GetResetCalibrationStatus  stm32f10x_adc.o
    0x08001f90   0x08001f90   0x00000048   Code   RO         1413    i.ADC_Init          stm32f10x_adc.o
    0x08001fd8   0x08001fd8   0x00000074   Code   RO         1417    i.ADC_RegularChannelConfig  stm32f10x_adc.o
    0x0800204c   0x0800204c   0x0000000a   Code   RO         1418    i.ADC_ResetCalibration  stm32f10x_adc.o
    0x08002056   0x08002056   0x00000018   Code   RO         1420    i.ADC_SoftwareStartConvCmd  stm32f10x_adc.o
    0x0800206e   0x0800206e   0x0000000a   Code   RO         1422    i.ADC_StartCalibration  stm32f10x_adc.o
    0x08002078   0x08002078   0x00000002   Code   RO         1653    i.BusFault_Handler  stm32f10x_it.o
    0x0800207a   0x0800207a   0x00000002   Code   RO         1654    i.DebugMon_Handler  stm32f10x_it.o
    0x0800207c   0x0800207c   0x000000a6   Code   RO          149    i.GPIO_Init         stm32f10x_gpio.o
    0x08002122   0x08002122   0x0000000e   Code   RO          153    i.GPIO_ReadInputDataBit  stm32f10x_gpio.o
    0x08002130   0x08002130   0x00000004   Code   RO          156    i.GPIO_ResetBits    stm32f10x_gpio.o
    0x08002134   0x08002134   0x00000004   Code   RO          157    i.GPIO_SetBits      stm32f10x_gpio.o
    0x08002138   0x08002138   0x0000000c   Code   RO          160    i.GPIO_WriteBit     stm32f10x_gpio.o
    0x08002144   0x08002144   0x00000002   Code   RO         1655    i.HardFault_Handler  stm32f10x_it.o
    0x08002146   0x08002146   0x00000018   Code   RO          260    i.I2C_CheckEvent    stm32f10x_i2c.o
    0x0800215e   0x0800215e   0x00000018   Code   RO          263    i.I2C_Cmd           stm32f10x_i2c.o
    0x08002176   0x08002176   0x00000002   PAD
    0x08002178   0x08002178   0x00000038   Code   RO          266    i.I2C_DeInit        stm32f10x_i2c.o
    0x080021b0   0x080021b0   0x00000018   Code   RO          270    i.I2C_GenerateSTART  stm32f10x_i2c.o
    0x080021c8   0x080021c8   0x00000018   Code   RO          271    i.I2C_GenerateSTOP  stm32f10x_i2c.o
    0x080021e0   0x080021e0   0x00000032   Code   RO          272    i.I2C_GetFlagStatus  stm32f10x_i2c.o
    0x08002212   0x08002212   0x00000002   PAD
    0x08002214   0x08002214   0x000000c0   Code   RO          277    i.I2C_Init          stm32f10x_i2c.o
    0x080022d4   0x080022d4   0x00000012   Code   RO          284    i.I2C_Send7bitAddress  stm32f10x_i2c.o
    0x080022e6   0x080022e6   0x00000004   Code   RO          285    i.I2C_SendData      stm32f10x_i2c.o
    0x080022ea   0x080022ea   0x00000002   PAD
    0x080022ec   0x080022ec   0x00000010   Code   RO         1611    i.IWDG_Enable       stm32f10x_iwdg.o
    0x080022fc   0x080022fc   0x00000010   Code   RO         1613    i.IWDG_ReloadCounter  stm32f10x_iwdg.o
    0x0800230c   0x0800230c   0x0000000c   Code   RO         1614    i.IWDG_SetPrescaler  stm32f10x_iwdg.o
    0x08002318   0x08002318   0x0000000c   Code   RO         1615    i.IWDG_SetReload    stm32f10x_iwdg.o
    0x08002324   0x08002324   0x0000000c   Code   RO         1616    i.IWDG_WriteAccessCmd  stm32f10x_iwdg.o
    0x08002330   0x08002330   0x00000028   Code   RO         2107    i.JTAG_Set          sys.o
    0x08002358   0x08002358   0x00000002   Code   RO         1656    i.MemManage_Handler  stm32f10x_it.o
    0x0800235a   0x0800235a   0x00000002   Code   RO         1657    i.NMI_Handler       stm32f10x_it.o
    0x0800235c   0x0800235c   0x00000064   Code   RO           24    i.NVIC_Init         misc.o
    0x080023c0   0x080023c0   0x00000014   Code   RO           25    i.NVIC_PriorityGroupConfig  misc.o
    0x080023d4   0x080023d4   0x00000014   Code   RO          461    i.RCC_ADCCLKConfig  stm32f10x_rcc.o
    0x080023e8   0x080023e8   0x0000001c   Code   RO          463    i.RCC_APB1PeriphClockCmd  stm32f10x_rcc.o
    0x08002404   0x08002404   0x0000001c   Code   RO          464    i.RCC_APB1PeriphResetCmd  stm32f10x_rcc.o
    0x08002420   0x08002420   0x0000001c   Code   RO          465    i.RCC_APB2PeriphClockCmd  stm32f10x_rcc.o
    0x0800243c   0x0800243c   0x0000001c   Code   RO          466    i.RCC_APB2PeriphResetCmd  stm32f10x_rcc.o
    0x08002458   0x08002458   0x000000ac   Code   RO          473    i.RCC_GetClocksFreq  stm32f10x_rcc.o
    0x08002504   0x08002504   0x00000004   Code   RO         1727    i.SetSysClock       system_stm32f10x.o
    0x08002508   0x08002508   0x000000b0   Code   RO         1728    i.SetSysClockTo72   system_stm32f10x.o
    0x080025b8   0x080025b8   0x0000001c   Code   RO           28    i.SysTick_CLKSourceConfig  misc.o
    0x080025d4   0x080025d4   0x00000014   Code   RO         2072    i.SysTick_Handler   delay.o
    0x080025e8   0x080025e8   0x00000050   Code   RO         1730    i.SystemInit        system_stm32f10x.o
    0x08002638   0x08002638   0x00000034   Code   RO         3738    i.TIM1_UP_IRQHandler  hcsr04.o
    0x0800266c   0x0800266c   0x00000078   Code   RO         1914    i.TIM3_IRQHandler   app.o
    0x080026e4   0x080026e4   0x00000018   Code   RO          665    i.TIM_ARRPreloadConfig  stm32f10x_tim.o
    0x080026fc   0x080026fc   0x00000006   Code   RO          671    i.TIM_ClearFlag     stm32f10x_tim.o
    0x08002702   0x08002702   0x00000006   Code   RO          672    i.TIM_ClearITPendingBit  stm32f10x_tim.o
    0x08002708   0x08002708   0x00000018   Code   RO          677    i.TIM_Cmd           stm32f10x_tim.o
    0x08002720   0x08002720   0x00000018   Code   RO          698    i.TIM_GetITStatus   stm32f10x_tim.o
    0x08002738   0x08002738   0x00000014   Code   RO          702    i.TIM_ITConfig      stm32f10x_tim.o
    0x0800274c   0x0800274c   0x0000000a   Code   RO          704    i.TIM_InternalClockConfig  stm32f10x_tim.o
    0x08002756   0x08002756   0x00000002   PAD
    0x08002758   0x08002758   0x00000088   Code   RO          706    i.TIM_OC1Init       stm32f10x_tim.o
    0x080027e0   0x080027e0   0x0000000c   Code   RO          708    i.TIM_OC1PolarityConfig  stm32f10x_tim.o
    0x080027ec   0x080027ec   0x00000088   Code   RO          711    i.TIM_OC2Init       stm32f10x_tim.o
    0x08002874   0x08002874   0x00000014   Code   RO          713    i.TIM_OC2PolarityConfig  stm32f10x_tim.o
    0x08002888   0x08002888   0x00000084   Code   RO          716    i.TIM_OC3Init       stm32f10x_tim.o
    0x0800290c   0x0800290c   0x00000014   Code   RO          718    i.TIM_OC3PolarityConfig  stm32f10x_tim.o
    0x08002920   0x08002920   0x00000068   Code   RO          721    i.TIM_OC4Init       stm32f10x_tim.o
    0x08002988   0x08002988   0x00000014   Code   RO          722    i.TIM_OC4PolarityConfig  stm32f10x_tim.o
    0x0800299c   0x0800299c   0x00000004   Code   RO          738    i.TIM_SetCompare1   stm32f10x_tim.o
    0x080029a0   0x080029a0   0x00000004   Code   RO          739    i.TIM_SetCompare2   stm32f10x_tim.o
    0x080029a4   0x080029a4   0x00000004   Code   RO          740    i.TIM_SetCompare3   stm32f10x_tim.o
    0x080029a8   0x080029a8   0x00000006   Code   RO          741    i.TIM_SetCompare4   stm32f10x_tim.o
    0x080029ae   0x080029ae   0x00000002   PAD
    0x080029b0   0x080029b0   0x0000009c   Code   RO          748    i.TIM_TimeBaseInit  stm32f10x_tim.o
    0x08002a4c   0x08002a4c   0x00000068   Code   RO         2144    i.USART1_IRQHandler  usart.o
    0x08002ab4   0x08002ab4   0x00000068   Code   RO         2145    i.USART2_IRQHandler  usart.o
    0x08002b1c   0x08002b1c   0x00000018   Code   RO         1213    i.USART_Cmd         stm32f10x_usart.o
    0x08002b34   0x08002b34   0x0000000e   Code   RO         1216    i.USART_GetFlagStatus  stm32f10x_usart.o
    0x08002b42   0x08002b42   0x00000040   Code   RO         1217    i.USART_GetITStatus  stm32f10x_usart.o
    0x08002b82   0x08002b82   0x00000036   Code   RO         1219    i.USART_ITConfig    stm32f10x_usart.o
    0x08002bb8   0x08002bb8   0x000000bc   Code   RO         1220    i.USART_Init        stm32f10x_usart.o
    0x08002c74   0x08002c74   0x00000008   Code   RO         1227    i.USART_ReceiveData  stm32f10x_usart.o
    0x08002c7c   0x08002c7c   0x00000008   Code   RO         1230    i.USART_SendData    stm32f10x_usart.o
    0x08002c84   0x08002c84   0x00000002   Code   RO         1658    i.UsageFault_Handler  stm32f10x_it.o
    0x08002c86   0x08002c86   0x00000028   Code   RO         4383    i.__ARM_fpclassify  m_ws.l(fpclassify.o)
    0x08002cae   0x08002cae   0x0000000e   Code   RO         4124    i._is_digit         c_w.l(__printf_wp.o)
    0x08002cbc   0x08002cbc   0x00000002   Code   RO         2147    i._sys_exit         usart.o
    0x08002cbe   0x08002cbe   0x00000002   PAD
    0x08002cc0   0x08002cc0   0x00000034   Code   RO         2232    i.adc_get           adc.o
    0x08002cf4   0x08002cf4   0x0000002e   Code   RO         2233    i.adc_get_avg       adc.o
    0x08002d22   0x08002d22   0x00000002   PAD
    0x08002d24   0x08002d24   0x00000088   Code   RO         2234    i.adc_init          adc.o
    0x08002dac   0x08002dac   0x00000078   Code   RO         1915    i.bat_val_get       app.o
    0x08002e24   0x08002e24   0x00000040   Code   RO         4065    i.beep_init         beep.o
    0x08002e64   0x08002e64   0x00000028   Code   RO         4066    i.beep_overturn     beep.o
    0x08002e8c   0x08002e8c   0x0000005c   Code   RO         3676    i.ble_check_cmd     ble.o
    0x08002ee8   0x08002ee8   0x0000000c   Code   RO         3677    i.ble_check_data    ble.o
    0x08002ef4   0x08002ef4   0x00000028   Code   RO         3678    i.ble_clear_data    ble.o
    0x08002f1c   0x08002f1c   0x000001fc   Code   RO         1916    i.ble_cmd_get       app.o
    0x08003118   0x08003118   0x0000003c   Code   RO         3679    i.ble_get_data      ble.o
    0x08003154   0x08003154   0x0000010c   Code   RO         3680    i.ble_init          ble.o
    0x08003260   0x08003260   0x00000030   Code   RO         3681    i.ble_send_cmd      ble.o
    0x08003290   0x08003290   0x00000018   Code   RO         3814    i.car_back          motor.o
    0x080032a8   0x080032a8   0x00000028   Code   RO         1917    i.car_dat_loop      app.o
    0x080032d0   0x080032d0   0x0000007c   Code   RO         1918    i.car_fun_avoid     app.o
    0x0800334c   0x0800334c   0x000000d8   Code   RO         1919    i.car_fun_debug     app.o
    0x08003424   0x08003424   0x00000168   Code   RO         1920    i.car_fun_dis       app.o
    0x0800358c   0x0800358c   0x0000007c   Code   RO         1921    i.car_fun_follow    app.o
    0x08003608   0x08003608   0x00000068   Code   RO         1922    i.car_fun_loop      app.o
    0x08003670   0x08003670   0x00000058   Code   RO         1923    i.car_fun_magic_hand  app.o
    0x080036c8   0x080036c8   0x00000080   Code   RO         1925    i.car_fun_telecontrol  app.o
    0x08003748   0x08003748   0x0000002c   Code   RO         1926    i.car_fun_track     app.o
    0x08003774   0x08003774   0x00000018   Code   RO         3815    i.car_go            motor.o
    0x0800378c   0x0800378c   0x000000ec   Code   RO         1927    i.car_init          app.o
    0x08003878   0x08003878   0x00000018   Code   RO         3817    i.car_left          motor.o
    0x08003890   0x08003890   0x00000018   Code   RO         3818    i.car_right         motor.o
    0x080038a8   0x080038a8   0x00000018   Code   RO         3819    i.car_stop          motor.o
    0x080038c0   0x080038c0   0x00000020   Code   RO         2073    i.delay_init        delay.o
    0x080038e0   0x080038e0   0x0000001a   Code   RO         2074    i.delay_ms          delay.o
    0x080038fa   0x080038fa   0x00000002   PAD
    0x080038fc   0x080038fc   0x00000038   Code   RO         2075    i.delay_us          delay.o
    0x08003934   0x08003934   0x000000f0   Code   RO         1928    i.drv_init          app.o
    0x08003a24   0x08003a24   0x00000078   Code   RO         1929    i.drv_reg           app.o
    0x08003a9c   0x08003a9c   0x00000070   Code   RO         1930    i.drv_run           app.o
    0x08003b0c   0x08003b0c   0x0000006c   Code   RO         1932    i.explor_dir_get    app.o
    0x08003b78   0x08003b78   0x00000018   Code   RO         2149    i.fputc             usart.o
    0x08003b90   0x08003b90   0x00000034   Code   RO         1881    i.freertos_demo     os.o
    0x08003bc4   0x08003bc4   0x0000004c   Code   RO         3739    i.hcsr04_init       hcsr04.o
    0x08003c10   0x08003c10   0x0000007c   Code   RO         2292    i.i2c2_init         iic.o
    0x08003c8c   0x08003c8c   0x0000008c   Code   RO         2293    i.i2c_write_byte    iic.o
    0x08003d18   0x08003d18   0x00000008   Code   RO         2294    i.i2c_write_cmd     iic.o
    0x08003d20   0x08003d20   0x00000008   Code   RO         2295    i.i2c_write_data    iic.o
    0x08003d28   0x08003d28   0x00000004   Code   RO         2274    i.iwdg_feed         iwdg.o
    0x08003d2c   0x08003d2c   0x00000026   Code   RO         2275    i.iwdg_init         iwdg.o
    0x08003d52   0x08003d52   0x00000014   Code   RO         1761    i.main              main.o
    0x08003d66   0x08003d66   0x00000002   PAD
    0x08003d68   0x08003d68   0x0000002c   Code   RO         3820    i.motor_gpio_cfg    motor.o
    0x08003d94   0x08003d94   0x00000020   Code   RO         3821    i.motor_gpio_mode   motor.o
    0x08003db4   0x08003db4   0x00000038   Code   RO         3822    i.motor_init        motor.o
    0x08003dec   0x08003dec   0x00000020   Code   RO         3823    i.motor_l_pwm_out   motor.o
    0x08003e0c   0x08003e0c   0x000000bc   Code   RO         3824    i.motor_left        motor.o
    0x08003ec8   0x08003ec8   0x0000009c   Code   RO         3825    i.motor_pwm_init    motor.o
    0x08003f64   0x08003f64   0x00000020   Code   RO         3826    i.motor_r_pwm_out   motor.o
    0x08003f84   0x08003f84   0x000000c4   Code   RO         3827    i.motor_right       motor.o
    0x08004048   0x08004048   0x00000018   Code   RO         2322    i.my_free           malloc.o
    0x08004060   0x08004060   0x00000024   Code   RO         2323    i.my_malloc         malloc.o
    0x08004084   0x08004084   0x00000058   Code   RO         2324    i.my_mem_free       malloc.o
    0x080040dc   0x080040dc   0x0000003c   Code   RO         2325    i.my_mem_init       malloc.o
    0x08004118   0x08004118   0x0000009c   Code   RO         2326    i.my_mem_malloc     malloc.o
    0x080041b4   0x080041b4   0x00000038   Code   RO         2327    i.my_mem_perused    malloc.o
    0x080041ec   0x080041ec   0x00000012   Code   RO         2328    i.my_memcpy         malloc.o
    0x080041fe   0x080041fe   0x0000000e   Code   RO         2329    i.my_memset         malloc.o
    0x0800420c   0x0800420c   0x00000044   Code   RO         2330    i.my_realloc        malloc.o
    0x08004250   0x08004250   0x00000008   Code   RO         2109    i.nvic_cfg          sys.o
    0x08004258   0x08004258   0x00000056   Code   RO         3982    i.oled_clear_line   oled.o
    0x080042ae   0x080042ae   0x00000036   Code   RO         3985    i.oled_fill         oled.o
    0x080042e4   0x080042e4   0x000000be   Code   RO         3986    i.oled_init         oled.o
    0x080043a2   0x080043a2   0x00000010   Code   RO         3987    i.oled_pow          oled.o
    0x080043b2   0x080043b2   0x00000026   Code   RO         3988    i.oled_set_pos      oled.o
    0x080043d8   0x080043d8   0x00000084   Code   RO         3989    i.oled_show_char    oled.o
    0x0800445c   0x0800445c   0x00000056   Code   RO         3990    i.oled_show_num     oled.o
    0x080044b2   0x080044b2   0x00000002   PAD
    0x080044b4   0x080044b4   0x000000cc   Code   RO         3991    i.oled_show_str     oled.o
    0x08004580   0x08004580   0x00000034   Code   RO         1933    i.param_load        app.o
    0x080045b4   0x080045b4   0x00000094   Code   RO         2969    i.prvAddCurrentTaskToDelayedList  tasks.o
    0x08004648   0x08004648   0x000000ac   Code   RO         2970    i.prvAddNewTaskToReadyList  tasks.o
    0x080046f4   0x080046f4   0x00000050   Code   RO         3382    i.prvCheckForValidListAndQueue  timers.o
    0x08004744   0x08004744   0x0000003c   Code   RO         2971    i.prvCheckTasksWaitingTermination  tasks.o
    0x08004780   0x08004780   0x00000028   Code   RO         2562    i.prvCopyDataFromQueue  queue.o
    0x080047a8   0x080047a8   0x0000006e   Code   RO         2563    i.prvCopyDataToQueue  queue.o
    0x08004816   0x08004816   0x00000014   Code   RO         2972    i.prvDeleteTCB      tasks.o
    0x0800482a   0x0800482a   0x00000014   Code   RO         2564    i.prvGetDisinheritPriorityAfterTimeout  queue.o
    0x0800483e   0x0800483e   0x00000002   PAD
    0x08004840   0x08004840   0x00000024   Code   RO         3383    i.prvGetNextExpireTime  timers.o
    0x08004864   0x08004864   0x0000004c   Code   RO         3544    i.prvHeapInit       heap_4.o
    0x080048b0   0x080048b0   0x00000028   Code   RO         2973    i.prvIdleTask       tasks.o
    0x080048d8   0x080048d8   0x00000018   Code   RO         2565    i.prvInitialiseMutex  queue.o
    0x080048f0   0x080048f0   0x00000026   Code   RO         2566    i.prvInitialiseNewQueue  queue.o
    0x08004916   0x08004916   0x00000002   PAD
    0x08004918   0x08004918   0x000000d8   Code   RO         2974    i.prvInitialiseNewTask  tasks.o
    0x080049f0   0x080049f0   0x00000058   Code   RO         2975    i.prvInitialiseTaskLists  tasks.o
    0x08004a48   0x08004a48   0x00000054   Code   RO         3545    i.prvInsertBlockIntoFreeList  heap_4.o
    0x08004a9c   0x08004a9c   0x00000040   Code   RO         3385    i.prvInsertTimerInActiveList  timers.o
    0x08004adc   0x08004adc   0x0000001a   Code   RO         2567    i.prvIsQueueEmpty   queue.o
    0x08004af6   0x08004af6   0x0000001e   Code   RO         2568    i.prvIsQueueFull    queue.o
    0x08004b14   0x08004b14   0x0000009c   Code   RO         2569    i.prvNotifyQueueSetContainer  queue.o
    0x08004bb0   0x08004bb0   0x00000040   Code   RO         3386    i.prvProcessExpiredTimer  timers.o
    0x08004bf0   0x08004bf0   0x0000011c   Code   RO         3387    i.prvProcessReceivedCommands  timers.o
    0x08004d0c   0x08004d0c   0x0000006c   Code   RO         3388    i.prvProcessTimerOrBlockTask  timers.o
    0x08004d78   0x08004d78   0x00000028   Code   RO         3389    i.prvReloadTimer    timers.o
    0x08004da0   0x08004da0   0x00000020   Code   RO         2977    i.prvResetNextTaskUnblockTime  tasks.o
    0x08004dc0   0x08004dc0   0x0000002c   Code   RO         3390    i.prvSampleTimeNow  timers.o
    0x08004dec   0x08004dec   0x0000002c   Code   RO         3391    i.prvSwitchTimerLists  timers.o
    0x08004e18   0x08004e18   0x00000064   Code   RO         3600    i.prvTaskExitError  port.o
    0x08004e7c   0x08004e7c   0x00000014   Code   RO         3392    i.prvTimerTask      timers.o
    0x08004e90   0x08004e90   0x0000007c   Code   RO         2570    i.prvUnlockQueue    queue.o
    0x08004f0c   0x08004f0c   0x00000124   Code   RO         3546    i.pvPortMalloc      heap_4.o
    0x08005030   0x08005030   0x00000018   Code   RO         2982    i.pvTaskIncrementMutexHeldCount  tasks.o
    0x08005048   0x08005048   0x0000001c   Code   RO         3601    i.pxPortInitialiseStack  port.o
    0x08005064   0x08005064   0x00000018   Code   RO         3934    i.sg90_init         sg90.o
    0x0800507c   0x0800507c   0x0000007c   Code   RO         3935    i.sg90_pwm_init     sg90.o
    0x080050f8   0x080050f8   0x0000000c   Code   RO         3936    i.sg90_turn         sg90.o
    0x08005104   0x08005104   0x0000008c   Code   RO         3741    i.sonar_mm          hcsr04.o
    0x08005190   0x08005190   0x00000040   Code   RO         1934    i.sonar_val_get     app.o
    0x080051d0   0x080051d0   0x00000094   Code   RO         1882    i.start_task        os.o
    0x08005264   0x08005264   0x0000002c   Code   RO         1883    i.task1             os.o
    0x08005290   0x08005290   0x0000002c   Code   RO         1884    i.task2             os.o
    0x080052bc   0x080052bc   0x00000058   Code   RO         3964    i.tcrt_init         tcrt.o
    0x08005314   0x08005314   0x00000048   Code   RO         3965    i.tcrt_sta          tcrt.o
    0x0800535c   0x0800535c   0x00000070   Code   RO         2256    i.timer1_init       timer.o
    0x080053cc   0x080053cc   0x00000070   Code   RO         2257    i.timer3_init       timer.o
    0x0800543c   0x0800543c   0x000000a4   Code   RO         2151    i.usart1_init       usart.o
    0x080054e0   0x080054e0   0x000000a4   Code   RO         2152    i.usart2_init       usart.o
    0x08005584   0x08005584   0x00000040   Code   RO         2154    i.usart_printf      usart.o
    0x080055c4   0x080055c4   0x00000026   Code   RO         2522    i.uxListRemove      list.o
    0x080055ea   0x080055ea   0x00000016   Code   RO         2523    i.vListInitialise   list.o
    0x08005600   0x08005600   0x00000006   Code   RO         2524    i.vListInitialiseItem  list.o
    0x08005606   0x08005606   0x00000030   Code   RO         2525    i.vListInsert       list.o
    0x08005636   0x08005636   0x00000018   Code   RO         2526    i.vListInsertEnd    list.o
    0x0800564e   0x0800564e   0x00000002   PAD
    0x08005650   0x08005650   0x00000078   Code   RO         3603    i.vPortEnterCritical  port.o
    0x080056c8   0x080056c8   0x00000068   Code   RO         3604    i.vPortExitCritical  port.o
    0x08005730   0x08005730   0x000000a0   Code   RO         3547    i.vPortFree         heap_4.o
    0x080057d0   0x080057d0   0x00000024   Code   RO         3605    i.vPortSetupTimerInterrupt  port.o
    0x080057f4   0x080057f4   0x00000070   Code   RO         2576    i.vQueueAddToRegistry  queue.o
    0x08005864   0x08005864   0x00000046   Code   RO         2580    i.vQueueWaitForMessageRestricted  queue.o
    0x080058aa   0x080058aa   0x00000002   PAD
    0x080058ac   0x080058ac   0x00000070   Code   RO         2992    i.vTaskDelay        tasks.o
    0x0800591c   0x0800591c   0x000000d4   Code   RO         2993    i.vTaskDelete       tasks.o
    0x080059f0   0x080059f0   0x00000010   Code   RO         2997    i.vTaskInternalSetTimeOutState  tasks.o
    0x08005a00   0x08005a00   0x0000000c   Code   RO         2999    i.vTaskMissedYield  tasks.o
    0x08005a0c   0x08005a0c   0x00000058   Code   RO         3000    i.vTaskPlaceOnEventList  tasks.o
    0x08005a64   0x08005a64   0x00000078   Code   RO         3001    i.vTaskPlaceOnEventListRestricted  tasks.o
    0x08005adc   0x08005adc   0x000000e8   Code   RO         3003    i.vTaskPriorityDisinheritAfterTimeout  tasks.o
    0x08005bc4   0x08005bc4   0x00000090   Code   RO         3009    i.vTaskStartScheduler  tasks.o
    0x08005c54   0x08005c54   0x00000010   Code   RO         3011    i.vTaskSuspendAll   tasks.o
    0x08005c64   0x08005c64   0x00000080   Code   RO         3012    i.vTaskSwitchContext  tasks.o
    0x08005ce4   0x08005ce4   0x000000f0   Code   RO         3607    i.xPortStartScheduler  port.o
    0x08005dd4   0x08005dd4   0x0000002c   Code   RO         3608    i.xPortSysTickHandler  port.o
    0x08005e00   0x08005e00   0x00000018   Code   RO         2583    i.xQueueCreateMutex  queue.o
    0x08005e18   0x08005e18   0x00000074   Code   RO         2585    i.xQueueGenericCreate  queue.o
    0x08005e8c   0x08005e8c   0x000000d8   Code   RO         2586    i.xQueueGenericReset  queue.o
    0x08005f64   0x08005f64   0x0000019c   Code   RO         2587    i.xQueueGenericSend  queue.o
    0x08006100   0x08006100   0x00000150   Code   RO         2595    i.xQueueReceive     queue.o
    0x08006250   0x08006250   0x00000190   Code   RO         2600    i.xQueueSemaphoreTake  queue.o
    0x080063e0   0x080063e0   0x000000b0   Code   RO         3015    i.xTaskCheckForTimeOut  tasks.o
    0x08006490   0x08006490   0x00000060   Code   RO         3016    i.xTaskCreate       tasks.o
    0x080064f0   0x080064f0   0x0000001c   Code   RO         3025    i.xTaskGetSchedulerState  tasks.o
    0x0800650c   0x0800650c   0x0000000c   Code   RO         3026    i.xTaskGetTickCount  tasks.o
    0x08006518   0x08006518   0x00000150   Code   RO         3028    i.xTaskIncrementTick  tasks.o
    0x08006668   0x08006668   0x000000d4   Code   RO         3029    i.xTaskPriorityDisinherit  tasks.o
    0x0800673c   0x0800673c   0x000000b4   Code   RO         3030    i.xTaskPriorityInherit  tasks.o
    0x080067f0   0x080067f0   0x00000100   Code   RO         3031    i.xTaskRemoveFromEventList  tasks.o
    0x080068f0   0x080068f0   0x0000014c   Code   RO         3032    i.xTaskResumeAll    tasks.o
    0x08006a3c   0x08006a3c   0x00000074   Code   RO         3400    i.xTimerCreateTimerTask  timers.o
    0x08006ab0   0x08006ab0   0x0000002c   Code   RO         4365    locale$$code        c_w.l(lc_numeric_c.o)
    0x08006adc   0x08006adc   0x0000002c   Code   RO         4393    locale$$code        c_w.l(lc_ctype_c.o)
    0x08006b08   0x08006b08   0x00000062   Code   RO         4161    x$fpl$d2f           fz_ws.l(d2f.o)
    0x08006b6a   0x08006b6a   0x00000002   PAD
    0x08006b6c   0x08006b6c   0x00000010   Code   RO         4273    x$fpl$dcheck1       fz_ws.l(dcheck1.o)
    0x08006b7c   0x08006b7c   0x00000026   Code   RO         4163    x$fpl$dfltu         fz_ws.l(dflt_clz.o)
    0x08006ba2   0x08006ba2   0x00000002   PAD
    0x08006ba4   0x08006ba4   0x00000154   Code   RO         4169    x$fpl$dmul          fz_ws.l(dmul.o)
    0x08006cf8   0x08006cf8   0x0000009c   Code   RO         4275    x$fpl$dnaninf       fz_ws.l(dnaninf.o)
    0x08006d94   0x08006d94   0x0000000c   Code   RO         4277    x$fpl$dretinf       fz_ws.l(dretinf.o)
    0x08006da0   0x08006da0   0x000000c4   Code   RO         4171    x$fpl$fadd          fz_ws.l(faddsub_clz.o)
    0x08006e64   0x08006e64   0x0000003e   Code   RO         4181    x$fpl$ffixu         fz_ws.l(ffixu.o)
    0x08006ea2   0x08006ea2   0x00000002   PAD
    0x08006ea4   0x08006ea4   0x00000026   Code   RO         4185    x$fpl$ffltu         fz_ws.l(fflt_clz.o)
    0x08006eca   0x08006eca   0x00000002   PAD
    0x08006ecc   0x08006ecc   0x00000102   Code   RO         4191    x$fpl$fmul          fz_ws.l(fmul.o)
    0x08006fce   0x08006fce   0x0000008c   Code   RO         4279    x$fpl$fnaninf       fz_ws.l(fnaninf.o)
    0x0800705a   0x0800705a   0x0000000a   Code   RO         4281    x$fpl$fretinf       fz_ws.l(fretinf.o)
    0x08007064   0x08007064   0x00000014   Code   RO         4172    x$fpl$frsb          fz_ws.l(faddsub_clz.o)
    0x08007078   0x08007078   0x000000ea   Code   RO         4173    x$fpl$fsub          fz_ws.l(faddsub_clz.o)
    0x08007162   0x08007162   0x00000004   Code   RO         4283    x$fpl$printf1       fz_ws.l(printf1.o)
    0x08007166   0x08007166   0x00000004   Code   RO         4285    x$fpl$printf2       fz_ws.l(printf2.o)
    0x0800716a   0x0800716a   0x00000064   Code   RO         4326    x$fpl$retnan        fz_ws.l(retnan.o)
    0x080071ce   0x080071ce   0x0000005c   Code   RO         4193    x$fpl$scalbn        fz_ws.l(scalbn.o)
    0x0800722a   0x0800722a   0x00000030   Code   RO         4381    x$fpl$trapveneer    fz_ws.l(trapv.o)
    0x0800725a   0x0800725a   0x00000000   Code   RO         4291    x$fpl$usenofp       fz_ws.l(usenofp.o)
    0x0800725a   0x0800725a   0x00000002   PAD
    0x0800725c   0x0800725c   0x00000018   Data   RO         2335    .constdata          malloc.o
    0x08007274   0x08007274   0x00000022   Data   RO         3685    .constdata          ble.o
    0x08007296   0x08007296   0x00000818   Data   RO         3994    .constdata          oled.o
    0x08007aae   0x08007aae   0x00000011   Data   RO         4132    .constdata          c_w.l(__printf_flags_ss_wp.o)
    0x08007abf   0x08007abf   0x00000001   PAD
    0x08007ac0   0x08007ac0   0x00000008   Data   RO         4221    .constdata          c_w.l(_printf_wctomb.o)
    0x08007ac8   0x08007ac8   0x00000028   Data   RO         4250    .constdata          c_w.l(_printf_hex_int_ll_ptr.o)
    0x08007af0   0x08007af0   0x00000026   Data   RO         4314    .constdata          c_w.l(_printf_fp_hex.o)
    0x08007b16   0x08007b16   0x00000002   PAD
    0x08007b18   0x08007b18   0x00000094   Data   RO         4340    .constdata          c_w.l(bigflt0.o)
    0x08007bac   0x08007bac   0x00000020   Data   RO         4508    Region$$Table       anon$$obj.o
    0x08007bcc   0x08007bcc   0x0000001c   Data   RO         4364    locale$$data        c_w.l(lc_numeric_c.o)
    0x08007be8   0x08007be8   0x00000110   Data   RO         4392    locale$$data        c_w.l(lc_ctype_c.o)


    Execution Region ER_RW (Exec base: 0x20000000, Load base: 0x08007cf8, Size: 0x0000010c, Max: 0xffffffff, ABSOLUTE)

    Exec Addr    Load Addr    Size         Type   Attr      Idx    E Section Name        Object

    0x20000000   0x08007cf8   0x00000014   Data   RW          493    .data               stm32f10x_rcc.o
    0x20000014   0x08007d0c   0x00000014   Data   RW         1731    .data               system_stm32f10x.o
    0x20000028   0x08007d20   0x00000010   Data   RW         1885    .data               os.o
    0x20000038   0x08007d30   0x00000015   Data   RW         1936    .data               app.o
    0x2000004d   0x08007d45   0x00000001   PAD
    0x2000004e   0x08007d46   0x00000002   Data   RW         2076    .data               delay.o
    0x20000050   0x08007d48   0x00000004   Data   RW         2156    .data               usart.o
    0x20000054   0x08007d4c   0x00000004   Data   RW         2157    .data               usart.o
    0x20000058   0x08007d50   0x0000001c   Data   RW         2336    .data               malloc.o
    0x20000074   0x08007d6c   0x00000040   Data   RW         3035    .data               tasks.o
    0x200000b4   0x08007dac   0x00000014   Data   RW         3409    .data               timers.o
    0x200000c8   0x08007dc0   0x00000020   Data   RW         3553    .data               heap_4.o
    0x200000e8   0x08007de0   0x0000000c   Data   RW         3609    .data               port.o
    0x200000f4   0x08007dec   0x00000002   Data   RW         3686    .data               ble.o
    0x200000f6   0x08007dee   0x00000002   PAD
    0x200000f8   0x08007df0   0x00000010   Data   RW         3742    .data               hcsr04.o
    0x20000108   0x08007e00   0x00000002   Data   RW         3937    .data               sg90.o
    0x2000010a   0x08007e02   0x00000001   Data   RW         4068    .data               beep.o


    Execution Region ER_ZI (Exec base: 0x2000010c, Load base: 0x08007e04, Size: 0x00008534, Max: 0xffffffff, ABSOLUTE)

    Exec Addr    Load Addr    Size         Type   Attr      Idx    E Section Name        Object

    0x2000010c        -       0x00000028   Zero   RW         1935    .bss                app.o
    0x20000134        -       0x00000200   Zero   RW         2155    .bss                usart.o
    0x20000334   0x08007e04   0x0000000c   PAD
    0x20000340        -       0x00001400   Zero   RW         2333    .bss                malloc.o
    0x20001740        -       0x00000140   Zero   RW         2334    .bss                malloc.o
    0x20001880        -       0x00000040   Zero   RW         2602    .bss                queue.o
    0x200018c0        -       0x000002e4   Zero   RW         3034    .bss                tasks.o
    0x20001ba4        -       0x00000028   Zero   RW         3408    .bss                timers.o
    0x20001bcc        -       0x00006400   Zero   RW         3552    .bss                heap_4.o
    0x20007fcc        -       0x00000014   Zero   RW         3684    .bss                ble.o
    0x20007fe0        -       0x00000060   Zero   RW         4386    .bss                c_w.l(libspace.o)
    0x20008040        -       0x00000200   Zero   RW           18    HEAP                startup_stm32f10x_hd.o
    0x20008240        -       0x00000400   Zero   RW           17    STACK               startup_stm32f10x_hd.o



  Load Region LR$$.ARM.__AT_0x68000000 (Base: 0x68000000, Size: 0x00000000, Max: 0x00000020, ABSOLUTE)

    Execution Region ER$$.ARM.__AT_0x68000000 (Exec base: 0x68000000, Load base: 0x68000000, Size: 0x00000020, Max: 0x00000020, ABSOLUTE, UNINIT)

    Exec Addr    Load Addr    Size         Type   Attr      Idx    E Section Name        Object

    0x68000000        -       0x00000020   Zero   RW         2331    .ARM.__AT_0x68000000  malloc.o



  Load Region LR$$.ARM.__AT_0x68000020 (Base: 0x68000020, Size: 0x00000000, Max: 0x00000004, ABSOLUTE)

    Execution Region ER$$.ARM.__AT_0x68000020 (Exec base: 0x68000020, Load base: 0x68000020, Size: 0x00000004, Max: 0x00000004, ABSOLUTE, UNINIT)

    Exec Addr    Load Addr    Size         Type   Attr      Idx    E Section Name        Object

    0x68000020        -       0x00000002   Zero   RW         2332    .ARM.__AT_0x68000020  malloc.o


==============================================================================

Image component sizes


      Code (inc. data)   RO Data    RW Data    ZI Data      Debug   Object Name

       234         16          0          0          0       1743   adc.o
      2908        612          0         21         40      13754   app.o
       104         18          0          1          0       1195   beep.o
       520        168         34          2         20       4273   ble.o
         0          0          0          0          0       4564   core_cm3.o
       134         12          0          2          0       2301   delay.o
         0          0          0          0          0      14584   event_groups.o
       268         28          0         16          0       1922   hcsr04.o
       612        134          0         32      25600       4151   heap_4.o
       280         24          0          0          0       2130   iic.o
        42          0          0          0          0        980   iwdg.o
       138          0          0          0          0       3118   list.o
        20          0          0          0          0      16963   main.o
       520         52         24         28       5474       7549   malloc.o
       148         14          0          0          0     266073   misc.o
       856         44          0          0          0       7626   motor.o
       806         20       2072          0          0       6275   oled.o
       288         94          0         16          0       2332   os.o
       822        300          0         12          0       9408   port.o
      2254        278          0          0         64      17553   queue.o
       160         18          0          2          0       1795   sg90.o
        64         26        304          0       1536        804   startup_stm32f10x_hd.o
       404         22          0          0          0       9018   stm32f10x_adc.o
       200          0          0          0          0       4344   stm32f10x_gpio.o
       416         14          0          0          0       7479   stm32f10x_i2c.o
        12          0          0          0          0       2473   stm32f10x_it.o
        68         30          0          0          0       2474   stm32f10x_iwdg.o
       304         48          0         20          0       6339   stm32f10x_rcc.o
       868         90          0          0          0      13319   stm32f10x_tim.o
       360          6          0          0          0       6513   stm32f10x_usart.o
        48         10          0          0          0        910   sys.o
       260         26          0         20          0       2049   system_stm32f10x.o
      3508        690          0         64        740      35327   tasks.o
       160         26          0          0          0       1311   tcrt.o
       224          8          0          0          0       1332   timer.o
       900        168          0         20         40      10816   timers.o
       626         50          0          8        512       6315   usart.o

    ----------------------------------------------------------------------
     19566       3046       2466        268      34040     501112   Object Totals
         0          0         32          0          0          0   (incl. Generated)
        30          0          0          4         14          0   (incl. Padding)

    ----------------------------------------------------------------------

      Code (inc. data)   RO Data    RW Data    ZI Data      Debug   Library Member Name

        24          4          0          0          0         84   __2printf.o
         8          0          0          0          0         68   __main.o
       392          4         17          0          0         92   __printf_flags_ss_wp.o
        14          0          0          0          0         68   __printf_wp.o
         0          0          0          0          0          0   __rtentry.o
        12          0          0          0          0          0   __rtentry2.o
         6          0          0          0          0          0   __rtentry4.o
        52          8          0          0          0          0   __scatter.o
        26          0          0          0          0          0   __scatter_copy.o
        28          0          0          0          0          0   __scatter_zi.o
         6          0          0          0          0          0   _printf_a.o
         6          0          0          0          0          0   _printf_c.o
        44          0          0          0          0        108   _printf_char.o
        48          6          0          0          0         96   _printf_char_common.o
        36          4          0          0          0         80   _printf_char_file.o
        40          0          0          0          0         68   _printf_charcount.o
         6          0          0          0          0          0   _printf_d.o
       120         16          0          0          0         92   _printf_dec.o
         6          0          0          0          0          0   _printf_e.o
         6          0          0          0          0          0   _printf_f.o
      1054          0          0          0          0        216   _printf_fp_dec.o
       764          8         38          0          0        100   _printf_fp_hex.o
       128         16          0          0          0         84   _printf_fp_infnan.o
         6          0          0          0          0          0   _printf_g.o
       148          4         40          0          0        160   _printf_hex_int_ll_ptr.o
         6          0          0          0          0          0   _printf_i.o
       178          0          0          0          0         88   _printf_intcommon.o
        10          0          0          0          0          0   _printf_l.o
         6          0          0          0          0          0   _printf_lc.o
        10          0          0          0          0          0   _printf_ll.o
         6          0          0          0          0          0   _printf_lld.o
         6          0          0          0          0          0   _printf_lli.o
         6          0          0          0          0          0   _printf_llo.o
         6          0          0          0          0          0   _printf_llu.o
         6          0          0          0          0          0   _printf_llx.o
       124         16          0          0          0         92   _printf_longlong_dec.o
         6          0          0          0          0          0   _printf_ls.o
         6          0          0          0          0          0   _printf_n.o
         6          0          0          0          0          0   _printf_o.o
       112         10          0          0          0        124   _printf_oct_int_ll.o
         6          0          0          0          0          0   _printf_p.o
        78          0          0          0          0        108   _printf_pad.o
         0          0          0          0          0          0   _printf_percent.o
         4          0          0          0          0          0   _printf_percent_end.o
         6          0          0          0          0          0   _printf_s.o
        82          0          0          0          0         80   _printf_str.o
        36          0          0          0          0         84   _printf_truncate.o
         6          0          0          0          0          0   _printf_u.o
        44          0          0          0          0        108   _printf_wchar.o
       188          6          8          0          0         92   _printf_wctomb.o
         6          0          0          0          0          0   _printf_x.o
        16          0          0          0          0         68   _snputc.o
        10          0          0          0          0         68   _sputc.o
        64          0          0          0          0         92   _wcrtomb.o
        16          0          0          0          0         68   aeabi_memset.o
       228          4        148          0          0         96   bigflt0.o
      1936        128          0          0          0        672   btod.o
        18          0          0          0          0         80   exit.o
         8          0          0          0          0         68   ferror.o
         6          0          0          0          0        152   heapauxi.o
        44         10        272          0          0         76   lc_ctype_c.o
        44         10         28          0          0         76   lc_numeric_c.o
         2          0          0          0          0          0   libinit.o
        30          0          0          0          0          0   libinit2.o
         2          0          0          0          0          0   libshutdown.o
         2          0          0          0          0          0   libshutdown2.o
         8          4          0          0         96         68   libspace.o
       138          0          0          0          0         80   lludiv10.o
       238          0          0          0          0        100   lludivv7m.o
        16          4          0          0          0         76   rt_ctype_table.o
         8          4          0          0          0         68   rt_locale_intlibspace.o
        68          0          0          0          0         68   rt_memclr.o
        78          0          0          0          0         80   rt_memclr_w.o
       138          0          0          0          0         68   rt_memcpy_v6.o
       100          0          0          0          0         80   rt_memcpy_w.o
         2          0          0          0          0          0   rtexit.o
        10          0          0          0          0          0   rtexit2.o
        24          0          0          0          0         68   strcat.o
       128          0          0          0          0         68   strcmpv7m.o
        36          0          0          0          0         80   strstr.o
        74          0          0          0          0         80   sys_stackheap_outer.o
         2          0          0          0          0         68   use_no_semi.o
         2          0          0          0          0         68   use_no_semi_2.o
        52          4          0          0          0         80   vsnprintf.o
        98          4          0          0          0         92   d2f.o
        16          4          0          0          0         68   dcheck1.o
        38          0          0          0          0         68   dflt_clz.o
       340         12          0          0          0        104   dmul.o
       156          4          0          0          0         92   dnaninf.o
        12          0          0          0          0         68   dretinf.o
       450          8          0          0          0        236   faddsub_clz.o
        62          4          0          0          0         84   ffixu.o
        38          0          0          0          0         68   fflt_clz.o
       258          4          0          0          0         84   fmul.o
       140          4          0          0          0         84   fnaninf.o
        10          0          0          0          0         68   fretinf.o
         4          0          0          0          0         68   printf1.o
         4          0          0          0          0         68   printf2.o
       100          0          0          0          0         68   retnan.o
        92          0          0          0          0         68   scalbn.o
        48          0          0          0          0         68   trapv.o
         0          0          0          0          0          0   usenofp.o
        40          0          0          0          0         68   fpclassify.o

    ----------------------------------------------------------------------
      9406        314        554          0         96       6332   Library Totals
        22          0          3          0          0          0   (incl. Padding)

    ----------------------------------------------------------------------

      Code (inc. data)   RO Data    RW Data    ZI Data      Debug   Library Name

      7478        270        551          0         96       4808   c_w.l
      1866         44          0          0          0       1456   fz_ws.l
        40          0          0          0          0         68   m_ws.l

    ----------------------------------------------------------------------
      9406        314        554          0         96       6332   Library Totals

    ----------------------------------------------------------------------

==============================================================================


      Code (inc. data)   RO Data    RW Data    ZI Data      Debug   

     28972       3360       3020        268      34136     491372   Grand Totals
     28972       3360       3020        268      34136     491372   ELF Image Totals
     28972       3360       3020        268          0          0   ROM Totals

==============================================================================

    Total RO  Size (Code + RO Data)                31992 (  31.24kB)
    Total RW  Size (RW Data + ZI Data)             34404 (  33.60kB)
    Total ROM Size (Code + RO Data + RW Data)      32260 (  31.50kB)

==============================================================================

